:020000040800F2
:100000000050002021020008290200082D020008EB
:1000100045020008490200086102000800000000D3
:10002000000000000000000000000000711A00083D
:100030007D02000800000000011B0008451B0008AD
:100040009502000895020008950200089502000834
:100050009502000895020008950200089502000824
:100060009502000895020008950200089502000814
:100070009502000895020008950200089502000804
:1000800095020008950200089502000895020008F4
:1000900095020008950200089502000895020008E4
:1000A00095020008950200089502000895020008D4
:1000B00095020008950200089502000895020008C4
:1000C00095020008950200089502000895020008B4
:1000D00095020008950200089502000895020008A4
:1000E0009502000895020008950200080000000033
:1000F0000000000000000000000000000000000000
:1001000000000000000000005FF808F100B583B0B7
:1001100000F0DCFD304B314A1360314A1360314B43
:10012000314A03E011681960043304322F498B42CD
:10013000F8D32A4B1A682E4B9A4204D1284B1A68DE
:100140002C4B9A4200D0FEE7234B2B4A13602B4ADC
:1001500013602B4B02E000221A600433294A9342B9
:10016000F9D3254B1B6813B9244B1B6803B1FEE779
:1001700000F0B8FD01A8694600F09CFD224C234B1D
:100180001C1BA410002504E01F4B53F82530984792
:100190000135AC42F8DC1E4C1E4B1C1BA410002584
:1001A00004E01B4B53F8253098470135AC42F8DC8E
:1001B0000198009901F024FA0546174C174B1C1BB7
:1001C000A41004E0013C144B53F824309847002C51
:1001D000F8DC284600F068FDBABADECA000000204C
:1001E00030000020000000202446000834000020D9
:1001F000785634123254769834000020CC470020D0
:1002000034000020D0470020C0020008C0020008CF
:10021000C0020008C0020008C0020008C0020008B6
:1002200008B5FFF773FF00BF00BEFEE71EF0040F26
:100230000CBFEFF30880EFF309807146124A1047B4
:1002400000BEFEE700BEFEE71EF0040F0CBFEFF39A
:100250000880EFF3098071460C4A104700BEFEE7A4
:100260001EF0040F0CBFEFF30880EFF30980714616
:10027000074A104700BEFEE700BEFEE700BEFEE7ED
:1002800000BEFEE770470000410200085D02000862
:080290007502000800BEFEE744
:1002980024460008000000203400002024460008FE
:1002A800000000000000000034000020D0470020BB
:0802B80000000000000000003E
:1002C00038B505460C46B0F1005F06D0B0F1006FBE
:1002D00003D00948AA2100F0F5FC084B9C4203D941
:1002E0000548AB2100F0EEFC24F0604121F07F01D5
:1002F0002943034B996038BD98410008FEFF0F0069
:1003000000ED00E010B50446022804D9054840F28B
:10031000031100F0D7FC044A136803F038031C43B0
:10032000146010BDC04100080020024010B5044612
:10033000102805D020B1074840F22F1100F0C2FC70
:10034000054B1A6822F010021A601A6814431C60E8
:1003500010BD00BFC041000800200240F8B50546AE
:100360000C46474B98421BD003F58063984217D048
:1003700003F58063984213D003F5806398420FD051
:1003800003F5806398420BD003F58063984207D051
:1003900003F58063984203D03A48B22100F092FC02
:1003A000E3788BB1042B0FD0282B0DD0482B0BD02A
:1003B000142B09D0102B07D01C2B05D0182B03D0E1
:1003C0003048B32100F07EFC23881BB92D48B421AE
:1003D00000F078FCE37803F00F06304613F0100FBE
:1003E0000AD0A378013BDBB2022B03D92548BB21FD
:1003F00000F068FCA07830432378E3B12E68002237
:1004000016E0012393402188194099420FD19700AB
:100410000F21B94026EA010600FA07F10E43E17800
:10042000282901D16B6102E0482900D12B610132FA
:10043000072AE6D92E602388FF2B20D96F68002178
:100440001AE001F108020123934022881A409A42DF
:1004500011D14FEA810E0F2202FA0EF627EA0602A8
:1004600000FA0EF71743E278282A00D16B61E27890
:10047000482A00D12B6101310729E2D96F60F8BD0C
:1004800000080140F44100084FF6FF730380022387
:1004900083700423C370704738B504460D462A4B59
:1004A00098421CD003F58063984218D003F580630E
:1004B000984214D003F58063984210D003F580630E
:1004C00098420CD003F58063984208D003F580630E
:1004D000984204D01D484FF48F7100F0F3FB6B1E5F
:1004E0009BB2012B28D9042D26D0082D24D0102D05
:1004F00022D0202D20D0402D1ED0802D1CD0B5F52F
:10050000807F19D0B5F5007F16D0B5F5806F13D078
:10051000B5F5006F10D0B5F5805F0DD0B5F5005F73
:100520000AD0B5F5804F07D0B5F5004F04D0074885
:1005300040F21F1100F0C6FBA3682B4201D001203E
:1005400038BD002038BD00BF00080140F44100085C
:1005500010B50446114B98421CD003F580639842B5
:1005600018D003F58063984214D003F58063984255
:1005700010D003F5806398420CD003F58063984255
:1005800008D003F58063984204D005484FF49A716F
:1005900000F098FBA06880B210BD00BF00080140C9
:1005A000F441000838B504460D46144B98421CD05F
:1005B00003F58063984218D003F58063984214D005
:1005C00003F58063984210D003F5806398420CD005
:1005D00003F58063984208D003F58063984204D005
:1005E000074840F2691100F06DFB25B904484FF44B
:1005F000B57100F067FB256138BD00BF0008014000
:10060000F441000838B504460D46144B98421CD0FE
:1006100003F58063984218D003F58063984214D0A4
:1006200003F58063984210D003F5806398420CD0A4
:1006300003F58063984208D003F58063984204D0A4
:10064000074840F2791100F03DFB25B904484FF40A
:10065000BD7100F037FB656138BD00BF0008014087
:10066000F441000838B504460D46114B98421CD0A1
:1006700003F58063984218D003F58063984214D044
:1006800003F58063984210D003F5806398420CD044
:1006900003F58063984208D003F58063984204D044
:1006A00004484FF4D27100F00DFBE56038BD00BF87
:1006B00000080140F44100080D4B1A6842F00102A5
:1006C0001A6059680B4A0A405A601A6822F084720C
:1006D00022F480321A601A6822F480221A605A6862
:1006E00022F4FE025A604FF41F029A60704700BF66
:1006F000001002400000FFF810B5044650B1B0F5FC
:10070000803F07D0B0F5802F04D0104840F211117F
:1007100000F0D8FA0E4B1A6822F480321A601A6878
:1007200022F480221A60B4F5803F03D0B4F5802F04
:1007300006D010BD064A136843F48033136010BD21
:10074000034A136843F4A023136010BD2842000835
:100750000010024038B50C46054650B1B0F5803F58
:1007600007D0B0F5403F04D01E4840F27F1100F0A2
:10077000A9FA74B3B4F5802F2BD0B4F5002F28D08C
:10078000B4F5402F25D0B4F5801F22D0B4F5A01FBA
:100790001FD0B4F5C01F1CD0B4F5E01F19D0B4F5BC
:1007A000001F16D0B4F5101F13D0B4F5201F10D0C1
:1007B000B4F5301F0DD0B4F5401F0AD0B4F5501F6A
:1007C00007D0B4F5601F04D006484FF4C07100F0A4
:1007D00079FA054A536823F47C132C431C43546074
:1007E00038BD00BF284200080010024010B5044682
:1007F000012804D903484FF4CA7100F063FA024B90
:100800001C6010BD284200086000424210B504463A
:10081000022804D905484FF40E7100F053FA044A37
:10082000536823F003031C43546010BD28420008A2
:1008300000100240024B586800F00C00704700BFE7
:100840000010024010B50446A0B1802812D09028B4
:1008500010D0A0280ED0B0280CD0C0280AD0D028A4
:1008600008D0E02806D0F02804D006484FF41971CB
:1008700000F028FA044A536823F0F0031C43546044
:1008800010BD00BF284200080010024010B5044609
:1008900080B1B0F5806F0DD0B0F5A06F0AD0B0F583
:1008A000C06F07D0B0F5E06F04D0064840F27E215B
:1008B00000F008FA044A536823F4E0631C435460D0
:1008C00010BD00BF284200080010024010B50446C9
:1008D00080B1B0F5806F0DD0B0F5A06F0AD0B0F543
:1008E000C06F07D0B0F5E06F04D006484FF4267112
:1008F00000F0E8F9044B586820F4605040EAC40066
:10090000586010BD284200080010024038B5044667
:100910000D460E4B034003B920B90D4840F24A4141
:1009200000F0D0F9012D04D9094840F24B4100F004
:10093000C9F925B1074B9A6914439C6138BD054A32
:10094000936923EA0404946138BD00BF0200C0FF2C
:10095000284200080010024010B50446212818D093
:10096000312816D0392814D0412812D0612810D04F
:100970007A280ED07B280CD07C280AD07D2808D07D
:100980007E2806D07F2804D00D4840F2345100F074
:1009900099F96309012B02D10A4B1B6806E0022B6F
:1009A00002D1084B1B6A01E0064B5B6A04F01F048E
:1009B000E34013F0010F01D0012010BD002010BD55
:1009C000284200080010024000B583B000230193C4
:1009D0003120FFF7C1FF019B01330193019BB3F568
:1009E000A06F01D00028F3D03120FFF7B5FF08B188
:1009F000012000E0002003B05DF804FB2DE9F04188
:100A000005460C46464B98420BD0A3F578439842D6
:100A100007D003F58063984203D04248A32100F039
:100A200051F9238863B1B3F5806F09D0B3F5004F56
:100A300006D0B3F5404F03D03A48A62100F042F962
:100A40006388B3F5827F04D01BB13648A72100F03C
:100A500039F9A388B3F5006F04D01BB13148A82140
:100A600000F030F9E3882BB1022B03D02D48A921E7
:100A700000F028F92389012B03D92A48AA2100F084
:100A800021F96389B3F5007F04D01BB12548AB2160
:100A900000F018F9A3898BB1082B0FD0102B0DD0C3
:100AA000182B0BD0202B09D0282B07D0302B05D0AA
:100AB000382B03D01B48AC2100F004F9E3892BB19B
:100AC000802B03D01748AD2100F0FCF8238A1BB916
:100AD0001448AE2100F0F6F82B8803F44157208823
:100AE0006688A188B4F806802289B4F80AC0A38970
:100AF000B4F80EE03043084348EA000111434CEAE1
:100B000001021A434EEA02033B432B80AB8B23F4D2
:100B100000631B041B0CAB83238A2B82BDE8F0818E
:100B2000003001405842000838B504460D46124BCB
:100B300098420CD0A3F57843984208D003F580631F
:100B4000984204D00D4840F2B71100F0BBF8012DD7
:100B500004D90A484FF4DC7100F0B4F82DB12388B1
:100B60009BB243F04003238038BD238823F0400329
:100B70001B041B0C238038BD003001405842000884
:100B800038B504460D46094B98420CD0A3F578437E
:100B9000984208D003F58063984204D0044840F29C
:100BA0003A2100F08FF8A58138BD00BF0030014028
:100BB0005842000810B50446094B98420CD0A3F5E2
:100BC0007843984208D003F58063984204D00548E2
:100BD00040F24A2100F076F8A08980B210BD00BF33
:100BE000003001405842000838B504460D46124B0B
:100BF00098420CD0A3F57843984208D003F580635F
:100C0000984204D00D484FF41D7100F05BF8012D9F
:100C100004D90A4840F2752100F054F82DB1A38898
:100C20009BB243F00403A38038BDA38823F00403E0
:100C30001B041B0CA38038BD003001405842000843
:100C400038B505460C46164B98420CD0A3F57843B0
:100C5000984208D003F58063984204D0114840F2CE
:100C6000163100F02FF8802C12D0402C10D0202C00
:100C70000ED0102C0CD0082C0AD0042C08D0022C3A
:100C800006D0012C04D0074840F2173100F01AF8C2
:100C90002B891C4201D0012038BD002038BD00BF87
:100CA0000030014058420008FEE700BF08B50120AF
:100CB000FFF7FAFF01230360014B0B60704700BF91
:100CC0000400002008B5FFF7F1FF00BF08B500F0F1
:100CD00073F8024B024A9A6008BD00BF00ED00E0C5
:100CE0000000000808B500F08FF808BD82B00023AE
:100CF000019300932C4A136843F4803313602A4B0A
:100D00001B6803F400330093019B01330193009BA4
:100D10001BB9019BB3F5A06FF1D1234B1B6813F4F2
:100D2000003F02D00123009301E000230093009BC9
:100D3000012B36D11D4B1A6842F010021A601A6856
:100D400022F003021A601A6842F002021A60A3F548
:100D500080535A685A605A685A605A6842F48062EE
:100D60005A605A6822F47C125A605A6842F4E812B7
:100D70005A601A6842F080721A600B4B1B6813F0BD
:100D8000007FFAD0084B5A6822F003025A605A6872
:100D900042F002025A60044B5B6803F00C03082B1C
:100DA000F9D102B0704700BF00100240002002409D
:100DB00008B5FFF79BFF08BD08B5104B1A6842F055
:100DC00001021A6059680E4A0A405A601A6822F0F5
:100DD000847222F480321A601A6822F480221A6027
:100DE0005A6822F4FE025A604FF41F029A60FFF71D
:100DF000DFFF4FF00062034B9A6008BD0010024015
:100E00000000FFF800ED00E01F4B5B6803F00C03EF
:100E1000042B06D0082B08D03BBB1C4A1C4B1A6085
:100E200026E01A4A1A4B1A6022E0174A53685268A1
:100E3000C3F38343023312F4803F05D1154A02FB0A
:100E400003F3134A136013E00F4A526812F4003F91
:100E500005D0104A02FB03F30D4A136008E00B4A69
:100E600002FB03F30A4A136002E0084A084B1A60C7
:100E7000054B5B68C3F30313074AD25CD2B2044943
:100E80000B68D3400B6070470010024000127A00DC
:100E90001C00002000093D000C00002000BF00BF26
:100EA00000BF00BF00BF00BF00BF00BF00BF00BF4A
:100EB00000BF00BF00BF00BF00BF00BF00BF00BF3A
:100EC00000BF00BF00BF00BF00BF00BF00BF00BF2A
:100ED00000BF00BF00BF00BF00BF00BF00BF00BF1A
:100EE00000BF00BF00BF00BF00BF00BF00BF00BF0A
:100EF00000BF00BF00BF00BF00BF00BF00BF00BFFA
:100F000000BF00BF00BF00BF00BF00BF00BF00BFE9
:100F100000BF00BF00BF00BF00BF00BF00BF00BFD9
:100F200000BF00BF00BF00BF00BF00BF00BF00BFC9
:100F300000BF00BF00BF00BF00BF00BF00BF00BFB9
:100F400000BF00BF00BF00BF00BF00BF00BF00BFA9
:100F500000BF00BF00BF00BF00BF00BF704700BFA1
:100F600008B5012809D010B102280CD008BD0948E5
:100F70004FF40061FFF746FB08BD06484FF480516F
:100F8000FFF740FB08BD03484FF40051FFF73AFB61
:100F900008BD00BF0010014008B5012809D010B1FC
:100FA00002280CD008BD09484FF40061FFF7FAFA97
:100FB00008BD06484FF48051FFF7F4FA08BD034816
:100FC0004FF40051FFF7EEFA08BD00BF00100140DA
:100FD00070B50646184D2846FFF756FAFF232B80BA
:100FE0004823EB70154C20462946FFF7B7F92046F9
:100FF0004FF40071FFF7D6FA20464FF48071FFF7E7
:1010000001FB3046FFF7ACFFFFF748FF20464FF4E7
:101010008061FFF7C7FAFFF741FF2046FFF798FA14
:10102000C5B220464FF48061FFF7ECFA3046FFF777
:10103000B3FF284670BD00BF3C00002000100140F7
:10104000F8B506460C462046FFF7C2FF10F0800FA9
:10105000F9D11B4F3846FFF717FAFF233B801023C7
:10106000FB70184D28463946FFF778F928464FF4AB
:101070004071FFF7C7FAFFF711FF2046FFF770FF37
:10108000FFF70CFF28463146FFF78CFAF14328465C
:10109000C9B2FFF7B7FAFFF701FF28464FF48061A6
:1010A000FFF780FAFFF7FAFE28464FF48061FFF75A
:1010B000A9FAFFF7F3FE2046FFF76EFFF8BD00BF69
:1010C0003C0000200010014070B50546234B187805
:1010D0008009FFF77DFF10F0800FF7D1204E3046DA
:1010E000FFF7D2F9FF2333801023F3701D4C204605
:1010F0003146FFF733F920464FF40071FFF782FACB
:10110000FFF7CCFE20464FF48071FFF74BFAFFF754
:10111000C5FE2B0483F47F031D432561FFF7BEFE4C
:101120000E4D28788009FFF71BFFFFF7B7FE20461A
:101130004FF48061FFF736FAFFF7B0FE20464FF418
:101140008061FFF75FFAFFF7A9FE28788009FFF7B3
:1011500023FF2B7801332B7070BD00BF39000020B6
:101160003C0000200010014038B510200121FFF79D
:10117000CDFB0B4C2046FFF787F94FF6FF7323801A
:101180000223A3701023E370064D28462146FFF783
:10119000E5F8284641F6FF71FFF764FA38BD00BF55
:1011A0003C000020001001400078704710B5FFF7A8
:1011B000DBFF002405E03F202146FFF741FF01341B
:1011C000E4B2012CF7D910BD70B505460E46124B9E
:1011D0001870124B197000240EE040202146FFF7D2
:1011E0002FFF46F0B8002146FFF72AFFC020214616
:1011F000FFF726FF0134E4B2012CEED9AC0905F06B
:101200003F0040F040002146FFF71AFF46F0B800CB
:101210002146FFF715FF70BD390000203A0000207D
:1012200038B500250FE000202946FFF7CDFF002448
:1012300004E00020FFF748FF0134E4B214F0800F0F
:10124000F7D00135EDB2072DEDD938BD014608289C
:101250000FD810B50020C9B2FFF7B6FF002404E094
:101260000020FFF731FF0134E4B214F0800FF7D013
:1012700010BD704738B50A2804D10E4A13780133DF
:1012800013702020203845B200240BE005EB8503C5
:1012900062B2134408481844FFF786FFFFF714FFB3
:1012A0000134E4B263B2042BF0DD0020FFF70CFF41
:1012B00038BD00BF3A0000208842000810B504463F
:1012C00003E0013440B2FFF7D5FF207818B1024B9C
:1012D0001B78782BF5D910BD3900002010B584B0EB
:1012E000FFF764FFFFF79CFF00F0FCF900F0CCFF74
:1012F0000090264B186803A90522002300F0D6FDB4
:1013000000283DD000200146FFF75EFF2048FFF790
:10131000D5FF4B200021FFF757FF0398FFF7CEFFC3
:101320001C4B186802A90122002300F0BFFD48B140
:1013300000200121FFF748FF0120FFF787FF0298F7
:10134000FFF7BCFF144B186801A90122002300F02D
:10135000ADFD90B914E0A01CFFF778FFA11C0020A0
:10136000C9B2FFF731FF04EB4400C0EBC000019BA2
:101370001844FFF7A3FF013400E00024052CEADD48
:1013800068464FF4967101F073F8B2E7C847002041
:1013900068440008BC470020B447002030B585B041
:1013A00000F072FF0390282000F0CAFA029080201B
:1013B00000F0C6FA0190264C2046264902F00EFBAA
:1013C0002046254902F040FB234C029804F1090114
:1013D0000C2202F0CEFE637A73B91D4D28461D49DA
:1013E00002F0FCFA2846214602F02EFB029804F196
:1013F00009010C2202F0BDFE184B186800210A46B4
:101400000B4600F053FD18B11148134902F01CFBC4
:10141000019D04AC54F8080D00F06CF90146284613
:10142000802202F0A6FE0E4B1868214605220023FA
:1014300000F0AAFC0B4B186801A90522002300F05C
:10144000A3FC03A84FF4487101F012F8BCE700BFF9
:1014500040000020704400085C000020B8470020D5
:10146000BC470020B44700202DE9F04383B0FFF7CC
:101470009DFEFFF7D5FE00F007FF0190092000F068
:101480005FFA00903E4C019BA4FB0334A4093D4F3E
:1014900087FB0437BF133C4B83FB04232344DB123D
:1014A00005E03A4A82FB0312DB17C3EBA203092BC8
:1014B000F7DC374981FB04218911364880FB042081
:1014C0002044401105E0314A82FB0152C917C1EBAB
:1014D000A2010629F7DC05E02C4A82FB0052C01766
:1014E000C0EBA2000928F7DC2A4A84FB028904EB3E
:1014F00009056D11C5EB0515AD00651BA2F1223282
:1015000082FB0542EC17C4EBA20405E01F4E86FBEC
:101510000426E217C2EBA604062CF7DC09E01B4AFE
:1015200082FB0526EA17C2EBA60202EB82025200FA
:10153000AD1A092DF3DC3037009A17703033009A5A
:1015400053703A23009A93703031009AD17002A9F7
:1015500051F8086D30303071737104F13002B2719E
:1015600005F13003F371002333720B4A1068012236
:1015700000F00AFC01A8642100F07AFF82E700BFB6
:10158000D34D62106B298274C5B3A29167666666FB
:10159000B5814E1B89888888C847002000B583B074
:1015A000FFF704FEFFF73CFE00F06EFE0190104ACC
:1015B000104B1A6010484FF40071FEF76DFF28B110
:1015C0000D484FF48071FFF71DF80BE00A484FF407
:1015D0008071FEF7E7FF094B186800210A460B46A9
:1015E00000F0D2FB01A8642100F042FFE2E700BF57
:1015F000F844000820000020000C0140B8470020FB
:1016000080B584B000F092F903270097002401947C
:10161000029403942648274940F6B832234600F046
:101620008DFD0126009601940294039422482349DB
:101630004FF4FA72234600F081FD022300930194D7
:10164000029403941E481F49C822234600F076FDE9
:10165000042500950194029403941B481B49C82259
:10166000234600F06BFD304600F0FAFB184B186083
:10167000304621463A4600F067FB164B1860284674
:101680002946224600F060FB134B18602846294685
:10169000224600F059FB114B186028462946224685
:1016A00000F052FB0E4B186000F0C2FDFEE700BFD9
:1016B000DD120008184500089D13000820450008A9
:1016C0009D150008284500086914000838450008E1
:1016D000C4470020B8470020C8470020BC4700206E
:1016E000B447002008B50020014901F081FF08BD82
:1016F0007400002030B5ADF52B7D044601A8002113
:10170000802202F02EFD0023009321A82146012211
:1017100001F082FF249C7F2C00D97F2401AD21A8F9
:10172000294622466B4602F023F800232B5521A8B8
:1017300002F04AF928460DF52B7D30BD70B582B018
:101740004FF6FF73ADF8043003248DF806401025E2
:101750008DF80750224801A9FEF700FE4FF47D43A3
:10176000ADF804308DF806408DF807501D4E304618
:1017700001A9FEF7F3FD4FF40073ADF804308DF8C6
:10178000064048238DF80730304601A9FEF7E6FDF4
:101790003023ADF804308DF807508DF80640124D17
:1017A000284601A9FEF7DAFDE023ADF8043018233E
:1017B0008DF807308DF80640284601A9FEF7CEFDCA
:1017C0004FF48073ADF8043004238DF807308DF8A2
:1017D000064028460DEB0301FEF7C0FD02B070BDC8
:1017E00000100140000C01400008014008B54FF016
:1017F00000600021FEF764FD08BD00BF30B587B072
:101800000023ADF804304FF48272ADF80620ADF835
:1018100008300222ADF80A200124ADF80C404FF444
:101820000072ADF80E200822ADF81020ADF812308D
:101830000723ADF81430074D284601A9FFF7DEF85D
:1018400028462146FFF7D0F928462146FFF76CF9D4
:1018500007B030BD0030014038B505460C460428BD
:1018600006D010F1050F03D00D488D21FFF72AFA9D
:10187000B4F1807F12D224F07F44013C094B5C60BC
:101880000022094981F823209A60042D01D1072202
:1018900000E00322034B1A60002038BD012038BD50
:1018A0006C45000810E000E000ED00E008B5FEF730
:1018B00003FF4FF48030FEF71FFFFFF785F8012884
:1018C00031D11020FEF732FD0220FEF71BFD002073
:1018D000FEF7B8FF0020FEF7F9FF4FF48060FEF737
:1018E000D5FF4FF480304FF4E011FEF733FF0120B5
:1018F000FEF77CFF3920FFF72FF80028FAD00220EE
:10190000FEF784FFFEF796FF0828FBD10420064966
:10191000FFF7A2FF3C200121FEF7F8FF4FF48050B3
:101920000121FEF7F3FF08BD80FC0A0008B5FFF7B0
:10193000BDFFFFF703FFFFF759FFFFF75FFF08BD8C
:1019400038B5044610F0070F02D020F00704083421
:1019500000F092FC0E4B1B6823B90E4B23F00703DB
:101960000B4A13600C4B1B681C4444F2F732944240
:1019700007D8A34207D2064A15681D44064B1C60CF
:1019800002E0002500E0002500F00AFD284638BDF1
:10199000A8020020B4020020A4020020704700BF6B
:1019A00000F1080343604FF0FF328260C3600361BF
:1019B00000230360704700BF00230361704700BF2E
:1019C00043684B609A688A609A68516099600861C0
:1019D000036801330360704730B40D68B5F1FF3F11
:1019E00001D1026907E000F1080200E01A465368DD
:1019F0001C68AC42FAD953684B6099608A605160A8
:101A0000086103680133036030BC704703694268B2
:101A1000816891608268416851605A68824201D150
:101A200082685A60002202611868013818607047A5
:101A300006480068006880F3088862B661B6BFF3A4
:101A40004F8FBFF36F8F00DF00BF000008ED00E095
:101A50004FF0807340F8043C40F8081C034B40F8FA
:101A60000C3C40F8202C4038704700BFBD1A0008DD
:101A7000074B19680868B0E8F00F80F30988BFF3D6
:101A80006F8F4FF0000080F311884EF00D0E7047FD
:101A9000504700204FF08052034B1A60BFF34F8F26
:101AA000BFF36F8F704700BF04ED00E0EFF31180CC
:101AB0004FF0BF0181F311887047002008B5FFF790
:101AC000F5FFFEE708B5FFF7F1FF044A136801339D
:101AD0001360BFF34F8FBFF36F8F08BD240000204A
:101AE00080F31188704700BF08B5044A1368013BB2
:101AF000136013B90020FFF7F3FF08BD2400002096
:101B0000EFF30980BFF36F8F0D4B1A6820E9F00FD8
:101B100010602DE908404FF0BF0080F3118800F0FD
:101B20001DFD4FF0000080F31188BDE808401968E2
:101B30000868B0E8F00F80F30988BFF36F8F704733
:101B40005047002008B5FFF7B1FF00F0A3FB18B124
:101B50004FF08052024B1A600020FFF7C1FF08BD12
:101B600004ED00E0034A044B1A600722043B1A60AC
:101B7000704700BF3F19010014E000E008B5094BB1
:101B80001A6842F47F021A601A6842F07F421A60B3
:101B9000FFF7E8FF0022044B1A60FFF749FFFFF749
:101BA0008DFF00BF20ED00E02400002010B50446AA
:101BB000FFF788FFA26BE36B9A4201D1012400E09A
:101BC0000024FFF791FF204610BD00BF10B504466A
:101BD000FFF778FFA36B0BB9012400E00024FFF7A7
:101BE00083FF204610BD00BF38B504461546026C81
:101BF0003AB903685BBB406800F0E8FD002363600E
:101C00002CE06DB9806802F0A1FAA268236C13443D
:101C1000A360626893421CD32368A36000201DE088
:101C2000C06802F093FA236C5B42E2681A44E260F7
:101C300021688A4202D262681344E360022D0AD10D
:101C4000A36B53B1A36B013BA363002006E000200C
:101C500004E0002002E0002000E00020A36B01333C
:101C6000A36338BD026C72B110B5C3681344C3607E
:101C70004468A34201D30368C36003460846D96899
:101C800002F064FA10BD704710B50446FFF71AFF62
:101C90000BE0636A63B104F1240000F0C9FC08B1F1
:101CA00000F03AFDA36C013BA364A36C002BF0DCB5
:101CB0004FF0FF33A364FFF717FFFFF703FF0BE0BD
:101CC000236963B104F1100000F0B2FC08B100F028
:101CD00023FD636C013B6364636C002BF0DC4FF00D
:101CE000FF336364FFF700FF10BD00BF38B5044643
:101CF0000D46FFF7E7FE2168E26B236C03FB021041
:101D000060600020A063A160013A02FB0313E3605E
:101D10004FF0FF336364A36455B9236983B104F1C1
:101D2000100000F085FC01280AD1FFF7B3FE07E0A0
:101D300004F11000FFF734FE04F12400FFF730FE39
:101D4000FFF7D2FE012038BDF8B5064617460D460E
:101D500019B101FB00F0013000E000205430FFF722
:101D6000EFFD044668B10DB9206002E000F15403B4
:101D70000360E663256420460121FFF7B7FF84F87E
:101D800050702046F8BD00BFF0B585B004460F4640
:101D900001921E460025FFF795FEA26BE36B9A4267
:101DA00001D3022E16D1204639463246FFF71CFFDA
:101DB000636A43B104F1240000F03AFC012805D124
:101DC000FFF768FE02E008B1FFF764FEFFF78CFE44
:101DD000012042E0019B1BB9FFF786FE00203CE09A
:101DE0001DB902A800F060FC0125FFF77DFE00F0A0
:101DF00043FAFFF767FE636CB3F1FF3F01D10023A5
:101E00006364A36CB3F1FF3F01D10023A364FFF728
:101E10006BFE02A801A900F053FCC0B92046FFF7F1
:101E2000C5FE70B104F11000019900F0D3FB20460B
:101E3000FFF72AFF00F0B4FA0028ACD1FFF72AFE22
:101E4000A9E72046FFF720FF00F0AAFAA3E7204603
:101E5000FFF71AFF00F0A4FA002005B0F0BD00BFA4
:101E600070B506465420FFF76BFD0446D8B1002537
:101E7000456005608560C56085630123C3630564B3
:101E80004FF0FF334364836480F850601030FFF7F5
:101E900087FD04F12400FFF783FD204629462A46EA
:101EA0002B46FFF771FF204670BD00BFF0B585B02F
:101EB00004460F4601921E460025FFF703FEA36B62
:101EC00033B3E56820463946FFF7CCFE96B9A36BDD
:101ED000013BA363236813B900F0B8FC6060236979
:101EE00093B104F1100000F0A3FB01280CD1FFF71F
:101EF000D1FD09E0E560636A33B104F1240000F02C
:101F000097FB08B1FFF7C6FDFFF7EEFD01204BE0A0
:101F1000019B1BB9FFF7E8FD002045E01DB902A8B1
:101F200000F0C2FB0125FFF7DFFD00F0A5F9FFF788
:101F3000C9FD636CB3F1FF3F01D100236364A36C5F
:101F4000B3F1FF3F01D10023A364FFF7CDFD02A849
:101F500001A900F0B5FB08BB2046FFF737FEB8B17A
:101F6000236833B9FFF7AEFD606800F0DBFBFFF7D5
:101F7000BBFD04F12400019900F02CFB2046FFF783
:101F800083FE00F00DFA002897D1FFF783FD94E758
:101F90002046FFF779FE00F003FA8EE72046FFF7B0
:101FA00073FE00F0FDF9002005B0F0BD0A4B1B6880
:101FB0001B680BB9012300E0002323B14FF0FF326F
:101FC000064B1A607047044B1B68DB68DB685A6875
:101FD000024B1A60704700BFAC460020280000206A
:101FE00010B50446006BFFF7D9FC2046FFF7D6FC7E
:101FF00010BD00BF70B506460C4619B98000FFF74A
:102000009FFC044654B15C20FFF79AFC054608B1DA
:10201000046304E02046FFF7C1FC00E0002525B181
:10202000286BA521B20002F09CF8284670BD00BFC5
:1020300070B504461546002306E0C85CE21882F835
:102040003400CA5C12B101330F2BF6D9002384F897
:102050004330042D00D90425E562E5640026266599
:10206000201DFFF7A9FC04F11800FFF7A5FC24616F
:10207000C5F10505A5616462666584F8586070BDA8
:1020800038B5002407E004EB84039B000E48184495
:10209000FFF786FC0134042CF5D90C4D2846FFF7D8
:1020A0007FFC0B4C2046FFF77BFC0A48FFF778FCCF
:1020B0000948FFF775FC0948FFF772FC084B1D60E3
:1020C000084B1C6038BD00BFE44600207847002064
:1020D000CC46002054470020B84600208C47002002
:1020E000AC4600207047002010B504460E4B1B681C
:1020F00058600E4B1B68984207D20D4B18680A4B6C
:1021000019680431FFF768FC10BD0A4B1868064BCC
:1021100019680431FFF760FC074B1B689C4201D231
:10212000054B1C6010BD00BF504700206C470020CD
:1021300070470020AC460020280000202DE9F04721
:1021400082B081468A46164698460B9F10460C99E7
:10215000FFF750FF00284BD00446036B06F1804583
:10216000013D03EB850525F00705009651460A9AC7
:102170000D9BFFF75DFF284649464246FFF768FC86
:10218000206007B13C60FFF79DFC234A13680133D0
:102190001360224B1B683BB9204B1C601368012B5A
:1021A0000DD1FFF76DFF0AE01D4B1B683BB91B4BC0
:1021B0001B68DB6A0A9A934201D8184B1C60194AC3
:1021C0001368013313606364E36A012505FA03F0C1
:1021D00015490A6802430A6003EB83039B00134816
:1021E0001844211DFFF7ECFBFFF77EFC2C4601E0B5
:1021F0004FF0FF34012C0AD1094B1B683BB1074B50
:102200001B68DB6A0A9A934201D2FFF743FC20461F
:1022100002B0BDE8F08700BF4C47002050470020C7
:10222000B046002074470020A0470020E44600206C
:1022300000B585B0002300930193029303930A48ED
:102240000A497822FFF77AFF012809D1FFF72EFC0F
:102250000122074B1A600022064B1A60FFF78EFC22
:1022600005B05DF804FB00BF452500088C4500085B
:10227000B04600206C470020024A13680133136007
:10228000704700BF48470020014B1868704700BFE7
:102290006C470020F8B5374B1B68002B5CD1364BE0
:1022A0001A6801321A601F685FB9344A1168344BEA
:1022B000186810601960334A136801331360FFF720
:1022C00075FE314B1B689F4203D2002639E0012680
:1022D00000E00026294B1B681B680BB9012300E0B6
:1022E000002323B14FF0FF32274B1A6029E0234B24
:1022F0001B68DB68DC6863689F4202D2224A136075
:102300001FE0251D2846FFF781FBA36A1BB104F1DE
:102310001800FFF77BFBE06A012383401B490A6832
:1023200013430B6000EB80008000194B18442946D2
:10233000FFF746FBE26A174B1B68DB6A9A42C6D27C
:10234000C8E7144B1B68DB6A03EB83039B00104A4E
:10235000D358012B06D806E00F4A136801331360E7
:10236000002600E001260D4B1B6803B10126304614
:10237000F8BD00BF484700206C470020AC46002055
:10238000704700206847002028000020A047002058
:10239000E446002050470020E0460020A4470020EB
:1023A00038B5FFF78FFB2A4B1A68013A1A601B6891
:1023B000002B45D1274B1B6823BB002443E0264B51
:1023C000DB68DC6804F11800FFF720FB251D2846B8
:1023D000FFF71CFBE06A0123834020490A6813438E
:1023E0000B6000EB800080001D4B18442946FFF76E
:1023F000E7FAE26A1B4B1B68DB6A9A4202D30122AE
:10240000194B1A60144B1B68002BD8D1174B1B6853
:1024100053B90DE0FFF73EFF10B10122124B1A60D5
:10242000124A1368013B1360104B1B68002BF1D15B
:102430000D4B1B68012B05D1FFF72CFB012402E09B
:10244000002400E00024FFF74FFB204638BD00BF0A
:10245000484700204C47002054470020A047002058
:10246000E446002050470020A4470020E04600201A
:1024700038B505460C46FFF7FFFE1A4B1A682B6865
:102480001C449A4205D2A34209D9944209D8002398
:102490000CE0A34207D8944207D8002306E00023AB
:1024A00004E0012302E0012300E001232C6093B14A
:1024B0000D4B18680430FFF7A9FA48B90A4B1B689E
:1024C000DA6A0123934009490A6822EA03030B6090
:1024D0002046FFF709FEFFF763FF08B9FFF7DAFAB6
:1024E00038BD00BF6C47002050470020A0470020A7
:1024F00010B51BE0FFF7C0FE0F4B1C68FFF750FF45
:10250000A4B1FFF7DFFA0C4BDB68DC68201DFFF796
:102510007DFA0A4A1368013B1360094A1368013BBC
:102520001360FFF7E1FA2046FFF75AFD044B1B68E2
:10253000002BDFD110BD00BFB84600204C47002063
:10254000B446002008B5FFF7D3FF034B1B68012BEF
:10255000F9D9FFF79FFAF6E7E4460020184B1B680D
:102560001BB10122174B1A60704710B40022154BA3
:102570001A60154B1B68B3FA83F3DBB2C3F11F0378
:10258000124C9A00D118890021444868406848607C
:102590001A44920008322244904205D1416803EB6C
:1025A000830292002244516003EB83039B00074A9D
:1025B00013445B68DA68064B1A605DF8044B704799
:1025C00048470020A4470020A0470020E446002000
:1025D0005047002038B50D46114C21681831FFF7DF
:1025E000FBF920680430FFF711FA40B92368DA6A72
:1025F000012393400B490A6822EA03030B60B5F1FB
:10260000FF3F06D1064B196807480431FFF7D8F998
:1026100038BD064B18682844FFF766FD38BD00BF7B
:1026200050470020A04700208C4700206C47002026
:1026300038B5C368DC6804F118052846FFF7E6F9E9
:10264000134B1B689BB9251D2846FFF7DFF9E36A8A
:1026500001229A400F4801680A43026003EB83039A
:102660009B000D4818442946FFF7AAF903E00B48E0
:102670002946FFF7A5F9E26A094B1B68DB6A9A4213
:1026800003D90120074B186038BD002038BD00BFBA
:1026900048470020A0470020E4460020544700207F
:1026A00050470020A4470020034B1B680360034BE6
:1026B0001B684360704700BF684700206C470020DC
:1026C00038B504460D46FFF7FDF9114B1A682B6823
:1026D000B3F1FF3F13D020680E490968884202D049
:1026E000616891420DD96168501A83420BD98A1AE8
:1026F00013442B602046FFF7D7FF002404E000249A
:1027000002E0012400E00124FFF7EEF9204638BD85
:102710006C470020684700200122014B1A60704777
:10272000A4470020002849D038B50346C16A244A8E
:102730001268D26A914240D28269002A05DB204A9F
:102740001268D26AC2F1050282615969DA6A02EB43
:10275000820292001B480244914201D1012200E012
:10276000002232B31C461D1D2846FFF74FF968B9F9
:10277000E26A02EB82039B001249CB5833B9012372
:10278000934011490A6822EA03030B600C4B1B6853
:10279000D86AE062012383400B490A6813430B6047
:1027A00000EB80008000074B18442946FFF708F92A
:1027B00038BD034A1268D26ADA6238BD704700BF7A
:1027C00050470020E4460020A0470020002833D0D6
:1027D00038B50346026D013A0265C06AD96C884279
:1027E0002CD06ABB1C461D1D2846FFF70FF968B99F
:1027F000E26A02EB82039B001249CB5833B90123F2
:10280000934011490A6822EA03030B60E06CE0621E
:10281000C0F10503A361012404FA00F10A4A136818
:102820000B43136000EB80008000064B18442946E0
:10283000FFF7C6F8204638BD00207047002038BD9D
:10284000002038BDE4460020A0470020054B1B684F
:1028500023B1044B1A68136D01331365014B1868DB
:10286000704700BF5047002004E00A7802701A4603
:1028700001310130531E002AF7D1704702E0017088
:102880001A460130531E002AF9D1704770B4002354
:1028900001E029463046541E32B1461C03784D1CD7
:1028A000087822461B1AF4D0184670BC704700BF47
:1028B00000E00130037813B15AB28A42F9D158B21C
:1028C000704700BF2DE9F84F8B46D0F818A050464E
:1028D00020210B22FFF7D2FFDBF8008000252B46DA
:1028E00008262F4600E04B4603F1010918F8033093
:1028F000DCB2202C33D92F2C31D05C2C2FD02E2CB5
:1029000001D0B54208D3082E4FD12E2C50D1BF0094
:10291000FFB208250B26E6E713F0800F04D047F03E
:102920000307803C274B1C5D27482146FFF7C0FF6B
:10293000002840D1A4F14103DBB2192B02D847F0A3
:10294000020708E0A4F16103DBB2192B03D847F0BA
:102950000107203CE4B20AF805400135C3E708EB63
:102960000903CBF80030202C01D8042300E0002319
:1029700025B39AF80020E52A02D105228AF8002022
:10298000082E01D1BF00FFB207F00302012A01D1D6
:1029900043F0100307F00C07042F01D143F00803A4
:1029A0008AF80B300020BDE8F88F0620BDE8F88FCC
:1029B0000620BDE8F88F0620BDE8F88F0620BDE8A8
:1029C000F88F00BF944500081446000801F1090380
:1029D0000269002A3BD030B44469002209E0A05CBF
:1029E00045B2202D07D0052D00D1E5201870013209
:1029F0000133072AF3D9227A202A0DD02E221A7009
:102A00000133082206E0A05C45B2202D04D01870E6
:102A1000013201330A2AF6D9E27A0A72E07FA27FF4
:102A2000120442EA0062607F42EA0022207F0243F1
:102A30000A60607E227E42EA00228A80E07DA27DDA
:102A400042EA0022CA8000221A7030BC704700227D
:102A50001A7070472DE9F041C76A8F422DD00E469B
:102A600004460379EBB100F13008407841463A461C
:102A7000012301F037FA18BB00232371226AE369AE
:102A80001344BB420DD9E57809E0E3691F4460783F
:102A900041463A46012301F025FA013DEDB2012DF0
:102AA000F3D886B1607804F130013246012301F099
:102AB000CDF958B9E662BDE8F0810020BDE8F081AB
:102AC0000120BDE8F0810020BDE8F0810120BDE8D3
:102AD000F08100BF10B504460A46407804F1300189
:102AE000012301F0B3F980BB94F82F2294F82E3221
:102AF00043EA02231BB2194A934228D194F8692071
:102B000094F868301B0443EA026394F8672043EAB0
:102B1000022394F86620134323F07F43104A934224
:102B200017D094F8852094F884301B0443EA02639C
:102B300094F8832043EA022394F88220134323F07D
:102B40007F43074A934206D110BD032010BD0220E7
:102B500010BD002010BD012010BD00BF55AAFFFF11
:102B60004641540068B108B5027862B1C2888A4211
:102B70000BD1407801F060F910F0010F07D003206D
:102B800008BD09207047092008BD092008BD0020A4
:102B900008BD00BFF8B5036893F90040303C092C2C
:102BA00006D893F901503A2D04D10233036002E0B4
:102BB000002400E00024002C40F06381C44B53F853
:102BC00024500D60002D00F05E8116462B7873B105
:102BD000687801F031F910F0010F08D1002E00F0F3
:102BE000548110F0040F40F052810020F8BD002302
:102BF0002B70E0B2687001F057F810F0010F40F050
:102C000048811EB110F0040F40F045812846002194
:102C1000FFF760FF012815D195F8F231A3B195F8BF
:102C2000F92195F8F8311B0443EA026395F8F7415E
:102C300043EA042395F8F6411C4328462146FFF752
:102C400049FF02E0002400E00024032800F0258171
:102C5000002840F0248195F83C2095F83B3043EA69
:102C600002231BB2B3F5007F40F01B8195F847109B
:102C700095F8463053EA01210DD195F8572095F883
:102C800056301B0443EA026395F8551043EA0123CA
:102C900095F854101943E96195F84020EA70531EE5
:102CA000DBB2012B00F2FF8001FB02FE95F83D3004
:102CB000AB70002B00F0F9805A1E134240F0F780F1
:102CC00095F8427095F8412042EA07272F8117F0C6
:102CD0000F0F40F0EE8095F8440095F8432052EA3B
:102CE00000220DD195F8530095F85220120442EAC3
:102CF000006295F8510042EA002095F85020024306
:102D000095F83F6095F83E0050EA062000F0D38029
:102D100000EB0E0C0CEB171C6245C0F0CE80CCEB28
:102D20000202B2FBF3F3002B00F0C98040F6F5720B
:102D3000934201D8012600E002264FF6F572934235
:102D400000D903260233AB6104EB0C02AA622218FD
:102D50002A62032E13D1002F40F0B38095F85F0054
:102D600095F85E20120442EA006295F85D0042EA9E
:102D7000002295F85C0002436A629B000EE0002F7F
:102D800000F0A18072446A62022E01D15B0005E06E
:102D900003EB430203F0010303EB520303F2FF13BF
:102DA000B1EB532FC0F091804FF0FF332B61002324
:102DB000EB60032E5AD16B7195F8612095F8603065
:102DC00043EA022222446A61687805F13001012356
:102DD00001F03CF8002849D195F82F2295F82E32C1
:102DE00043EA02231BB23B4A93423FD195F833207A
:102DF00095F832301B0443EA026395F8312043EA28
:102E0000022395F830201343334A93422ED195F88C
:102E1000172295F816321B0443EA026395F815222F
:102E200043EA022395F8142213432C4A93421DD1FE
:102E300095F81F2295F81E321B0443EA026395F8A9
:102E40001D2243EA022395F81C221343EB6095F8F8
:102E50001B2295F81A321B0443EA026395F81922E3
:102E600043EA022395F8182213432B612E701C4A63
:102E7000138801339BB21380EB800020E862287135
:102E8000F8BD0B20F8BD0C20F8BD0020F8BD0A20CD
:102E9000F8BD0320F8BD0A20F8BD0120F8BD0D20C3
:102EA000F8BD0D20F8BD0D20F8BD0D20F8BD0D209A
:102EB000F8BD0D20F8BD0D20F8BD0D20F8BD0D208A
:102EC000F8BD0D20F8BD0D20F8BD0D20F8BD00BFE8
:102ED000AC47002055AAFFFF525261417272416116
:102EE000A8470020F8B504460021FFF7B3FD0546CA
:102EF000002853D12378032B49D16379002B46D086
:102F00000026E66204F13007384631464FF400727D
:102F1000FFF7B4FC552384F82E32AA2384F82F320D
:102F2000522384F8303084F83130612384F8323011
:102F3000412284F83320722184F8141284F8151287
:102F400084F8162284F81732236984F81832C3F300
:102F5000072284F81922C3F3074284F81A221B0EB1
:102F600084F81B32E36884F81C32C3F3072284F828
:102F70001D22C3F3074284F81E221B0E84F81F3261
:102F8000607839466269012300F0ACFF66716078B1
:102F900000210A4601F008F800B101252846F8BDD5
:102FA00002398369023B8B4204D98378806A01FB32
:102FB000030070470020704701295ED9F8B5836986
:102FC0008B425CD90C4605460378022B29D0032B93
:102FD00038D0012B55D101EB5107016A01EB572184
:102FE000FFF738FD00284FD1C7F308032B4493F8AF
:102FF00030600137296A284601EB5721FFF72AFD87
:10300000002844D1C7F30807E81990F8300046EAD1
:10301000002014F0010F01D00009F8BDC0F30B002F
:10302000F8BD016A01EB1421FFF714FD90BB6100AC
:1030300001F4FF716B1893F8310093F8303043EAD4
:103040000020F8BD016A01EBD411FFF703FD20BB9E
:10305000A10001F4FE7101F130022A44D078937886
:103060001B0443EA0063507843EA00200D4495F8BE
:103070003030184320F07040F8BD01207047012027
:10308000F8BD4FF0FF30F8BD4FF0FF30F8BD4FF006
:10309000FF30F8BD4FF0FF30F8BD4FF0FF30F8BD06
:1030A00070B505460C46E9808168012936D0036871
:1030B0009A698A4234D919B91A78032A00D1596A0F
:1030C00041B9E9601A89A2422CD95B6A03EB141357
:1030D0002B611AE09E7836010EE02868FFF76CFF3E
:1030E0000146B0F1FF3F1FD001281FD92B689B6913
:1030F00083421DD9A41BA4B2B442EED2E960286871
:10310000FFF74EFF00EB141028612B6804F00F044A
:1031100003EB441430346C61002070BD022070BD9C
:10312000022070BD022070BD012070BD022070BD64
:10313000022070BDF8B50C4601297AD9054616461D
:1031400083698B4277D90378022B3ED0032B4ED074
:10315000012B6AD101EB5107016A01EB5721FFF7FF
:1031600079FC0346002861D1C7F3080114F001047B
:1031700009D06B1893F83020F3B202F00F0242EA44
:103180000313DBB200E0F3B2294481F83030013799
:1031900001232B71296A284601EB5721FFF75AFCBE
:1031A0000346002842D1C7F3080714B1C6F3071637
:1031B00007E0EA1992F8302022F00F02C6F3032646
:1031C00016432F4487F8306030E0016A01EB142188
:1031D000FFF740FC034648BB640004F4FF742A195F
:1031E00082F83060C6F3072682F831601EE0016A7B
:1031F00001EBD411FFF72EFC0346B8B9A40004F488
:10320000FE7404F130022A44D17809062C4401F0FE
:1032100070410E4384F83060C6F307215170C6F345
:1032200007419170360ED67000E0022301222A7108
:1032300002E0022300E002231846F8BDF8B5054677
:103240000F4629B9C66866B18369B3420BD90BE052
:10325000FFF7B2FE012841D9AB69834243D83E460D
:1032600002E0012600E0012634460134AB69A342A6
:1032700002D8012E34D9022428462146FFF79CFEAD
:10328000034648B1B0F1FF3F01D0012801D11846F3
:10329000F8BDB442E9D125E0284621466FF07042DE
:1032A000FFF748FF034630B92FB12846394622467A
:1032B000FFF740FF03464BB9EC602B69B3F1FF3FCA
:1032C0000AD0013B2B6101236B7105E0012B02D178
:1032D0004FF0FF3400E001242046F8BD0120F8BD86
:1032E0000020F8BD0020F8BD2DE9F041C48801346C
:1032F000A4B2002C69D00369002B69D00E460546A4
:1033000014F00F0758D101330361C16821B9036874
:103310001B89A3425FD94FE000688378013B13EA21
:10332000141349D1FFF748FE8046012856D9B0F161
:10333000FF3F56D028688369434536D8002E53D0C6
:10334000E968FFF77BFF8046002850D0012851D064
:10335000B0F1FF3F51D028680021FFF77BFB002828
:103360004ED12868303000214FF40072FFF786FA02
:103370002E6830464146FFF713FEF06200260DE04E
:1033800001221A7128680021FFF764FB00283AD156
:103390002A68D36A0133D3620136F6B22B689A7871
:1033A000B242EDD8DA6A921BDA62C5F80C8028685E
:1033B0004146FFF7F5FD2861EC802B6803EB4713CE
:1033C00030336B610020BDE8F0810420BDE8F0815E
:1033D0000420BDE8F0810420BDE8F0810220BDE8B2
:1033E000F0810120BDE8F0810420BDE8F0810720D4
:1033F000BDE8F0810220BDE8F0810120BDE8F08148
:103400000120BDE8F0810120BDE8F08138B5044617
:103410000021FFF745FEE0B920682169FFF71AFB9C
:103420000546A0B96069037883B1C37A13F0080F29
:1034300004D1A1690B22FFF729FA40B120460021EF
:10344000FFF752FF05460028E6D000E00425284695
:1034500038BD38BD10B582B0044601910B785AB220
:103460002F2A01D05C2A01D1013101910023A360F0
:10347000019B1B781F2B07D820460021FFF710FE69
:1034800003460022626129E0204601A9FFF71AFAEB
:10349000034618BB2046FFF7B9FFA369DA7A034653
:1034A00028B104281AD112F0040F14D016E012F03B
:1034B000040F13D16369DA7A12F0100F0DD0597D21
:1034C0001A7D42EA0121D87E9A7E42EA002343EA2D
:1034D0000143A360D8E7052300E00523184602B0A6
:1034E00010BD00BF70B504460021FFF7D9FD0546A9
:1034F00088B920682169FFF7ADFA054658B96369B4
:103500001B78E52B07D033B120460121FFF7ECFEF5
:1035100005460028EDD09DB920682169FFF79AFA89
:10352000054668B96669304600212022FFF7A6F9F2
:103530003046A1690B22FFF797F9236801221A711F
:10354000284670BD38B50446042515E02068FFF70D
:1035500081FA0546A8B9626913788BB1E52B05D0CD
:103560002E2B03D0D37A13F0080F0AD02046002167
:10357000FFF7BAFE054620B921690029E6D100E02F
:1035800004250DB100232361284638BDF8B50D464A
:10359000012924D9044683698B4222D900271AE0E5
:1035A00020462946FFF708FD0646F8B101281AD043
:1035B000B0F1FF3F19D0204629460022FFF7BAFD9F
:1035C000074698B92369B3F1FF3F03D00133236164
:1035D000012363713546A369AB42E1D806E00227B7
:1035E00004E0022702E0022700E001273846F8BD88
:1035F000034660B9074A52F8202002B1107009B1A1
:1036000000220A70034A42F82310002070470B2062
:10361000704700BFAC4700202DE9F0438DB006464F
:103620000CA840F82C1D17460023336002F01F0839
:1036300005A902F01E02FFF7ADFA02AB0B93054697
:1036400020B905A80199FFF705FF05460A9C0DB9A9
:1036500004B9062517F01C0F4CD04DB1042D03D131
:1036600005A8FFF73FFF054648F008080A9C0AE056
:1036700017F0040F04D1E37A13F0110F02D102E026
:10368000082500E00725002D43D118F0080F40D091
:1036900000F058FDA073C0F30723E373C0F30743A2
:1036A0002374000E60740023E37223776377A3779B
:1036B000E377677D227D42EA0727E27EA17E41EA29
:1036C0000222A376E37623756375059801230371BF
:1036D00052EA07471DD0D0F82C903946FFF756FF25
:1036E0000546B0B905987A1EC2604946FFF7B2F99F
:1036F00005460EE06DB9E37A13F0100F06D117F00E
:10370000020F06D013F0010F02D102E0042500E001
:10371000072545B918F0080F01D048F02008059B8F
:10372000DB6AF3613462F5B986F80680617D237D3A
:1037300043EA0121E37EA27E42EA032343EA0143F6
:103740003361E27FA37F1B0443EA0263627F43EAA3
:103750000223227F1343F3600023B360B361059B10
:103760003360DB88B38028460DB0BDE8F08300BF2E
:103770002DE9F84F0446884615461F4600233B6056
:103780000068A188FFF7EEF9002840F0BE80A37919
:1037900013F0800F40F0BB8013F0010F00F0BA80EF
:1037A000E668A368F61AB54200F2A9802E46A6E0A4
:1037B000A268C2F30803002B40F08B802068837856
:1037C000013BDBB213EA522919D10AB9206902E0A0
:1037D0006169FFF7F1FB012806D8A37963F07F0345
:1037E000A3710220BDE8F88FB0F1FF3F06D1A379A5
:1037F00063F07F03A3710120BDE8F88F6061D4F806
:1038000000A050466169FFF7CBFB054630B9A379AC
:1038100063F07F03A3710220BDE8F88F4D445FEA97
:10382000562B2AD009EB0B039AF80220934201D9B8
:10383000C9EB020B9AF8010041462A465FFA8BF366
:1038400000F004FB30B1A37963F07F03A371012082
:10385000BDE8F88FA37913F0400F0BD0A069401B8F
:10386000584507D208EB402004F124014FF40072C0
:10387000FEF7FAFF4FEA4B2539E0A37913F0400F2A
:1038800013D09AF8010004F12401A269012300F089
:1038900029FB30B1A37963F07F03A3710120BDE858
:1038A000F88FA37923F04003A371A369AB420FD033
:1038B000214651F8243B58782A46012300F0C6FAE5
:1038C00030B1A37963F07F03A3710120BDE8F88FC5
:1038D000A561A168C1F30801C1F50075B54200D921
:1038E00035462144404624312A46FEF7BDFFA84410
:1038F000A3682B44A3603B682B443B60761B002EDF
:103900007FF456AF0020BDE8F88FBDE8F88F0220A5
:10391000BDE8F88F0720BDE8F88F00BF38B5044632
:103920000068A188FFF71EF90346002848D1A27954
:1039300012F0200F44D012F0400F0DD0214651F864
:10394000243B5878A269012300F0CCFA002839D131
:10395000A37923F04003A3712068E169FFF77AF8A7
:10396000034668BB256AEB7A43F02003EB72237BA6
:103970002B77A3891B0A6B77A37BAB77E37BEB7772
:10398000237CAB76238A1B0AEB76A37C2B75638A98
:103990001B0A6B7500F0D6FBA875C0F30723EB7507
:1039A000C0F307432B76000E6876A37923F020033B
:1039B000A371236801221A712068FFF793FA034666
:1039C000184638BD012038BD10B50446FFF7A6FFE4
:1039D000034608B900222260184610BD30B587B0F2
:1039E000044606A840F8141D21460022FFF7D2F82D
:1039F000034630BB03ABA36120460199FFF72AFDC4
:103A00000346D8B9626982B1D17A11F0100F0BD098
:103A1000507D117D41EA0020D57E917E41EA05224C
:103A200042EA0042A26000E005233BB92368DB883C
:103A3000A38020460021FFF733FB0346042B00D16F
:103A40000523184607B030BDF0B585B004460F46D3
:103A50000068A188FFF786F8054610BB2FB92046FD
:103A60000021FFF71DFB05461BE001ABA3612046CB
:103A7000FFF768FD0646042802D1002323612E4685
:103A800076B920463946FEF7A1FF20460021FFF710
:103A90002BFC0546042804D100232361354600E0B1
:103AA0003546284605B0F0BD0022014B1A7070471C
:103AB000B3470020014B1878704700BFB347002080
:103AC00010B5044605480221FDF7BAF80028F9D0E0
:103AD00002482146FDF754F810BD00BF00300140F8
:103AE00008B502481021FCF78DFD08BD0008014013
:103AF00008B502481021FCF755FD08BD000801403B
:103B000010B5FFF7F5FF002404E0FF20FFF7D8FF12
:103B10000134E4B2092CF8D90122014B1A7010BD0E
:103B2000B347002008B50A480221FDF789F80028AC
:103B3000F9D00748FF21FDF723F805480121FDF7DB
:103B40007FF80028F9D00248FDF734F8C0B208BD6C
:103B50000030014008B53222064B1A70FFF7E2FF31
:103B6000FFF7E0FFFF2804D0024B1B7813F0FF0F94
:103B7000F6D108BDB147002038B504460D46FFF721
:103B8000E9FFFF2829D12046FFF79AFF280EFFF70B
:103B900097FFC5F30740FFF793FFC5F30720FFF733
:103BA0008FFFE8B2FFF78CFF402C01D0002000E02F
:103BB0009520482C00D18720FFF782FF4C2C01D1A3
:103BC000FFF7B0FF0A24FFF7ADFF10F0800F05D01C
:103BD000631E13F0FF04F6D138BDFF2038BD00BFCF
:103BE00010B50446FFF79EFF207010BD70B5044667
:103BF0000E460A220F4B1A70FFF794FFFF2804D1DC
:103C00000C4B1B7813F0FF0FF6D1FE280FD1651C6B
:103C10002046FFF7E5FF28460234FFF7E1FF023EAA
:103C2000F5D1FFF77FFFFFF77DFF012070BD00207A
:103C300070BD00BFB0470020F8B506460C46FFF740
:103C400089FFFF282CD12046FFF73AFFFD2C21D019
:103C50000024354615F8020BFFF732FF7078FFF7A6
:103C60002FFF631E2E4613F0FF04F2D1FFF75AFF19
:103C7000FFF758FF002407E0FFF754FF074600F066
:103C80001F03052B02D00134402CF5D9FFF74AFF62
:103C90000028FBD007F01F07052F03D10120F8BD36
:103CA0000020F8BD0020F8BD002840F0BA805F4B2E
:103CB0001B7813F0020F03D05C4B1878C0B270472A
:103CC00010B582B0FFF71CFFFFF70AFF402000216C
:103CD000FFF752FF012840F086806422544B1A708F
:103CE00048204FF4D571FFF747FF012846D108E07F
:103CF000FFF718FF02AB234403F8040C0134E4B2CD
:103D000000E00024032CF3D99DF80630012B6CD180
:103D10009DF80730AA2B6AD177200021FFF72CFFEE
:103D2000012805D869204FF08041FFF725FF20B119
:103D30003F4B1B7813F0FF0FEED13D4B1B7813F078
:103D4000FF0F56D07A200021FFF716FF50B1002454
:103D500054E0FFF7E7FE02AB234403F8040C013400
:103D6000E4B200E00024032CF3D99DF8043013F0F2
:103D7000400F01D0062441E002243FE077200021DB
:103D8000FFF7FAFE012807D869200021FFF7F4FEAB
:103D9000012803D8022402E0012400E00124022CBF
:103DA0000BD177200021FFF7E7FE01280AD8692010
:103DB0000021FFF7E1FE28B909E041200021FFF7CB
:103DC000DBFE20B11A4B1B7813F0FF0FE7D1184B25
:103DD0001B7813F0FF0F0ED050204FF40071FFF747
:103DE000CBFE50B90AE0002408E0002406E00024DD
:103DF00004E0002402E0002400E000240D4B1C70CD
:103E0000FFF776FEFFF78EFE2CB1084A137803F019
:103E1000FE03137001E0FFF747FE044B1878C0B2B1
:103E200001E00120704702B010BD00BF2C0000204F
:103E3000B0470020B247002018B9034B1878C0B231
:103E400070470120704700BF2C00002000283FD1A0
:103E500070B50D4616461C46002B3BD01F4B1B78F9
:103E600013F0010F38D11E4B1B7813F0040F00D153
:103E70005602FFF735FE012C0BD151203146FFF7DA
:103E80007BFEE8B928464FF40071FFF7AFFEB0B9EA
:103E900016E052203146FFF76FFE88B928464FF4EE
:103EA0000071FFF7A3FE28B105F50075601E10F044
:103EB000FF04F3D14C200021FFF75EFE00E0002458
:103EC000FFF716FEFFF72EFE201C18BF012070BD65
:103ED00004207047042070BD032070BD2C0000201A
:103EE000B2470020002852D170B50D4616461C4638
:103EF000002B4ED02A4B1B7813F0010F4BD1284BCF
:103F00001B7813F0040F48D1264B1B7813F0040FD5
:103F100000D15602FFF7E4FD012C0AD158203146AA
:103F2000FFF72AFE58BB2846FE21FFF785FE18BB87
:103F300025E01C4B1B7813F0020F07D077200021DF
:103F4000FFF71AFE57202146FFF716FE592031468B
:103F5000FFF712FE98B92846FC21FFF76DFE28B145
:103F600005F50075601E10F0FF04F4D10020FD215E
:103F7000FFF762FE10B102E0002400E00124FFF729
:103F8000B7FDFFF7CFFD201C18BF012070BD042036
:103F90007047042070BD032070BD022070BD00BFBB
:103FA0002C000020B2470020002840F0C48070B5EB
:103FB00084B00C461546052918D11378012B0CD076
:103FC00013B1022B0DD0B1E0FFF774FD002800F013
:103FD000AF80FFF769FD0024ABE0FFF791FD0024FF
:103FE000A7E0FFF767FD68700024A2E0544B1B7840
:103FF00013F0010F40F0A180FFF772FD0D2C00F2CD
:104000008180DFE804F04D07487F7F7F7F7F7F7FDF
:104010007F535F6B49200021FFF7AEFD002873D16D
:1040200068461021FFF7E2FD00286FD09DF80030B0
:104030009B09012B0BD19DF809309DF8082003EB5B
:10404000022301339BB29B022B60002469E09DF8A0
:1040500005309DF80A109DF8092003F00F0303EBCB
:10406000D11302F0030203EB42020232D2B29DF8F6
:1040700008009DF807309DF806109B0003EB901395
:1040800001F0030103EB812301339BB2093A934012
:104090002B60002445E04FF400732B80002440E0A7
:1040A000FFF758FDFF2833D001243AE049200021D2
:1040B000FFF762FD70BB28461021FFF797FD58BB44
:1040C00001242EE04A200021FFF756FD30BB284690
:1040D0001021FFF78BFD18BB012422E07A2000217C
:1040E000FFF74AFD48B104241BE06E1CFFF71AFDE0
:1040F00028700134E4B2354600E00024032CF4D9E2
:1041000004240EE004240CE001240AE0012408E069
:10411000002406E0012404E0002402E0012400E081
:104120000024FFF7E5FCFFF7FDFC02E0042400E0BB
:104130000024204602E004207047032004B070BD34
:104140002C000020004870470060213E10B5431E3F
:104150000A44914204D011F8014B03F8014FF8E7EB
:1041600010BD03460244934202D003F8011BFAE754
:104170007047034610B532B111F8014B013A03F80C
:10418000014B002CF7D11A44934203D0002103F8CD
:10419000011BF9E710BD00002E2E2F737973746593
:1041A0006D2F7372632F73746D333266312D737498
:1041B000647065726970682F6D6973632E630000A7
:1041C0002E2E2F73797374656D2F7372632F737432
:1041D0006D333266312D7374647065726970682F47
:1041E00073746D3332663130785F666C6173682E3C
:1041F000630000002E2E2F73797374656D2F737218
:10420000632F73746D333266312D7374647065720D
:104210006970682F73746D3332663130785F677000
:10422000696F2E63000000002E2E2F737973746562
:104230006D2F7372632F73746D333266312D737407
:10424000647065726970682F73746D3332663130D3
:10425000785F7263632E63002E2E2F7379737465FB
:104260006D2F7372632F73746D333266312D7374D7
:10427000647065726970682F73746D3332663130A3
:10428000785F7370692E6300000000000000005F1B
:1042900000000007000700147F147F14242A7F2ADF
:1042A00012231308646236495522500005030000AA
:1042B000001C2241000041221C00082A1C2A080878
:1042C000083E0808005030000008080808080030C0
:1042D00030000020100804023E5149453E00427F54
:1042E000400042615149462141454B311814127F2B
:1042F0001027454545393C4A4949300171090503B4
:104300003649494936064949291E0036360000001B
:1043100056360000000814224114141414144122CB
:104320001408000201510906324979413E7E1111FB
:10433000117E7F494949363E414141227F41412218
:104340001C7F494949417F090901013E41415132E0
:104350007F0808087F00417F41002040413F017FE6
:10436000081422417F404040407F0204027F7F04C6
:1043700008107F3E4141413E7F090909063E4151F7
:10438000215E7F09192946464949493101017F01CA
:10439000013F4040403F1F2040201F7F2018207FCA
:1043A000631408146303047804036151494543000E
:1043B000007F4141020408102041417F00000402B7
:1043C00001020440404040400001020400205454D7
:1043D00054787F484444383844444420384444485E
:1043E0007F3854545418087E090102081454543C70
:1043F0007F0804047800447D40002040443D0000D4
:104400007F10284400417F40007C041804787C0819
:1044100004047838444444387C14141408081414F0
:10442000187C7C080404084854545420043F444039
:10443000203C4040207C1C2040201C3C4030403C24
:1044400044281028440C5050503C4464544C4400C0
:104450000836410000007F000000413608000808CF
:104460002A1C08081C2A0808555054494D453A2072
:10447000000000003132333435363738396131329B
:1044800033343536373839623132333435363738AC
:104490003963313233343536373839643132333475
:1044A0003536373839653132333435363738396651
:1044B0003132333435363738396731323334353683
:1044C0003738396831323334353637383969313233
:1044D000333435363738396A313233343536373854
:1044E000396731323334353637383968313233341D
:1044F00035363738396900007461736B323A206B96
:104500006579735F68616E646C696E672020202036
:1045100020202020200000005461736B3100000037
:104520005461736B32000000765461736B436865AD
:10453000636B4B65790000007653797374656D5534
:104540007054696D650000007461736B206B657950
:10455000000000007461736B2073640035363738D7
:104560003900000030313233340000002E2E2F6D20
:10457000795F696E697469616C697A652F696E69C2
:104580007469616C697A652E6300000049444C458A
:1045900000000000808182838485868788898A8BD9
:1045A0008C8D8E8F909192939495969798998A9BE3
:1045B0008C8D8E8FA0A1A2A3A4A5A6A7A8A9AAAB03
:1045C000ACADAEAFB0B1B2A3B4B5B6B7B8A5AABBE7
:1045D000BCBDBCAFC0C1C2C3C4C5C6C7C8C9CACBB5
:1045E000CCCDCECFD0D1D2D3D4D5D6D7D8D9DADB93
:1045F000DCDDDEDFC0C1C2C3C4C5C6C7C8C9CACB03
:10460000CCCDCECFD0D1D2D3D4D5D6F7D8D9DADB52
:10461000DCDDDEFF222A2B2C3A3B3C3D3E3F5B5D3E
:044620007C7F00009B
:10462400785634123800002000000000000000001A
:1046340000000000010203040607080900A24A045E
:1046440048450008AAAAAAAAFFFFFFFF010000002C
:0446540032547698CE
:040000050800010DE1
:00000001FF
