:020000040800F2
:1000000000500020850200088D02000895020008BB
:10001000B9020008C1020008E50200080000000063
:10002000000000000000000000000000DD1E0008CD
:100030001103000800000000DD1F00082120000857
:1000400039030008390300083903000839030008A0
:100050003903000839030008390300083903000890
:100060003903000839030008390300083903000880
:100070003903000839030008390300083903000870
:100080003903000839030008390300083903000860
:100090003903000839030008390300083903000850
:1000A0003903000839030008390300083903000840
:1000B0003903000839030008390300083903000830
:1000C0003903000839030008390300083903000820
:1000D0003903000839030008390300083903000810
:1000E0003903000839030008390300080000000044
:1000F0000000000000000000000000000000000000
:1001000000000000000000005FF808F180B58EB02C
:1001100000AF01F047F8494B494A1A60494B484A39
:100120001A60494B3B63494BFB62494BBB62FB6A1C
:100130007B6207E07B6A1A1D7A623A6B111D396394
:1001400012681A60BA6A7B6A9A42F3D83B4B1B6802
:10015000404A934204D13B4B1B683F4A934200D034
:10016000FEE73E4B364A1A603D4B354A1A603D4B1E
:100170003B623D4BFB613B6ABB6104E0BB691A1DFE
:10018000BA6100221A60FA69BB699A42F6D8334B09
:100190001B68002B03D1324B1B68002B00D0FEE7FD
:1001A00001F00CF83A1D3B461046194600F0DAFF04
:1001B0002E4A2F4BD31A9B107B6100233B6107E033
:1001C0002B4A3B6952F8233098473B6901333B6126
:1001D0007A693B699A42F3DC264A274BD31A9B1073
:1001E0007B6100233B6107E0234A3B6952F82330DF
:1001F00098473B6901333B617A693B699A42F3DC7A
:100200007A683B681046194601F0F8FB78631B4A90
:100210001B4BD31A9B10FB60FB68BB6008E0BB68FC
:10022000013B174A52F823309847BB68013BBB603B
:10023000BB68002BF3DC786B00F050FF000000205F
:10024000BABADECA8C000020503700080000002037
:100250009000002078563412325476989000002096
:10026000B001002090000020B401002068030008C5
:1002700068030008680300086803000868030008B2
:100280006803000880B500AFFFF740FF80B400AFFF
:1002900000BEFEE71EF0040F0CBFEFF30880EFF383
:1002A00009807146214A104780B483B000AF78605E
:1002B000396000BEFEE700BF80B400AF00BEFEE7BD
:1002C0001EF0040F0CBFEFF30880EFF309807146B6
:1002D000174A104780B483B000AF7860396000BE21
:1002E000FEE700BF1EF0040F0CBFEFF30880EFF332
:1002F000098071460F4A104780B483B000AF786020
:10030000396000BEFEE700BF80B400AF00BEFEE76C
:1003100080B400AF00BEFEE780B400AF00BEFEE7D1
:1003200080B400AFBD465DF8047B7047A9020008A9
:10033000D5020008F902000880B400AF00BEFEE755
:1003400050370008000000209000002050370008BF
:10035000000000000000000090000020B401002018
:08036000000000000000000095
:1003680080B582B000AF786039607B68B3F1005F18
:1003780007D07B68B3F1006F03D00C48AA2100F0C6
:1003880001FF3B680A4A934203D90848AB2100F0B1
:10039800F9FE08493B6823F0604323F07F037A683D
:1003A80013438B600837BD4680BD00BF90330008FB
:1003B800FEFF0F0000ED00E080B584B000AF78606C
:1003C8000023FB607B68002B0AD07B68012B07D0D9
:1003D8007B68022B04D00B4840F2031100F0D2FED8
:1003E800094B1B68FB60FB6803F03803FB60FA6885
:1003F8007B681343FB60044AFB6813601037BD46F3
:1004080080BD00BFB83300080020024080B582B02C
:1004180000AF78607B68102B07D07B68002B04D076
:10042800094840F22F1100F0ADFE084A074B1B683F
:1004380023F0100313600549044B1A687B681343C3
:100448000B600837BD4680BDB83300080020024065
:1004580080B588B000AF786039600023FB61002365
:100468003B610023BB610023FB6000237B61002309
:10047800BB607B68834A93421BD07B68824A934265
:1004880017D07B68814A934213D07B68804A934295
:100498000FD07B687F4A93420BD07B687E4A934299
:1004A80007D07B687D4A934203D07D48B22100F093
:1004B80069FE3B68DB78002B1FD03B68DB78042B98
:1004C8001BD03B68DB78282B17D03B68DB78482BA0
:1004D80013D03B68DB78142B0FD03B68DB78102BEC
:1004E8000BD03B68DB781C2B07D03B68DB78182BDC
:1004F80003D06B48B32100F045FE3B681B88002BF6
:1005080003D16748B42100F03DFE3B68DB7803F077
:100518000F03FB613B68DB7803F01003002B15D059
:100528003B689B78012B0BD03B689B78022B07D04C
:100538003B689B78032B03D05948BB2100F022FE6F
:100548003B689B781A46FB691343FB613B681B8831
:10055800DBB2002B44D07B681B687B610023BB6146
:1005680038E0BB69012202FA03F3FB603B681B8891
:100578001A46FB6813403B613A69FB689A4226D1E8
:10058800BB699B00FB60FB680F2202FA03F3BB60A8
:10059800BB68DB437A6913407B61FB68FA6902FA3E
:1005A80003F37A6913437B613B68DB78282B05D119
:1005B800BB6901229A407B685A6108E03B68DB7896
:1005C800482B04D1BB6901229A407B681A61BB6938
:1005D8000133BB61BB69072BC3D97B687A691A6091
:1005E8003B681B88FF2B4AD97B685B687B610023CB
:1005F800BB613EE0BB6908331A4601239340FB60A8
:100608003B681B881A46FB6813403B613A69FB68E4
:100618009A422BD1BB699B00FB60FB680F2202FA50
:1006280003F3BB60BB68DB437A6913407B61FB68FB
:10063800FA6902FA03F37A6913437B613B68DB7852
:10064800282B07D1BB6908331A46012303FA02F2A3
:100658007B685A613B68DB78482B07D1BB69083354
:100668001A46012303FA02F27B681A61BB69013357
:10067800BB61BB69072BBDD97B687A695A60203793
:10068800BD4680BD00080140000C0140001001403B
:100698000014014000180140001C014000200140E6
:1006A800EC33000880B483B000AF78607B684FF605
:1006B800FF721A807B6802229A707B680422DA70C3
:1006C8000C37BD465DF8047B704700BF80B582B02B
:1006D80000AF78607B68134A93421CD07B68124A4B
:1006E800934218D07B68114A934214D07B68104A11
:1006F800934210D07B680F4A93420CD07B680E4A15
:10070800934208D07B680D4A934204D00C484FF4BA
:100718009A7100F037FD7B689B689BB218460837D2
:10072800BD4680BD00080140000C0140001001409A
:100738000014014000180140001C01400020014045
:10074800EC33000880B582B000AF78600B467B8040
:100758007B68174A93421CD07B68164A934218D08C
:100768007B68154A934214D07B68144A934210D090
:100778007B68134A93420CD07B68124A934208D094
:100788007B68114A934204D0104840F2691100F086
:10079800F9FC7B88002B04D10C484FF4B57100F0AC
:1007A800F1FC7A887B681A610837BD4680BD00BFB6
:1007B80000080140000C01400010014000140140F5
:1007C80000180140001C014000200140EC330008E3
:1007D80080B582B000AF78600B467B807B68174A93
:1007E80093421CD07B68164A934218D07B68154AFE
:1007F800934214D07B68144A934210D07B68134A02
:1008080093420CD07B68124A934208D07B68114A05
:10081800934204D0104840F2791100F0B3FC7B8871
:10082800002B04D10C484FF4BD7100F0ABFC7A8862
:100838007B685A610837BD4680BD00BF000801408B
:10084800000C014000100140001401400018014054
:10085800001C014000200140EC33000880B582B044
:1008680000AF78600B467B807B68134A93421CD0AC
:100878007B68124A934218D07B68114A934214D07D
:100888007B68104A934210D07B680F4A93420CD081
:100898007B680E4A934208D07B680D4A934204D085
:1008A8000C484FF4D27100F06DFC7A887B68DA60EE
:1008B8000837BD4680BD00BF00080140000C01405C
:1008C800001001400014014000180140001C0140C4
:1008D80000200140EC33000880B400AF134A134BEA
:1008E8001B6843F0010313601049104B5A68104B02
:1008F80013404B600D4A0D4B1B6823F0847323F49F
:1009080080331360094A094B1B6823F48023136062
:10091800064A064B5B6823F4FE035360034B4FF40F
:100928001F029A60BD465DF8047B704700100240C4
:100938000000FFF880B582B000AF78607B68002BBC
:100948000CD07B68B3F5803F08D07B68B3F5802F67
:1009580004D0154840F2111100F014FC134A134B4F
:100968001B6823F480331360104A104B1B6823F470
:10097800802313607B68B3F5803F03D0B3F5802FE5
:1009880007D00DE0094A094B1B6843F48033136014
:1009980006E0064A054B1B6843F4A023136000BF1A
:1009A8000837BD4680BD00BF203400080010024053
:1009B80080B582B000AF00233B600023FB710023A9
:1009C800BB71312000F0BAF90346BB713B680133B3
:1009D8003B603B68B3F5A06F02D0BB79002BF0D029
:1009E800312000F0ABF90346002B02D00123FB7144
:1009F80001E00023FB71FB7918460837BD4680BD2E
:100A080080B584B000AF786039600023FB607B68F4
:100A1800002B0CD07B68B3F5803F08D07B68B3F51A
:100A2800403F04D02B4840F27F1100F0ABFB3B68FD
:100A3800002B3CD03B68B3F5802F38D03B68B3F52A
:100A4800002F34D03B68B3F5402F30D03B68B3F566
:100A5800801F2CD03B68B3F5A01F28D03B68B3F5A6
:100A6800C01F24D03B68B3F5E01F20D03B68B3F526
:100A7800001F1CD03B68B3F5101F18D03B68B3F5B6
:100A8800201F14D03B68B3F5301F10D03B68B3F576
:100A9800401F0CD03B68B3F5501F08D03B68B3F536
:100AA800601F04D00B484FF4C07100F06BFB0A4B79
:100AB8005B68FB60FB6823F47C13FB607A683B6827
:100AC8001343FA681343FB60034AFB68536010370B
:100AD800BD4680BD203400080010024080B582B0B9
:100AE80000AF0346FB71FB79002B07D0FB79012B84
:100AF80004D005484FF4CA7100F044FB034AFB795F
:100B080013600837BD4680BD2034000860004242AB
:100B180080B584B000AF78600023FB607B68002B51
:100B28000AD07B68012B07D07B68022B04D00B48C6
:100B38004FF40E7100F026FB094B5B68FB60FB6805
:100B480023F00303FB60FA687B681343FB60044AE5
:100B5800FB6853601037BD4680BD00BF20340008D5
:100B68000010024080B400AF054B5B68DBB203F0B5
:100B78000C03DBB21846BD465DF8047B704700BF26
:100B88000010024080B584B000AF78600023FB609D
:100B98007B68002B1CD07B68802B19D07B68902B3E
:100BA80016D07B68A02B13D07B68B02B10D07B6845
:100BB800C02B0DD07B68D02B0AD07B68E02B07D0E8
:100BC8007B68F02B04D00B484FF4197100F0DAFA67
:100BD800094B5B68FB60FB6823F0F003FB60FA6875
:100BE8007B681343FB60044AFB6853601037BD46BB
:100BF80080BD00BF203400080010024080B584B0DA
:100C080000AF78600023FB607B68002B14D07B6802
:100C1800B3F5806F10D07B68B3F5A06F0CD07B68FC
:100C2800B3F5C06F08D07B68B3F5E06F04D00B480C
:100C380040F27E2100F0A6FA094B5B68FB60FB6876
:100C480023F4E063FB60FA687B681343FB60044AA3
:100C5800FB6853601037BD4680BD00BF20340008D4
:100C68000010024080B584B000AF78600023FB60BC
:100C78007B68002B14D07B68B3F5806F10D07B683D
:100C8800B3F5A06F0CD07B68B3F5C06F08D07B6854
:100C9800B3F5E06F04D00B484FF4267100F072FAF8
:100CA800094B5B68FB60FB6823F46053FB607B685F
:100CB800DB00FA681343FB60034AFB685360103794
:100CC800BD4680BD203400080010024080B582B0C7
:100CD80000AF78600B46FB707A68154B1340002B09
:100CE80002D17B68002B04D1124840F24A4100F03F
:100CF80049FAFB78002B07D0FB78012B04D00D486C
:100D080040F24B4100F03EFAFB78002B06D00A492E
:100D1800094B9A697B6813438B6106E00649064BC9
:100D28009A697B68DB4313408B610837BD4680BDF9
:100D38000200C0FF203400080010024080B586B0D1
:100D480000AF0346FB710023FB6000237B61002397
:100D5800FB74FB79212B22D0FB79312B1FD0FB7937
:100D6800392B1CD0FB79412B19D0FB79612B16D07C
:100D7800FB797A2B13D0FB797B2B10D0FB797C2B5A
:100D88000DD0FB797D2B0AD0FB797E2B07D0FB7920
:100D98007F2B04D0174840F2345100F0F3F9FB7967
:100DA8005B09DBB2FB60FB68012B03D1124B1B68AC
:100DB8007B6109E0FB68022B03D10F4B1B6A7B6147
:100DC80002E00D4B5B6A7B61FB7903F01F03FB605C
:100DD800FB687A6922FA03F303F00103002B02D0BF
:100DE8000123FB7401E00023FB74FB7C18461837D1
:100DF800BD4680BD203400080010024080B584B094
:100E080000AF786039600023FB817B686B4A9342AE
:100E18000BD07B686A4A934207D07B68694A934241
:100E280003D06948A32100F0ADF93B681B88002B6B
:100E380012D03B681B88B3F5806F0DD03B681B88C8
:100E4800B3F5004F08D03B681B88B3F5404F03D07B
:100E58005D48A62100F096F93B685B88B3F5827F70
:100E680007D03B685B88002B03D05748A72100F0C8
:100E780089F93B689B88B3F5006F07D03B689B886E
:100E8800002B03D05048A82100F07CF93B68DB8890
:100E9800002B07D03B68DB88022B03D04A48A921E6
:100EA80000F070F93B681B89002B07D03B681B8951
:100EB800012B03D04448AA2100F064F93B685B8900
:100EC800B3F5007F07D03B685B89002B03D03E4811
:100ED800AB2100F057F93B689B89002B1FD03B687A
:100EE8009B89082B1BD03B689B89102B17D03B682C
:100EF8009B89182B13D03B689B89202B0FD03B680C
:100F08009B89282B0BD03B689B89302B07D03B68EB
:100F18009B89382B03D02C48AC2100F033F93B686F
:100F2800DB89002B07D03B68DB89802B03D0264860
:100F3800AD2100F027F93B681B8A002B03D122481A
:100F4800AE2100F01FF97B681B88FB81FB8903F445
:100F58004153FB813B681A883B685B8813439AB20C
:100F68003B689B8813439AB23B68DB8813439AB269
:100F78003B681B8913439AB23B685B8913439AB257
:100F88003B689B8913439AB23B68DB8913439AB247
:100F9800FB891343FB817B68FA891A807B689B8BEA
:100FA8009BB223F400639AB27B689A833B681A8ADF
:100FB8007B681A821037BD4680BD00BF00300140F3
:100FC80000380040003C00405034000880B582B032
:100FD80000AF78600B46FB707B68194A93420CD0CF
:100FE8007B68184A934208D07B68174A934204D01A
:100FF800164840F2B71100F0C5F8FB78002B07D06F
:10100800FB78012B04D011484FF4DC7100F0BAF8DA
:10101800FB78002B08D07B681B889BB243F0400309
:101028009AB27B681A8007E07B681B889BB223F022
:1010380040039AB27B681A800837BD4680BD00BF5E
:101048000030014000380040003C004050340008A7
:1010580080B582B000AF78600B46FB707B68194A98
:1010680093420CD07B68184A934208D07B68174A91
:10107800934204D016484FF41D7100F083F8FB78B2
:10108800002B07D0FB78012B04D0114840F27521C2
:1010980000F078F8FB78002B08D07B689B889BB21F
:1010A80043F004039AB27B689A8007E07B689B88C8
:1010B8009BB223F004039AB27B689A800837BD4636
:1010C80080BD00BF0030014000380040003C0040B7
:1010D8005034000880B483B000AF7860FEE700BFEA
:1010E80080B582B000AF024B7B600120FFF7F2FFB2
:1010F8008034000880B584B000AF7860144B1B685A
:10110800002B02D1124B134A1A60114B1B68FB606B
:101118007B68033323F003037B600D4B1A687B68FD
:1011280013440D4A934207D902F05AF802460C2399
:1011380013604FF0FF3306E0054B1A687B681344D1
:10114800034A1360FB6818461037BD4680BD00BFD0
:1011580094000020B4010020004C002080B483B02B
:1011680000AF786039607B6801221A603B68044AE6
:101178001A6000BF0C37BD465DF8047B704700BF9E
:101188000400002080B584B000AF78603960024B5D
:10119800FB60FFF7A5FF00BFD834000880B500AF9B
:1011A80000F00EF8014B024A9A6080BD00ED00E0A5
:1011B8000000000880B500AF00F036F880BD00BF21
:1011C80080B500AF154A154B1B6843F00103136047
:1011D8001249124B5A68124B13404B600F4A0F4B7F
:1011E8001B6823F0847323F4803313600B4A0B4B82
:1011F8001B6823F480231360084A084B5B6823F4B8
:10120800FE035360054B4FF41F029A6000F07AF812
:10121800044B4FF000629A6080BD00BF001002408E
:101228000000FFF800ED00E080B485B000AF0023B7
:10123800FB600023BB6000237B602D4B5B6803F0E1
:101248000C03FB60FB68042B07D0082B09D0002B8C
:1012580034D1284B284A1A6034E0264B264A1A60B3
:1012680030E0234B5B6803F47013BB60204B5B6872
:1012780003F480337B60BB689B0C0233BB607B68E4
:10128800002B06D1BB681D4A02FB03F3194A136001
:1012980013E0174B5B6803F40033002B06D0BB68E0
:1012A800164A02FB03F3134A136006E0BB68124AAE
:1012B80002FB03F30F4A136004E003E00D4B0E4AF0
:1012C8001A6000BF0A4B5B6803F0F0031B090C4A65
:1012D800D35CDBB2FB60074B1A68FB6822FA03F3A6
:1012E800044A13601437BD465DF8047B704700BF9D
:1012F800001002400C00002000127A0000093D0096
:101308001000002080B500AF00F002F880BD00BFDB
:1013180080B483B000AF00237B6000233B603A4A6F
:10132800394B1B6843F480331360374B1B6803F455
:1013380000333B607B6801337B603B68002B03D143
:101348007B68B3F5A06FF0D12F4B1B6803F4003313
:10135800002B02D001233B6001E000233B603B6887
:10136800012B4BD1294A294B1B6843F0100313600A
:10137800264A264B1B6823F003031360234A234B9A
:101388001B6843F0020313601F4A1F4B5B685360DE
:101398001D4A1D4B5B6853601B4A1B4B5B6843F43B
:1013A80080635360184A184B5B6823F47C135360BE
:1013B800154A154B5B6843F4E8135360124A124B05
:1013C8001B6843F08073136000BF0F4B1B6803F06A
:1013D8000073002BF9D00C4A0B4B5B6823F0030316
:1013E8005360094A084B5B6843F00203536000BF2F
:1013F800054B5B6803F00C03082BF9D10C37BD468D
:101408005DF8047B704700BF0010024000200240D6
:1014180080B400AF00BF00BF00BF00BF00BF00BF67
:1014280000BF00BF00BF00BF00BF00BF00BF00BFBC
:1014380000BF00BFBD465DF8047B704780B582B031
:1014480000AF0346FB71FB79012B09D0022B0DD0AD
:10145800002B11D10A484FF40061FFF7B9F90BE0EE
:1014680007484FF48051FFF7B3F905E004484FF4FB
:101478000051FFF7ADF900BF0837BD4680BD00BF7A
:101488000010014080B582B000AF0346FB71FB79C4
:10149800012B09D0022B0DD0002B11D10A484FF493
:1014A8000061FFF74FF90BE007484FF48051FFF751
:1014B80049F905E004484FF40051FFF743F900BF2C
:1014C8000837BD4680BD00BF0010014080B584B01C
:1014D80000AF0346FB711B48FFF7E4F8194BFF22E6
:1014E8001A80184B4822DA7017481649FEF7B0FFE1
:1014F80015484FF40071FFF725F913484FF4807130
:10150800FFF766F9FB791846FFF798FFFFF780FFAA
:101518000D484FF48061FFF715F9FFF779FF0A4886
:10152800FFF7D4F80346FB7307484FF48061FFF7D1
:101538004FF9FB791846FFF7A5FFFB7B18461037D4
:10154800BD4680BD9C0000200010014080B582B0DF
:1015580000AF03460A46FB711346BB7100BFBB7957
:101568001846FFF7B3FF0346DBB25BB2002BF6DB8E
:101578001F48FFF797F81E4BFF221A801C4B1022BA
:10158800DA701C481A49FEF763FF1A484FF4407195
:10159800FFF71EF9FFF73CFFBB791846FFF74EFF30
:1015A800FFF736FFFB799BB212481946FFF7CAF8D6
:1015B800FB79DB43FB71FB799BB20E481946FFF7B9
:1015C80007F9FFF725FF0B484FF48061FFF7BAF8DA
:1015D800FFF71EFF07484FF48061FFF7F9F8FFF7A0
:1015E80017FFBB791846FFF74DFF0837BD4680BD8A
:1015F8009C0000200010014080B582B000AF034677
:10160800FB7100BF2B4B1B789B09DBB21846FFF719
:101618005DFF0346DBB25BB2002BF3DB2648FFF726
:1016280041F8254BFF221A80234B1022DA702348F9
:101638002149FEF70DFF21484FF40071FFF7C8F864
:10164800FFF7E6FE1D484FF48071FFF77BF8FFF7C0
:10165800DFFE1A49FB79DB43DBB21A04FB7913433B
:101668000B61FFF7D5FE134B1B789B09DBB21846BD
:10167800FFF7E4FEFFF7CCFE10484FF48061FFF758
:1016880061F8FFF7C5FE0D484FF48061FFF7A0F839
:10169800FFF7BEFE074B1B789B09DBB21846FFF726
:1016A800F1FE044B1B780133DAB2024B1A7008378B
:1016B800BD4680BDA00000209C0000200010014015
:1016C80080B500AF10200121FFF700FB0B48FEF7A3
:1016D800E9FF0A4B4FF6FF721A80084B02229A70F4
:1016E800064B1022DA7006480449FEF7B1FE04489A
:1016F80041F6FF71FFF7B2F880BD00BF9C000020E3
:101708000010014080B483B000AF78607B681B781C
:10171800DBB218460C37BD465DF8047B704700BF46
:1017280080B582B000AFFFF7CBFF0023FB7107E065
:10173800FB793F201946FFF709FFFB790133FB715D
:10174800FB79012BF4D90837BD4680BD80B584B03C
:1017580000AF03460A46FB711346BB711E4AFB796C
:1017680013701E4ABB7913700023FB7315E0FB7BD3
:1017780040201946FFF7EAFEBB7963F04703DAB267
:10178800FB7B10461946FFF7E1FEFB7BC02019469C
:10179800FFF7DCFEFB7B0133FB73FB7B012BE6D9F8
:1017A800FB7903F03F03DBB243F04003DAB2FB7985
:1017B8009B09DBB210461946FFF7C8FEBB7963F0F8
:1017C8004703DAB2FB799B09DBB210461946FFF7EB
:1017D800BDFE1037BD4680BDA0000020A10000203E
:1017E80080B582B000AF0023BB7114E0BB79002044
:1017F8001946FFF7ABFF0023FB7105E00020FFF758
:10180800FBFEFB790133FB71FB795BB2002BF5DA48
:10181800BB790133BB71BB79072BE7D90837BD46C4
:1018280080BD00BF80B584B000AF0346FB71FB7973
:10183800203BDBB2FB710023FB7316E097F907200E
:1018480013469B0013441A4697F90F3013440C4A69
:1018580013441846FFF756FF03461846FFF7CCFE19
:10186800FB7BDBB20133DBB2FB7397F90F30042B40
:10187800E4DD0020FFF7C0FE1037BD4680BD00BF85
:101888000435000880B582B000AF786007E07B6857
:101898005A1C7A601B785BB21846FFF7C3FF7B6857
:1018A8001B78002BF3D10837BD4680BD80B584B0C6
:1018B80000AF786001F024F80346BB60FFF730FF03
:1018C800FFF78EFF012000F0CDFB02461D4B1A608A
:1018D8000023FB601B4B1B681846002104220023D1
:1018E80000F094FC0346012B2BD1FFF779FF164833
:1018F8004FF48071FEF726FFFB680133FB60FB683D
:101908000A2B01DD0023FB6002200221FFF71EFFE6
:101918000E48FFF7B7FF02200221FFF717FF0C4818
:10192800FFF7B0FF074B1B68184600210022002371
:1019380000F0DAFB07F1080318464FF4FA7100F0DB
:10194800CBFEC7E7AC010020000C0140E4360008DC
:10195800FC36000880B584B000AF7860012000F044
:1019680081FB02461F4B1A6000F0CAFF0346BB60AA
:101978000023FB601B4B1B68184600210322002331
:1019880000F044FC0346012B2BD1FB680133FB60BC
:10199800FB680A2B01DD0023FB60FFF721FF1248DB
:1019A8004FF48071FEF714FF02200321FFF7CEFEEB
:1019B8000E48FFF767FF02200321FFF7C7FE0C4818
:1019C800FFF760FF074B1B68184600210022002321
:1019D80000F08AFB07F1080318464FF4487100F03D
:1019E8007BFEC7E7AC010020000C0140003700086F
:1019F800FC36000880B586B004AF7860396000F026
:101A080053F801230093002301930023029300233A
:101A180003930C480C494FF47A72002300F0BCFD84
:101A280002230093002301930023029300230393CE
:101A3800064807494FF47A72002300F0ADFD00F024
:101A4800A7FEFEE7B5180008183700085D1900085A
:101A58002037000880B483B000AF03463960FB71BB
:101A680097F90730002B0BDA0D49FB7903F00F03C8
:101A7800043B3A68D2B21201D2B20B441A7609E09A
:101A8800084997F907303A68D2B21201D2B20B442A
:101A980083F800230C37BD465DF8047B704700BF10
:101AA80000ED00E000E100E080B500AF00F04EF886
:101AB80000F006F800F096F800F09CF880BD00BF32
:101AC80080B582B000AF4FF6FF73BB800323BB71B4
:101AD8001023FB713B1D1A481946FEF7B9FC4FF459
:101AE8007F43BB800323BB711023FB713B1D15484B
:101AF8001946FEF7ADFC3023BB801023FB7103238E
:101B0800BB713B1D10481946FEF7A2FCE023BB80C1
:101B18001823FB710323BB713B1D0B481946FEF7C5
:101B280097FC4FF48073BB800423FB710323BB71C4
:101B38003B1D05481946FEF78BFC0837BD4680BD9E
:101B480000100140000C01400008014080B582B03F
:101B580000AFFEF7C1FE4FF48030FEF7EBFEFEF754
:101B680027FF0346FB71FB79012B35D11020FEF7C7
:101B78004DFC0220FEF720FC0020FFF703F80020B0
:101B8800FFF770F84FF48060FFF738F84FF48030B3
:101B98004FF4E011FEF734FF0120FEF79FFF00BF6E
:101BA8003920FFF7CBF80346002BF9D00220FEF7C7
:101BB800AFFF00BFFEF7D6FF0346082BFAD104207B
:101BC800074900F041F83C200121FFF77FF84FF466
:101BD80080500121FFF77AF80837BD4680BD00BF65
:101BE80080FC0A0080B500AF4FF000600021FEF7CE
:101BF800B7FB80BD80B586B000AF0023BB804FF433
:101C08008273FB8000233B8102237B810123BB81FC
:101C18004FF40073FB8108233B8200237B82072358
:101C2800BB823B1D07481946FFF7E8F80548012124
:101C3800FFF70EFA03480121FFF7C8F91837BD4628
:101C480080BD00BF0030014080B584B000AF78602F
:101C580039607B68042B07D07B6813F1050F03D02C
:101C680016488521FFF78EFA3B68B3F1807F01D3D0
:101C780001231FE0124A3B6823F07F43013B536076
:101C88004FF0FF300021FFF7E5FE0D4B00229A6070
:101C98000323FB607B68042B04D1FB6843F0040337
:101CA800FB6003E0FB6823F00403FB60044AFB6865
:101CB8001360002318461037BD4680BD283700083A
:101CC80010E000E080B584B000AF786000F08AFDD5
:101CD800786801F08BFAF86000F092FDFB6818460E
:101CE8001037BD4680BD00BF80B582B000AF7860B8
:101CF8007B68002B06D000F075FD786801F07EFA4D
:101D080000F07EFD0837BD4680BD00BF80B483B0BB
:101D180000AF78607B6803F108027B685A607B68D3
:101D28004FF0FF329A607B6803F108027B68DA6043
:101D38007B6803F108027B681A617B6800221A60DD
:101D48000C37BD465DF8047B704700BF80B483B094
:101D580000AF78607B6800221A610C37BD465DF8D9
:101D6800047B704780B485B000AF786039607B68C9
:101D78005B68FB603B68FA685A60FB689A683B6876
:101D88009A60FB689B683A685A60FB683A689A6090
:101D98003B687A681A617B681B685A1C7B681A6002
:101DA8001437BD465DF8047B704700BF80B485B02A
:101DB80000AF786039603B681B68BB60BB68B3F1F3
:101DC800FF3F03D17B681B69FB600CE07B6808332D
:101DD800FB6002E0FB685B68FB60FB685B681A6895
:101DE800BB689A42F6D9FB685A683B685A603B68F8
:101DF8005B683A689A603B68FA689A60FB683A6878
:101E08005A603B687A681A617B681B685A1C7B6851
:101E18001A601437BD465DF8047B704780B485B0FE
:101E280000AF78607B681B69FB607B685B687A68D9
:101E380092689A607B689B687A6852685A60FB6807
:101E48005A687B689A4203D17B689A68FB685A6033
:101E58007B6800221A61FB681B685A1EFB681A60BF
:101E6800FB681B6818461437BD465DF8047B70474D
:101E780080B485B000AFF860B9607A60FB68043B55
:101E8800FB60FB684FF080721A60FB68043BFB60E4
:101E9800BA68FB681A60FB68043BFB60094AFB6888
:101EA8001A60FB68143BFB607A68FB681A60FB6881
:101EB800203BFB60FB6818461437BD465DF8047B81
:101EC800704700BFD11E000880B500AF00F074F85D
:101ED800FEE700BF074B19680868B0E8F00F80F309
:101EE8000988BFF36F8F4FF0000080F311884EF020
:101EF8000D0E7047A400002006480068006880F3B3
:101F0800088862B661B6BFF34F8FBFF36F8F00DFEB
:101F180000BF000008ED00E080B500AF0B4A0B4B96
:101F28001B6843F47F031360084A084B1B6843F09F
:101F38007F43136000F084F8054B00221A60FFF716
:101F4800DBFFFFF7C1FF0023184680BD20ED00E04E
:101F58002000002080B400AF054B4FF080521A607B
:101F6800BFF34F8FBFF36F8FBD465DF8047B70479B
:101F780004ED00E080B500AF00F01EF8044B1B68CC
:101F88000133034A1360BFF34F8FBFF36F8F80BDD8
:101F98002000002080B500AF064B1B68013B054AB6
:101FA8001360044B1B68002B02D1002000F00EF8D0
:101FB80080BD00BF20000020EFF311804FF0BF016B
:101FC80081F3118870470023184600BF80F31188F9
:101FD800704700BFEFF30980BFF36F8F0D4B1A688E
:101FE80020E9F00F10602DE908404FF0BF0080F3A2
:101FF800118800F045FD4FF0000080F31188BDE81E
:10200800084019680868B0E8F00F80F30988BFF342
:102018006F8F7047A400002080B500AFFFF7CCFF9A
:1020280000F07EFC0346002B03D0044B4FF0805297
:102038001A600020FFF7CAFF80BD00BF04ED00E072
:1020480080B400AF044B054A1A60054B07221A609A
:10205800BD465DF8047B704714E000E03F190100BD
:1020680010E000E080B584B000AF0346FB71542057
:10207800FFF728FEF860FB68002B30D0FB680022D1
:102088005A60FB6800221A60FB6800229A60FB68AD
:102098000022DA60FB6800229A63FB680122DA6397
:1020A800FB6800221A64FB684FF0FF325A64FB6831
:1020B8004FF0FF329A64FB68FA7983F85020FB6886
:1020C80010331846FFF722FEFB6824331846FFF743
:1020D8001DFEF86800210022002300F005F8FB68C7
:1020E80018461037BD4680BD80B58AB000AFF8608D
:1020F800B9607A603B6000237B62FB683B62FFF754
:1021080039FF3B6A9A6B3B6ADB6B9A4202D33B68A6
:10211800022B1DD1386AB9683A6800F02FF9F861C6
:102128003B6A5B6A002B0AD03B6A2433184600F0EE
:102138002DFD0346012B07D1FFF70CFF04E0FB69D7
:10214800002B01D0FFF706FFFFF724FF012359E01A
:102158007B68002B03D1FFF71DFF002352E07B6A49
:10216800002B06D107F11403184600F065FD012382
:102178007B62FFF70FFF00F035FBFFF7FBFE3B6AC2
:102188005B6CB3F1FF3F02D13B6A00225A643B6AA1
:102198009B6CB3F1FF3F02D13B6A00229A64FFF7C0
:1021A800F9FE07F114023B1D1046194600F05AFDCE
:1021B8000346002B1ED1386A00F0D6F90346002BDF
:1021C80012D03B6A03F110027B681046194600F0F2
:1021D8009DFC386A00F066F900F012FB0346002BFC
:1021E8000FD1FFF7B7FE0CE0386A00F05BF900F09A
:1021F80007FB84E7386A00F055F900F001FB00237B
:1022080000E07CE718462837BD4680BD80B58AB017
:1022180000AFF860B9607A603B6000237B62FB68BE
:102228003B62FFF7A7FE3B6A9B6B002B3BD03B6AE8
:10223800DB68FB61386AB96800F00EF93B68002B6F
:102248001CD13B6A9B6B5A1E3B6A9A633B6A1B68AC
:10225800002B04D100F0B0FF02463B6A5A603B6A8B
:102268001B69002B1BD03B6A1033184600F08EFC0C
:102278000346012B13D1FFF76DFE10E03B6AFA69A4
:10228800DA603B6A5B6A002B09D03B6A2433184644
:1022980000F07CFC0346002B01D0FFF75BFEFFF744
:1022A80079FE012366E07B68002B03D1FFF772FEFD
:1022B80000235FE07B6A002B06D107F11403184660
:1022C80000F0BAFC01237B62FFF764FE00F08AFA93
:1022D800FFF750FE3B6A5B6CB3F1FF3F02D13B6AEC
:1022E80000225A643B6A9B6CB3F1FF3F02D13B6A00
:1022F80000229A64FFF74EFE07F114023B1D1046B8
:10230800194600F0AFFC0346002B2BD1386A00F0C9
:1023180015F90346002B1FD03B6A1B68002B08D118
:10232800FFF728FE3B6A5B68184600F067FEFFF778
:1023380031FE3B6A03F124027B681046194600F01F
:10234800E5FB386A00F0AEF800F05AFA0346002BB5
:102358000FD1FFF7FFFD0CE0386A00F0A3F800F09A
:102368004FFA5EE7386A00F09DF800F049FA00235A
:1023780000E056E718462837BD4680BD80B586B0D0
:1023880000AFF860B9607A6000237B61FB681B6C62
:10239800002B0DD1FB681B68002B52D1FB685B68D2
:1023A800184600F0A3FE7861FB6800225A6048E0F6
:1023B8007B68002B1AD1FB689A68FB681B6C104677
:1023C800B9681A4600F022FFFB689A68FB681B6C24
:1023D8001A44FB689A60FB689A68FB685B689A42D3
:1023E8002FD3FB681A68FB689A602AE0FB68DA68F2
:1023F800FB681B6C1046B9681A4600F007FFFB68BB
:10240800DA68FB681B6C5B421A44FB68DA60FB689D
:10241800DA68FB681B689A4207D2FB685A68FB684F
:102428001B6C5B421A44FB68DA607B68022B08D19C
:10243800FB689B6B002B04D0FB689B6B5A1EFB68E8
:102448009A63FB689B6B5A1CFB689A637B69184606
:102458001837BD4680BD00BF80B582B000AF786038
:1024680039607B681B6C002B19D07B68DA687B6845
:102478001B6C1A447B68DA607B68DA687B685B6887
:102488009A4203D37B681A687B68DA607B68DA68EB
:102498007B681B6C386811461A4600F0B7FE08378F
:1024A800BD4680BD80B582B000AF7860FFF762FDA1
:1024B80014E07B685B6A002B0AD07B6824331846DB
:1024C80000F064FB0346002B03D000F00FFC00E093
:1024D80008E07B689B6C5A1E7B689A647B689B6CDF
:1024E800002BE6DC7B684FF0FF329A64FFF752FD61
:1024F800FFF740FD14E07B681B69002B0FD07B6859
:102508001033184600F042FB0346002B01D000F0C0
:10251800EDFB7B685B6C5A1E7B685A6400E003E045
:102528007B685B6C002BE6DC7B684FF0FF325A64FB
:10253800FFF730FD0837BD4680BD00BF80B584B0C9
:1025480000AF7860FFF716FD7B689B6B002B02D10C
:102558000123FB6001E00023FB60FFF71BFDFB6824
:1025680018461037BD4680BD80B584B000AF78608E
:10257800FFF700FD7B689A6B7B68DB6B9A4202D1A0
:102588000123FB6001E00023FB60FFF703FDFB680C
:1025980018461037BD4680BD80B58AB002AFF860D6
:1025A800B9603B601346FB80FB881846396B00F026
:1025B800B9FCB861BB69002B6BD0BB691A6BFB888F
:1025C80003F18043013B9B0013447B617B6923F04B
:1025D80007037B61FB880093B869B968BA6A7B6BAB
:1025E80000F0A0FB7869F9683A68FFF741FC0246F9
:1025F800BB691A60FB6A002B02D0FB6ABA691A60D1
:10260800FFF7B8FC2E4B1B6801332D4A13602D4B86
:102618001B68002B09D12B4ABB691360284B1B6828
:10262800012B0FD100F0D0FB0CE0274B1B68002BCF
:1026380008D1244B1B68DA6ABB6A9A4202D8214A3D
:10264800BB691360214B1B680133204A13601F4B81
:102658001A68BB695A64BB69DB6A1A46012303FA24
:1026680002F21B4B1B681343194A1360BB69DA6AF1
:1026780013469B0013449B00164A1A44BB69043353
:1026880010461946FFF76EFB0123FB61FFF782FC3A
:1026980002E04FF0FF33FB61FB69012B0BD10A4BC2
:1026A8001B68002B07D0074B1B68DA6ABB6A9A4283
:1026B80001D2FFF74FFCFB6918462037BD4680BDA5
:1026C8007C010020A400002088010020980100203F
:1026D80084010020A800002080B586B000AF786093
:1026E800396000237B6100F07DF8264B1B683B6155
:1026F8007B681A683B681344FB607B681A683B690F
:102708009A420BD97B681A68FB689A4211D9FA6811
:102718003B699A420DD901237B610AE07B681A68FC
:10272800FB689A4203D8FA683B699A4201D90123A7
:102738007B617B68FA681A607B69002B17D0124BA3
:102748001B6804331846FFF769FB0346002B0BD1BF
:102758000D4B1B68DB6A1A4601239340DA430B4B87
:102768001B681340094A1360F86800F0A5FB00F0E5
:1027780047F8B860BB68002B01D1FFF7EBFB1837AF
:10278800BD4680BD80010020A400002084010020F7
:1027980080B586B004AF0023009300230193002383
:1027A8000293002303930B480B4978220023FFF779
:1027B800F3FE78607B68012B09D1FFF7FDFB074B1F
:1027C80001221A60064B00221A60FFF7A5FB0837A2
:1027D800BD4680BD0D2D000848370008880100203F
:1027E8008001002080B400AF044B1B680133034A0A
:1027F8001360BD465DF8047B704700BF9C01002054
:1028080080B582B000AF00237B60FFF7B3FB344B89
:102818001B68013B324A1360314B1B68002B57D1B0
:10282800304B1B68002B53D030E02F4BDB68DB6844
:102838003B603B6818331846FFF7F0FA3B680433EF
:102848001846FFF7EBFA3B68DB6A1A46012303FADE
:1028580002F2264B1B681343244A13603B68DA6A6A
:1028680013469B0013449B00214A1A443B680433D7
:1028780010461946FFF776FA3B68DA6A1D4B1B6863
:10288800DB6A9A4202D31C4B01221A60164B1B6862
:10289800002BCAD1194B1B68002B11D00CE000F09B
:1028A8003FF80346002B02D0134B01221A60134B4A
:1028B8001B68013B114A1360104B1B68002BEED1BB
:1028C8000D4B1B68012B03D101237B60FFF742FBF3
:1028D800FFF760FB7B6818460837BD4680BD00BF20
:1028E8009C0100207C0100203C0100208401002084
:1028F800A8000020A4000020900100208C010020E6
:1029080080B483B000AF054B1B687B607B681846BA
:102918000C37BD465DF8047B704700BF800100207E
:1029280080B586B000AF00237B614A4B1B68002B43
:102938007FD1494B1B680133474A1360464B1B68DC
:102948003B613B69002B10D1444B1B68FB60444B37
:102958001B68424A1360424AFB681360414B1B687C
:102968000133404A136000F025FB3F4B1B683A696E
:102978009A424FD3394B1B681B68002B01D10123A6
:1029880000E00023002B04D0374B4FF0FF321A60D1
:1029980040E0324B1B68DB68DB68BB60BB685B6888
:1029A8007B603A697B689A4203D22F4A7B6813603E
:1029B80030E0BB6804331846FFF730FABB689B6AFF
:1029C800002B04D0BB6818331846FFF727FABB68FA
:1029D800DB6A1A46012303FA02F2244B1B681343ED
:1029E800224A1360BB68DA6A13469B0013449B00B3
:1029F8001F4A1A44BB68043310461946FFF7B2F958
:102A0800BB68DA6A1B4B1B68DB6A9A4201D3012355
:102A18007B61AFE7174B1B68DA6A154913469B00C1
:102A280013449B000B441B68012B07D901237B61CE
:102A380004E0114B1B6801330F4A13600F4B1B68EE
:102A4800002B01D001237B617B6918461837BD46EE
:102A580080BD00BF9C0100208001002034010020BF
:102A68003801002094010020240000208401002067
:102A7800A8000020A40000208C0100209001002064
:102A880080B485B000AF1C4B1B68002B03D01B4BD8
:102A980001221A602AE0194B00221A60184B1B68A1
:102AA8007B607B68B3FA83F3FB70FB78C3F11F0389
:102AB800FB60FA6813469B0013449B00114A1344B9
:102AC800BB60BB685B685A68BB685A60BB685A6879
:102AD800BB6808339A4204D1BB685B685A68BB6814
:102AE8005A60BB685B68DB68074A13601437BD46E9
:102AF8005DF8047B704700BF9C0100209001002016
:102B080084010020A8000020A400002080B584B023
:102B180000AF78603960194B1B681833786819461C
:102B2800FFF744F9154B1B6804331846FFF776F98D
:102B38000346002B0BD1114B1B68DB6A1A46012395
:102B48009340DA430E4B1B6813400D4A13603B68F1
:102B5800B3F1FF3F07D1094B1B68043309481946F5
:102B6800FFF700F907E0084B1A683B681344FB605D
:102B7800F86800F0A1F91037BD4680BDA400002018
:102B880084010020680100208001002080B584B005
:102B980000AF78607B68DB68DB68BB60BB681833B4
:102BA8001846FFF73BF91E4B1B68002B1ED1BB686C
:102BB80004331846FFF732F9BB68DB6A1A4601236B
:102BC80003FA02F2174B1B681343164A1360BB68DB
:102BD800DA6A13469B0013449B00134A1A44BB68E5
:102BE800043310461946FFF7BDF805E0BB681833F3
:102BF8000E481946FFF7B6F8BB68DA6A0C4B1B6833
:102C0800DB6A9A4205D90123FB600A4B01221A604C
:102C180001E00023FB60FB6818461037BD4680BD05
:102C28009C01002084010020A80000203C01002015
:102C3800A40000209001002080B483B000AF786029
:102C4800064B1A687B681A60054B1A687B685A60DD
:102C58000C37BD465DF8047B704700BF9401002027
:102C68008001002080B584B000AF78603960FFF73C
:102C780081F91C4B1B68BB603B681B68B3F1FF3FC5
:102C880002D10023FB6026E07B681A68164B1B689C
:102C98009A4207D07B685A68BB689A4202D80123D7
:102CA800FB6018E07B685B68BA68D21A3B681B68EF
:102CB8009A420ED23B681A687B685968BB68CB1A7F
:102CC8001A443B681A607868FFF7B6FF0023FB6078
:102CD80001E00123FB60FFF75DF9FB681846103738
:102CE800BD4680BD800100209401002080B400AF63
:102CF800034B01221A60BD465DF8047B704700BF94
:102D08009001002080B582B000AF786000F09AF89A
:102D1800034B1B68012B01D9FFF71CF9F6E700BF2D
:102D2800A800002080B586B000AFF860B9607A606E
:102D38003B6000237B6113E0BA687B691344197810
:102D4800FA687B69134430330A461A71BA687B699A
:102D580013441B78002B00D105E07B6901337B61AC
:102D68007B690F2BE8D9FB68002283F843207B6836
:102D7800042B01D904237B60FB687A68DA62FB685C
:102D88007A68DA64FB6800221A65FB68043318461F
:102D9800FEF7DCFFFB6818331846FEF7D7FFFB6821
:102DA800FA681A617B68C3F10502FB689A61FB68DF
:102DB800FA685A62FB6800225A65FB68002283F8A9
:102DC80058201837BD4680BD80B582B000AF0023BB
:102DD8007B600CE07A6813469B0013449B00114A01
:102DE80013441846FEF792FF7B6801337B607B68CB
:102DF800042BEFD90C48FEF789FF0C48FEF786FF35
:102E08000B48FEF783FF0B48FEF780FF0A48FEF7E2
:102E18007DFF0A4B044A1A60094B044A1A600837B6
:102E2800BD4680BDA80000200C0100202001002024
:102E38003C010020500100206801002034010020DE
:102E48003801002080B582B000AF28E0FFF7CAFC47
:102E5800164B1B68002B0CBF01230023DBB27B60E1
:102E6800FFF7CEFC7B68002B19D1FFF783F80F4BD7
:102E7800DB68DB683B603B6804331846FEF7CEFF2F
:102E88000B4B1B68013B0A4A13600A4B1B68013B4A
:102E9800084A1360FFF77EF8386800F07BF8054BA6
:102EA8001B68002BD2D10837BD4680BD50010020D9
:102EB8007C0100206401002080B582B000AF7860FA
:102EC800134B1B687A685A60124B1B687A689A42DF
:102ED80009D2114B1A680E4B1B6804331046194669
:102EE800FEF764FF10E00D4B1A68094B1B680433AA
:102EF80010461946FEF75AFF094B1B687A689A4232
:102F080002D2074A7B6813600837BD4680BD00BF00
:102F1800A400002080010020380100203401002096
:102F28002400002080B584B000AF03463960FB80E0
:102F38003B68002B06D1FB889B001846FEF7C2FEB3
:102F4800034600E03B68BB60BB68002B0ED05C20EA
:102F5800FEF7B8FEF860FB68002B03D0FB68BA6880
:102F68001A6305E0B868FEF7BFFE01E00023FB60C6
:102F7800FB68002B08D0FB681A6BFB889B00104687
:102F8800A5211A4600F04DF9FB6818461037BD46D2
:102F980080BD00BF80B582B000AF78607B681B6BD6
:102FA8001846FEF7A1FE7868FEF79EFE0837BD4674
:102FB80080BD00BF80B483B000AF0E4B1B681B6898
:102FC800002B01D1012300E00023002B04D00A4B81
:102FD8004FF0FF321A6008E0064B1B68DB68DB68BD
:102FE8007B607B685B68044A13600C37BD465DF8FC
:102FF800047B7047340100202400002080B584B091
:1030080000AF78607B68FB607B68002B64D0FB684E
:10301800DA6A334B1B68DB6A9A425DD2FB689B69AC
:10302800002B06DB2E4B1B68DB6AC3F10502FB682D
:103038009A61FB685969FB68DA6A13469B00134476
:103048009B00284A1344994201D1012300E0002340
:10305800002B3CD0FB6804331846FEF7DFFE03461E
:10306800002B15D1FB68DA6A1E4913469B001344EE
:103078009B000B441B68002B0AD1FB68DB6A1A46CD
:1030880001239340DA43184B1B681340164A136018
:10309800134B1B68DA6AFB68DA62FB68DB6A1A465C
:1030A800012303FA02F2104B1B6813430E4A136004
:1030B800FB68DA6A13469B0013449B00094A1A44CA
:1030C800FB68043310461946FEF74CFE04E0044B37
:1030D8001B68DA6AFB68DA621037BD4680BD00BF3C
:1030E800A4000020A80000208401002080B584B03E
:1030F80000AF78607B68BB600023FB607B68002BB7
:1031080051D0BB681B6D5A1EBB681A65BB68DA6A6A
:10311800BB68DB6C9A4246D0BB681B6D002B42D162
:10312800BB6804331846FEF779FE0346002B15D119
:10313800BB68DA6A1E4913469B0013449B000B4484
:103148001B68002B0AD1BB68DB6A1A46012393402F
:10315800DA43184B1B681340164A1360BB68DA6CD5
:10316800BB68DA62BB68DB6AC3F10502BB689A61B7
:10317800BB68DB6A1A46012303FA02F20D4B1B688F
:1031880013430C4A1360BB68DA6A13469B00134466
:103198009B00074A1A44BB68043310461946FEF7D9
:1031A800E1FD0123FB60FB6818461037BD4680BD72
:1031B800A80000208401002080B400AF074B1B68E2
:1031C800002B04D0054B1B681A6D01321A65034B9E
:1031D8001B681846BD465DF8047B7047A4000020B4
:1031E800014B1868704700BF88000020024B014659
:1031F800186800F063B800BF88000020024B014641
:10320800186800F017B800BF8800002010B5431EEA
:103218000A44914204D011F8014B03F8014FF8E732
:1032280010BD03460244934202D003F8011BFAE79B
:103238007047000030B500293CD051F8042C0B1F12
:103248001D49002AB8BF9B180A680C4612B95A6073
:103258000B6030BD93420DD219685818904201BFD7
:103268005A5852181A60426823605A6030BD994211
:1032780003D80A4651680029F9D1146815199D42E6
:103288000AD11B682344D0188842136012D10868F9
:10329800034413604B680CE002D90C23036030BD73
:1032A8001C681819884201BF086849680019186025
:1032B8005960536030BD00BFA401002070B5CC1C1C
:1032C80024F0030408340C2C38BF0C24002C0646C8
:1032D80003DA0C233360002070BD8C42F9D3204AF6
:1032E800136810461946A1B10A68121B0ED40B2A9E
:1032F80003D90A608B188C501FE08B420BBF5A68A9
:103308004A6802605A6018BF0B4616E00B464968C7
:10331800E9E7144D2B681BB9304600F025F8286002
:103328003046214600F020F8421C0346D1D0C51C87
:1033380025F0030585420AD11C6003F10B001A1D14
:1033480020F00700821A0AD05142995070BD3046C9
:10335800E91A00F009F80130BBD02B46ECE770BD44
:10336800A4010020A001002038B5064C0023054622
:1033780008462360FDF7BEFE431C02D1236803B153
:103388002B6038BDA80100202E2E2F737973746529
:103398006D2F7372632F73746D333266312D7374AE
:1033A800647065726970682F6D6973632E630000BD
:1033B8002E2E2F73797374656D2F7372632F737448
:1033C8006D333266312D7374647065726970682F5D
:1033D80073746D3332663130785F666C6173682E52
:1033E800630000002E2E2F73797374656D2F73722E
:1033F800632F73746D333266312D73746470657224
:103408006970682F73746D3332663130785F677016
:10341800696F2E63000000002E2E2F737973746578
:103428006D2F7372632F73746D333266312D73741D
:10343800647065726970682F73746D3332663130E9
:10344800785F7263632E63002E2E2F737973746511
:103458006D2F7372632F73746D333266312D7374ED
:10346800647065726970682F73746D3332663130B9
:10347800785F7370692E630061626F727428292CFB
:103488002065786974696E672E2E2E002C2066756B
:103498006E6374696F6E3A2000000000000000003F
:1034A800617373657274696F6E20222573222066BA
:1034B80061696C65643A2066696C6520222573220F
:1034C8002C206C696E65202564257325730A00001D
:1034D8006173736572745F706172616D282920660B
:1034E80061696C65643A2066696C652022257322DF
:1034F8002C206C696E652025640A0000000000001D
:103508000000005F00000007000700147F147F140C
:10351800242A7F2A12231308646236495522500050
:1035280005030000001C2241000041221C00082A5B
:103538001C2A0808083E080800503000000808083F
:103548000808003030000020100804023E514945A8
:103558003E00427F400042615149462141454B317E
:103568001814127F1027454545393C4A494930010E
:10357800710905033649494936064949291E003665
:1035880036000000563600000008142241141414B6
:1035980014144122140800020151090632497941E4
:1035A8003E7E1111117E7F494949363E41414122F3
:1035B8007F4141221C7F494949417F090901013E58
:1035C800414151327F0808087F00417F4100204077
:1035D800413F017F081422417F404040407F020460
:1035E800027F7F0408107F3E4141413E7F0909095F
:1035F800063E4151215E7F0919294646494949310C
:1036080001017F01013F4040403F1F2040201F7FB4
:103618002018207F6314081463030478040361519D
:1036280049454300007F4141020408102041417F81
:10363800000004020102044040404040000102042E
:103648000020545454787F48444438384444442033
:10365800384444487F3854545418087E09010208F5
:103668001454543C7F0804047800447D40002040F2
:10367800443D00007F10284400417F40007C04182E
:1036880004787C0804047838444444387C141414BE
:1036980008081414187C7C0804040848545454205E
:1036A800043F4440203C4040207C1C2040201C3CDF
:1036B8004030403C44281028440C5050503C44644E
:1036C800544C44000836410000007F000000413699
:1036D800080008082A1C08081C2A08082020205A64
:1036E8006164616E6965205049455257535A4520B7
:1036F800200000006F6B00002020205A6164616E7A
:1037080069652044525547494520202000000000A3
:103718005461736B310000005461736B3200000018
:103728002E2E2F6D795F696E697469616C697A658F
:103738002F696E697469616C697A652E630000008F
:0737480049444C4500430019
:1037500078563412980000200000000000A24A04AD
:103760000000000000000000010203040607080931
:10377000AAAAAAAAFFFFFFFF0000000000000000A5
:103780000000000000000000000000000000000039
:1037900000000000000000004D370008000000009D
:1037A0000000000000000000000000000000000019
:1037B0000000000000000000000000000000000009
:1037C00000000000000000000000000000000000F9
:1037D000000000000000000028000020325476980D
:040000050800010DE1
:00000001FF
