:020000040800F2
:1000000000500020850200088D02000895020008BB
:10001000B9020008C1020008E50200080000000063
:10002000000000000000000000000000DD210008CA
:100030001103000800000000DD2200082123000851
:1000400039030008390300083903000839030008A0
:100050003903000839030008390300083903000890
:100060003903000839030008390300083903000880
:100070003903000839030008390300083903000870
:100080003903000839030008390300083903000860
:100090003903000839030008390300083903000850
:1000A0003903000839030008390300083903000840
:1000B0003903000839030008390300083903000830
:1000C0003903000839030008390300083903000820
:1000D0003903000839030008390300083903000810
:1000E0003903000839030008390300080000000044
:1000F0000000000000000000000000000000000000
:1001000000000000000000005FF808F180B58EB02C
:1001100000AF01F033F9494B494A1A60494B484A4C
:100120001A60494B3B63494BFB62494BBB62FB6A1C
:100130007B6207E07B6A1A1D7A623A6B111D396394
:1001400012681A60BA6A7B6A9A42F3D83B4B1B6802
:10015000404A934204D13B4B1B683F4A934200D034
:10016000FEE73E4B364A1A603D4B354A1A603D4B1E
:100170003B623D4BFB613B6ABB6104E0BB691A1DFE
:10018000BA6100221A60FA69BB699A42F6D8334B09
:100190001B68002B03D1324B1B68002B00D0FEE7FD
:1001A00001F0F8F83A1D3B461046194601F0C6F832
:1001B0002E4A2F4BD31A9B107B6100233B6107E033
:1001C0002B4A3B6952F8233098473B6901333B6126
:1001D0007A693B699A42F3DC264A274BD31A9B1073
:1001E0007B6100233B6107E0234A3B6952F82330DF
:1001F00098473B6901333B617A693B699A42F3DC7A
:100200007A683B681046194601F004FD78631B4A82
:100210001B4BD31A9B10FB60FB68BB6008E0BB68FC
:10022000013B174A52F823309847BB68013BBB603B
:10023000BB68002BF3DC786B01F070F80000002045
:10024000BABADECA2C000020CC55000800000020FD
:100250003000002078563412325476983000002056
:10026000B847002030000020BC4700206803000889
:1002700068030008680300086803000868030008B2
:100280006803000880B500AFFFF740FF80B400AFFF
:1002900000BEFEE71EF0040F0CBFEFF30880EFF383
:1002A00009807146214A104780B483B000AF78605E
:1002B000396000BEFEE700BF80B400AF00BEFEE7BD
:1002C0001EF0040F0CBFEFF30880EFF309807146B6
:1002D000174A104780B483B000AF7860396000BE21
:1002E000FEE700BF1EF0040F0CBFEFF30880EFF332
:1002F000098071460F4A104780B483B000AF786020
:10030000396000BEFEE700BF80B400AF00BEFEE76C
:1003100080B400AF00BEFEE780B400AF00BEFEE7D1
:1003200080B400AFBD465DF8047B7047A9020008A9
:10033000D5020008F902000880B400AF00BEFEE755
:10034000CC5500080000002030000020CC550008EB
:10035000000000000000000030000020BC4700202A
:08036000000000000000000095
:1003680080B582B000AF786039607B68B3F1005F18
:1003780007D07B68B3F1006F03D00C48AA2100F0C6
:10038800EDFF3B680A4A934203D90848AB2100F0C5
:10039800E5FF08493B6823F0604323F07F037A6850
:1003A80013438B600837BD4680BD00BF4451000829
:1003B800FEFF0F0000ED00E080B584B000AF78606C
:1003C8000023FB607B68002B0AD07B68012B07D0D9
:1003D8007B68022B04D00B4840F2031100F0BEFFEB
:1003E800094B1B68FB60FB6803F03803FB60FA6885
:1003F8007B681343FB60044AFB6813601037BD46F3
:1004080080BD00BF6C5100080020024080B582B05A
:1004180000AF78607B68102B07D07B68002B04D076
:10042800094840F22F1100F099FF084A074B1B6852
:1004380023F0100313600549044B1A687B681343C3
:100448000B600837BD4680BD6C5100080020024093
:1004580080B588B000AF786039600023FB61002365
:100468003B610023BB610023FB6000237B61002309
:10047800BB607B68834A93421BD07B68824A934265
:1004880017D07B68814A934213D07B68804A934295
:100498000FD07B687F4A93420BD07B687E4A934299
:1004A80007D07B687D4A934203D07D48B22100F093
:1004B80055FF3B68DB78002B1FD03B68DB78042BAB
:1004C8001BD03B68DB78282B17D03B68DB78482BA0
:1004D80013D03B68DB78142B0FD03B68DB78102BEC
:1004E8000BD03B68DB781C2B07D03B68DB78182BDC
:1004F80003D06B48B32100F031FF3B681B88002B09
:1005080003D16748B42100F029FF3B68DB7803F08A
:100518000F03FB613B68DB7803F01003002B15D059
:100528003B689B78012B0BD03B689B78022B07D04C
:100538003B689B78032B03D05948BB2100F00EFF82
:100548003B689B781A46FB691343FB613B681B8831
:10055800DBB2002B44D07B681B687B610023BB6146
:1005680038E0BB69012202FA03F3FB603B681B8891
:100578001A46FB6813403B613A69FB689A4226D1E8
:10058800BB699B00FB60FB680F2202FA03F3BB60A8
:10059800BB68DB437A6913407B61FB68FA6902FA3E
:1005A80003F37A6913437B613B68DB78282B05D119
:1005B800BB6901229A407B685A6108E03B68DB7896
:1005C800482B04D1BB6901229A407B681A61BB6938
:1005D8000133BB61BB69072BC3D97B687A691A6091
:1005E8003B681B88FF2B4AD97B685B687B610023CB
:1005F800BB613EE0BB6908331A4601239340FB60A8
:100608003B681B881A46FB6813403B613A69FB68E4
:100618009A422BD1BB699B00FB60FB680F2202FA50
:1006280003F3BB60BB68DB437A6913407B61FB68FB
:10063800FA6902FA03F37A6913437B613B68DB7852
:10064800282B07D1BB6908331A46012303FA02F2A3
:100658007B685A613B68DB78482B07D1BB69083354
:100668001A46012303FA02F27B681A61BB69013357
:10067800BB61BB69072BBDD97B687A695A60203793
:10068800BD4680BD00080140000C0140001001403B
:100698000014014000180140001C014000200140E6
:1006A800A051000880B483B000AF78607B684FF633
:1006B800FF721A807B6802229A707B680422DA70C3
:1006C8000C37BD465DF8047B704700BF80B584B029
:1006D80000AF78600B467B800023FB737B68364A4B
:1006E80093421CD07B68354A934218D07B68344AC1
:1006F800934214D07B68334A934210D07B68324AC5
:1007080093420CD07B68314A934208D07B68304AC8
:10071800934204D02F484FF48F7100F01FFE7B885E
:10072800012B39D07B88022B36D07B88042B33D021
:100738007B88082B30D07B88102B2DD07B88202BF2
:100748002AD07B88402B27D07B88802B24D07B889D
:10075800B3F5807F20D07B88B3F5007F1CD07B88E1
:10076800B3F5806F18D07B88B3F5006F14D07B8801
:10077800B3F5805F10D07B88B3F5005F0CD07B8821
:10078800B3F5804F08D07B88B3F5004F04D01148EB
:1007980040F21F1100F0E2FD7B689A687B881340E5
:1007A800002B02D00123FB7301E00023FB73FB7BCA
:1007B80018461037BD4680BD00080140000C0140B6
:1007C800001001400014014000180140001C0140C5
:1007D80000200140A051000880B582B000AF7860C9
:1007E8007B68134A93421CD07B68124A934218D004
:1007F8007B68114A934214D07B68104A934210D008
:100808007B680F4A93420CD07B680E4A934208D00B
:100818007B680D4A934204D00C484FF49A7100F05B
:100828009DFD7B689B689BB218460837BD4680BD16
:1008380000080140000C0140001001400014014074
:1008480000180140001C014000200140A051000890
:1008580080B582B000AF78600B467B807B68174A12
:1008680093421CD07B68164A934218D07B68154A7D
:10087800934214D07B68144A934210D07B68134A81
:1008880093420CD07B68124A934208D07B68114A85
:10089800934204D0104840F2691100F05FFD7B8854
:1008A800002B04D10C484FF4B57100F057FD7A883D
:1008B8007B681A610837BD4680BD00BF000801404B
:1008C800000C0140001001400014014000180140D4
:1008D800001C014000200140A051000880B582B0F2
:1008E80000AF78600B467B807B68174A93421CD028
:1008F8007B68164A934218D07B68154A934214D0F5
:100908007B68144A934210D07B68134A93420CD0F8
:100918007B68124A934208D07B68114A934204D0FC
:10092800104840F2791100F019FD7B88002B04D1A2
:100938000C484FF4BD7100F011FD7A887B685A614C
:100948000837BD4680BD00BF00080140000C0140CB
:10095800001001400014014000180140001C014033
:1009680000200140A051000880B582B000AF786037
:100978000B467B807B68134A93421CD07B68124AE3
:10098800934218D07B68114A934214D07B68104A6E
:10099800934210D07B680F4A93420CD07B680E4A72
:1009A800934208D07B680D4A934204D00C484FF418
:1009B800D27100F0D3FC7A887B68DA600837BD46CC
:1009C80080BD00BF00080140000C0140001001403C
:1009D8000014014000180140001C014000200140A3
:1009E800A051000880B400AF134A134B1B6843F0B2
:1009F800010313601049104B5A68104B13404B60A9
:100A08000D4A0D4B1B6823F0847323F48033136065
:100A1800094A094B1B6823F480231360064A064BD6
:100A28005B6823F4FE035360034B4FF41F029A6084
:100A3800BD465DF8047B7047001002400000FFF8D7
:100A480080B582B000AF78607B68002B0CD07B68E3
:100A5800B3F5803F08D07B68B3F5802F04D01548E4
:100A680040F2111100F07AFC134A134B1B6823F46F
:100A780080331360104A104B1B6823F480231360E3
:100A88007B68B3F5803F03D0B3F5802F07D00DE026
:100A9800094A094B1B6843F48033136006E0064A91
:100AA800054B1B6843F4A023136000BF0837BD46FD
:100AB80080BD00BFD45100080010024080B582B04C
:100AC80000AF00233B600023FB710023BB71312082
:100AD80000F0BAF90346BB713B6801333B603B68E1
:100AE800B3F5A06F02D0BB79002BF0D0312000F015
:100AF800ABF90346002B02D00123FB7101E0002370
:100B0800FB71FB7918460837BD4680BD80B584B0B7
:100B180000AF786039600023FB607B68002B0CD045
:100B28007B68B3F5803F08D07B68B3F5403F04D0BD
:100B38002B4840F27F1100F011FC3B68002B3CD0A1
:100B48003B68B3F5802F38D03B68B3F5002F34D01D
:100B58003B68B3F5402F30D03B68B3F5801F2CD0ED
:100B68003B68B3F5A01F28D03B68B3F5C01F24D05D
:100B78003B68B3F5E01F20D03B68B3F5001F1CD0DD
:100B88003B68B3F5101F18D03B68B3F5201F14D08D
:100B98003B68B3F5301F10D03B68B3F5401F0CD04D
:100BA8003B68B3F5501F08D03B68B3F5601F04D00D
:100BB8000B484FF4C07100F0D1FB0A4B5B68FB6037
:100BC800FB6823F47C13FB607A683B681343FA687C
:100BD8001343FB60034AFB6853601037BD4680BD72
:100BE800D45100080010024080B582B000AF03461F
:100BF800FB71FB79002B07D0FB79012B04D005484A
:100C08004FF4CA7100F0AAFB034AFB791360083756
:100C1800BD4680BDD45100086000424280B584B012
:100C280000AF78600023FB607B68002B0AD07B68EC
:100C3800012B07D07B68022B04D00B484FF40E71B0
:100C480000F08CFB094B5B68FB60FB6823F0030337
:100C5800FB60FA687B681343FB60044AFB685360D7
:100C68001037BD4680BD00BFD451000800100240B7
:100C780080B400AF054B5B68DBB203F00C03DBB25A
:100C88001846BD465DF8047B704700BF001002405F
:100C980080B584B000AF78600023FB607B68002BD0
:100CA8001CD07B68802B19D07B68902B16D07B6872
:100CB800A02B13D07B68B02B10D07B68C02B0DD035
:100CC8007B68D02B0AD07B68E02B07D07B68F02BA1
:100CD80004D00B484FF4197100F040FB094B5B68D6
:100CE800FB60FB6823F0F003FB60FA687B68134342
:100CF800FB60044AFB6853601037BD4680BD00BFE7
:100D0800D45100080010024080B584B000AF78606C
:100D18000023FB607B68002B14D07B68B3F5806FE1
:100D280010D07B68B3F5A06F0CD07B68B3F5C06FAB
:100D380008D07B68B3F5E06F04D00B4840F27E2101
:100D480000F00CFB094B5B68FB60FB6823F4E06375
:100D5800FB60FA687B681343FB60044AFB685360D6
:100D68001037BD4680BD00BFD451000800100240B6
:100D780080B584B000AF78600023FB607B68002BEF
:100D880014D07B68B3F5806F10D07B68B3F5A06F83
:100D98000CD07B68B3F5C06F08D07B68B3F5E06F03
:100DA80004D00B484FF4267100F0D8FA094B5B6861
:100DB800FB60FB6823F46053FB607B68DB00FA6828
:100DC8001343FB60034AFB6853601037BD4680BD80
:100DD800D45100080010024080B582B000AF78609E
:100DE8000B46FB707A68154B1340002B02D17B68C9
:100DF800002B04D1124840F24A4100F0AFFAFB78C8
:100E0800002B07D0FB78012B04D00D4840F24B4152
:100E180000F0A4FAFB78002B06D00A49094B9A691E
:100E28007B6813438B6106E00649064B9A697B6829
:100E3800DB4313408B610837BD4680BD0200C0FF0D
:100E4800D45100080010024080B586B000AF0346B8
:100E5800FB710023FB6000237B610023FB74FB799B
:100E6800212B22D0FB79312B1FD0FB79392B1CD0B9
:100E7800FB79412B19D0FB79612B16D0FB797A2BA2
:100E880013D0FB797B2B10D0FB797C2B0DD0FB7911
:100E98007D2B0AD0FB797E2B07D0FB797F2B04D0E2
:100EA800174840F2345100F059FAFB795B09DBB27C
:100EB800FB60FB68012B03D1124B1B687B6109E0C7
:100EC800FB68022B03D10F4B1B6A7B6102E00D4BC1
:100ED8005B6A7B61FB7903F01F03FB60FB687A693F
:100EE80022FA03F303F00103002B02D00123FB7461
:100EF80001E00023FB74FB7C18461837BD4680BD13
:100F0800D45100080010024080B584B000AF78606A
:100F180039600023FB817B686B4A93420BD07B6866
:100F28006A4A934207D07B68694A934203D069486A
:100F3800A32100F013FA3B681B88002B12D03B68F2
:100F48001B88B3F5806F0DD03B681B88B3F5004F45
:100F580008D03B681B88B3F5404F03D05D48A621F5
:100F680000F0FCF93B685B88B3F5827F07D03B68EB
:100F78005B88002B03D05748A72100F0EFF93B68A6
:100F88009B88B3F5006F07D03B689B88002B03D084
:100F98005048A82100F0E2F93B68DB88002B07D015
:100FA8003B68DB88022B03D04A48A92100F0D6F918
:100FB8003B681B89002B07D03B681B89012B03D09A
:100FC8004448AA2100F0CAF93B685B89B3F5007F61
:100FD80007D03B685B89002B03D03E48AB2100F06B
:100FE800BDF93B689B89002B1FD03B689B89082B68
:100FF8001BD03B689B89102B17D03B689B89182B0B
:1010080013D03B689B89202B0FD03B689B89282BEA
:101018000BD03B689B89302B07D03B689B89382BCA
:1010280003D02C48AC2100F099F93B68DB89002BF0
:1010380007D03B68DB89802B03D02648AD2100F020
:101048008DF93B681B8A002B03D12248AE2100F0A2
:1010580085F97B681B88FB81FB8903F44153FB817D
:101068003B681A883B685B8813439AB23B689B8845
:1010780013439AB23B68DB8813439AB23B681B89D7
:1010880013439AB23B685B8913439AB23B689B89C6
:1010980013439AB23B68DB8913439AB2FB89134323
:1010A800FB817B68FA891A807B689B8B9BB223F44F
:1010B80000639AB27B689A833B681A8A7B681A82B3
:1010C8001037BD4680BD00BF0030014000380040E9
:1010D800003C00400452000880B582B000AF786040
:1010E8000B46FB707B68194A93420CD07B68184A00
:1010F800934208D07B68174A934204D0164840F2BE
:10110800B71100F02BF9FB78002B07D0FB78012BE7
:1011180004D011484FF4DC7100F020F9FB78002B63
:1011280008D07B681B889BB243F040039AB27B6867
:101138001A8007E07B681B889BB223F040039AB2B1
:101148007B681A800837BD4680BD00BF003001406B
:1011580000380040003C00400452000880B582B0CE
:1011680000AF78600B467B807B680B4A93420CD0BB
:101178007B680A4A934208D07B68094A934204D0A4
:10118800084840F23A2100F0E9F87B687A889A81A9
:101198000837BD4680BD00BF003001400038004020
:1011A800003C00400452000880B582B000AF78606F
:1011B8007B680B4A93420CD07B680A4A934208D05A
:1011C8007B68094A934204D0084840F24A2100F05B
:1011D800C5F87B689B899BB218460837BD4680BD19
:1011E8000030014000380040003C00400452000834
:1011F80080B582B000AF78600B46FB707B68194AF7
:1012080093420CD07B68184A934208D07B68174AEF
:10121800934204D016484FF41D7100F09FF8FB78F4
:10122800002B07D0FB78012B04D0114840F2752120
:1012380000F094F8FB78002B08D07B689B889BB261
:1012480043F004039AB27B689A8007E07B689B8826
:101258009BB223F004039AB27B689A800837BD4694
:1012680080BD00BF0030014000380040003C004015
:101278000452000880B584B000AF78600B467B80CC
:101288000023FB737B681F4A93420CD07B681E4A7D
:10129800934208D07B681D4A934204D01C4840F210
:1012A800163100F05BF87B88802B19D07B88402BA7
:1012B80016D07B88202B13D07B88102B10D07B88EE
:1012C800082B0DD07B88042B0AD07B88022B07D0F3
:1012D8007B88012B04D00E4840F2173100F03EF80D
:1012E8007B681B899AB27B8813409BB2002B02D083
:1012F8000123FB7301E00023FB73FB7B18461037C7
:10130800BD4680BD0030014000380040003C004030
:101318000452000880B483B000AF7860FEE700BFD5
:1013280080B582B000AF024B7B600120FFF7F2FF6F
:101338003452000880B483B000AF786039607B68AD
:1013480001221A603B68044A1A6000BF0C37BD4688
:101358005DF8047B704700BF0400002080B584B0AE
:1013680000AF78603960024BFB60FFF7D9FF00BF20
:101378008C52000880B500AF00F00EF8014B024A0D
:101388009A6080BD00ED00E00000000880B500AF65
:1013980000F036F880BD00BF80B500AF154A154B88
:1013A8001B6843F0010313601249124B5A68124B31
:1013B80013404B600F4A0F4B1B6823F0847323F4D0
:1013C800803313600B4A0B4B1B6823F48023136094
:1013D800084A084B5B6823F4FE035360054B4FF43F
:1013E8001F029A6000F07AF8044B4FF000629A608E
:1013F80080BD00BF001002400000FFF800ED00E0D3
:1014080080B485B000AF0023FB600023BB600023DD
:101418007B602D4B5B6803F00C03FB60FB68042BBF
:1014280007D0082B09D0002B34D1284B284A1A6042
:1014380034E0264B264A1A6030E0234B5B6803F4FD
:101448007013BB60204B5B6803F480337B60BB6820
:101458009B0C0233BB607B68002B06D1BB681D4A1E
:1014680002FB03F3194A136013E0174B5B6803F49C
:101478000033002B06D0BB68164A02FB03F3134A5D
:10148800136006E0BB68124A02FB03F30F4A1360BD
:1014980004E003E00D4B0E4A1A6000BF0A4B5B687C
:1014A80003F0F0031B090C4AD35CDBB2FB60074B6B
:1014B8001A68FB6822FA03F3044A13601437BD461E
:1014C8005DF8047B704700BF001002400C0000204C
:1014D80000127A0000093D001000002080B500AF1E
:1014E80000F002F880BD00BF80B483B000AF0023D5
:1014F8007B6000233B603A4A394B1B6843F48033D6
:101508001360374B1B6803F400333B607B6801337F
:101518007B603B68002B03D17B68B3F5A06FF0D1EB
:101528002F4B1B6803F40033002B02D001233B60D0
:1015380001E000233B603B68012B4BD1294A294B32
:101548001B6843F010031360264A264B1B6823F0E0
:1015580003031360234A234B1B6843F00203136001
:101568001F4A1F4B5B6853601D4A1D4B5B685360E5
:101578001B4A1B4B5B6843F480635360184A184B43
:101588005B6823F47C135360154A154B5B6843F47E
:10159800E8135360124A124B1B6843F080731360C0
:1015A80000BF0F4B1B6803F00073002BF9D00C4AE7
:1015B8000B4B5B6823F003035360094A084B5B68D5
:1015C80043F00203536000BF054B5B6803F00C0354
:1015D800082BF9D10C37BD465DF8047B704700BF76
:1015E800001002400020024080B400AF00BF00BFDE
:1015F80000BF00BF00BF00BF00BF00BF00BF00BFEB
:1016080000BF00BF00BF00BF00BF00BFBD465DF800
:10161800047B704780B582B000AF0346FB71FB794D
:10162800012B09D0022B0DD0002B11D10A484FF401
:101638000061FFF753F90BE007484FF48051FFF7BB
:101648004DF905E004484FF40051FFF747F900BF92
:101658000837BD4680BD00BF0010014080B582B08C
:1016680000AF0346FB71FB79012B09D0022B0DD08B
:10167800002B11D10A484FF40061FFF7E9F80BE09D
:1016880007484FF48051FFF7E3F805E004484FF4AA
:101698000051FFF7DDF800BF0837BD4680BD00BF29
:1016A8000010014080B584B000AF0346FB711B48B1
:1016B800FEF7F8FF194BFF221A80184B4822DA7000
:1016C80017481649FEF7C4FE15484FF40071FFF796
:1016D800BFF813484FF48071FFF700F9FB791846FB
:1016E800FFF798FFFFF780FF0D484FF48061FFF781
:1016F800AFF8FFF779FF0A48FFF76EF80346FB7368
:1017080007484FF48061FFF7E9F8FB791846FFF7BF
:10171800A5FFFB7B18461037BD4680BD380000206A
:101728000010014080B582B000AF03460A46FB7145
:101738001346BB7100BFBB791846FFF7B3FF0346DA
:10174800DBB25BB2002BF6DB1F48FEF7ABFF1E4B8C
:10175800FF221A801C4B1022DA701C481A49FEF727
:1017680077FE1A484FF44071FFF7B8F8FFF73CFFCF
:10177800BB791846FFF74EFFFFF736FFFB799BB2A0
:1017880012481946FFF764F8FB79DB43FB71FB79D4
:101798009BB20E481946FFF7A1F8FFF725FF0B4843
:1017A8004FF48061FFF754F8FFF71EFF07484FF426
:1017B8008061FFF793F8FFF717FFBB791846FFF72B
:1017C8004DFF0837BD4680BD38000020001001409D
:1017D80080B582B000AF0346FB7100BF2B4B1B786E
:1017E8009B09DBB21846FFF75DFF0346DBB25BB22D
:1017F800002BF3DB2648FEF755FF254BFF221A8006
:10180800234B1022DA7023482149FEF721FE214894
:101818004FF40071FFF762F8FFF7E6FE1D484FF43A
:101828008071FFF715F8FFF7DFFE1A49FB79DB43F4
:10183800DBB21A04FB7913430B61FFF7D5FE134B98
:101848001B789B09DBB21846FFF7E4FEFFF7CCFED6
:1018580010484FF48061FEF7FBFFFFF7C5FE0D4807
:101868004FF48061FFF73AF8FFF7BEFE074B1B788D
:101878009B09DBB21846FFF7F1FE044B1B780133D6
:10188800DAB2024B1A700837BD4680BD3C00002012
:10189800380000200010014080B500AF1020012161
:1018A800FFF79AFA0B48FEF7FDFE0A4B4FF6FF7258
:1018B8001A80084B02229A70064B1022DA700648EA
:1018C8000449FEF7C5FD044841F6FF71FFF74CF8DF
:1018D80080BD00BF380000200010014080B483B0F4
:1018E80000AF78607B681B78DBB218460C37BD46C2
:1018F8005DF8047B704700BF80B582B000AFFFF78A
:10190800CBFF0023FB7107E0FB793F201946FFF767
:1019180009FFFB790133FB71FB79012BF4D90837F7
:10192800BD4680BD80B584B000AF03460A46FB7152
:101938001346BB711E4AFB7913701E4ABB7913709C
:101948000023FB7315E0FB7B40201946FFF7EAFEF6
:10195800BB7963F04703DAB2FB7B10461946FFF701
:10196800E1FEFB7BC0201946FFF7DCFEFB7B013361
:10197800FB73FB7B012BE6D9FB7903F03F03DBB25A
:1019880043F04003DAB2FB799B09DBB210461946F3
:10199800FFF7C8FEBB7963F04703DAB2FB799B090E
:1019A800DBB210461946FFF7BDFE1037BD4680BDB5
:1019B8003C0000203D00002080B582B000AF00232D
:1019C800BB7114E0BB7900201946FFF7ABFF002379
:1019D800FB7105E00020FFF7FBFEFB790133FB718B
:1019E800FB795BB2002BF5DABB790133BB71BB79AC
:1019F800072BE7D90837BD4680BD00BF80B584B046
:101A080000AF0346FB71FB79203BDBB2FB7100237F
:101A1800FB7316E097F9072013469B0013441A46F8
:101A280097F90F3013440C4A13441846FFF756FF32
:101A380003461846FFF7CCFEFB7BDBB20133DBB273
:101A4800FB7397F90F30042BE4DD0020FFF7C0FE8D
:101A58001037BD4680BD00BFB852000880B582B0BF
:101A680000AF786007E07B685A1C7A601B785BB22D
:101A78001846FFF7C3FF7B681B78002BF3D10837A4
:101A8800BD4680BD80B584B000AF7860FFF734FFF5
:101A9800FFF792FF00F002F901F0B2F80346FB608D
:101AA800124B1B68184600210422002300F02EFD6B
:101AB8000346012B19D100200021FFF733FF0C4802
:101AC800FFF7CCFF02200221FFF72CFF074B1B6812
:101AD800184600210022002300F086FC07F10C03C1
:101AE80018464FF47A7100F077FFD9E7B447002021
:101AF8009854000880B584B000AF786001F080F891
:101B08000346BB601D4B1B681846002103220023B7
:101B180000F0FCFC0346012B2ED100200021FFF72A
:101B280001FF1748FFF79AFF1648174902F0D4FE3D
:101B38000123FB601348154902F034FFFB68DBB250
:101B480002201946FFF7EEFE1148FFF787FFFB68F2
:101B58000133FB60FB68042BECDD084B1B6818465F
:101B680000210022002300F03FFC07F1080318467B
:101B78004FF4FA6100F030FFC4E700BFB44700201B
:101B8800B054000840000020C85400085C00002041
:101B98006500002080B582B000AFFFF7ADFEFFF70B
:101BA8000BFF01F02DF803467B60164B1B681846A7
:101BB80000210A22002300F0A9FC0346012B20D1B2
:101BC80011484FF40071FEF781FD0346002B05D044
:101BD8000D484FF48071FEF781FE04E00A484FF487
:101BE8008071FEF735FE074B1B681846002100225E
:101BF800002300F0F9FB3B1D18464FF4967100F0E6
:101C0800EBFED2E7B4470020000C014080B584B059
:101C180004AF00F091F802230093002301930023FE
:101C28000293002303931648164940F2DC5200231E
:101C380000F032FE01230093002301930023029356
:101C4800002303931048114940F2DC52002300F0AE
:101C580023FE032300930023019300230293002310
:101C680003930B480B49C822002300F015FE0120FE
:101C780000F078FB0246084B1A6000F009FFFEE707
:101C88008D1A0008CC540008FD1A0008D454000826
:101C98009D1B0008DC540008B447002080B582B0C2
:101CA80000AF00200C4902F0EDFD0346FB71FB7903
:101CB800002B07D100200021FFF734FE0748FFF76B
:101CC800CDFE06E000200021FFF72CFE0448FFF7B8
:101CD800C5FE0837BD4680BD74000020EC540008DE
:101CE8000055000880B483B000AF03463960FB712B
:101CF80097F90730002B0BDA0D49FB7903F00F0336
:101D0800043B3A68D2B21201D2B20B441A7609E007
:101D1800084997F907303A68D2B21201D2B20B4497
:101D280083F800230C37BD465DF8047B704700BF7D
:101D380000ED00E000E100E080B500AF00F05AF8E7
:101D480000F006F800F0A2F800F0A8F880BD00BF87
:101D580080B582B000AF4FF6FF73BB800323BB7121
:101D68001023FB713B1D20481946FEF771FB4FF409
:101D78007D43BB800323BB711023FB713B1D1B48B4
:101D88001946FEF765FB4FF40073BB800323BB7154
:101D98004823FB713B1D15481946FEF759FB3023B4
:101DA800BB801023FB710323BB713B1D10481946F0
:101DB800FEF74EFBE023BB801823FB710323BB71A6
:101DC8003B1D0B481946FEF743FB4FF48073BB805D
:101DD8000423FB710323BB713B1D05481946FEF71D
:101DE80037FB0837BD4680BD00100140000C01409C
:101DF8000008014080B582B000AFFEF7F3FD4FF454
:101E08008030FEF71DFEFEF759FE0346FB71FB7995
:101E1800012B35D11020FEF7F9FA0220FEF7CCFA93
:101E28000020FEF735FF0020FEF7A2FF4FF4806088
:101E3800FEF76AFF4FF480304FF4E011FEF766FEBC
:101E48000120FEF7D1FE00BF3920FEF7FDFF034653
:101E5800002BF9D00220FEF7E1FE00BFFEF708FFD5
:101E68000346082BFAD10420074900F041F83C202A
:101E78000121FEF7B1FF4FF480500121FEF7ACFFBE
:101E88000837BD4680BD00BF80FC0A0080B500AFA2
:101E98004FF000600021FEF763FA80BD80B586B080
:101EA80000AF0023BB804FF48273FB8000233B818B
:101EB80002237B810123BB814FF40073FB8108233C
:101EC8003B8200237B820723BB823B1D07481946C0
:101ED800FFF71AF805480121FFF78AF9034801219D
:101EE800FFF7FAF81837BD4680BD00BF0030014043
:101EF80080B584B000AF786039607B68042B07D068
:101F08007B6813F1050F03D016488D21FFF726FAD9
:101F18003B68B3F1807F01D301231FE0124A3B687D
:101F280023F07F43013B53604FF0FF300021FFF760
:101F3800D9FE0D4B00229A600323FB607B68042BBB
:101F480004D1FB6843F00403FB6003E0FB6823F063
:101F58000403FB60044AFB6813600023184610372B
:101F6800BD4680BD1455000810E000E080B584B07F
:101F780000AF78600023FB607B6803F00703002B49
:101F880004D07B6823F0070308337B6000F0AAFDC8
:101F9800164B1B68002B05D1154B23F007031A4677
:101FA800124B1A60134B1A687B68134444F2F732D9
:101FB800934213D80F4B1A687B681A440D4B1B6861
:101FC8009A420BD9094B1A680A4B1B681344FB60E9
:101FD800084B1A687B681344064A136000F090FDAA
:101FE800FB6818461037BD4680BD00BFA8460020D4
:101FF800AC020020A446002080B483B000AF786013
:102008000C37BD465DF8047B704700BF80B483B0D1
:1020180000AF78607B6803F108027B685A607B68D0
:102028004FF0FF329A607B6803F108027B68DA6040
:102038007B6803F108027B681A617B6800221A60DA
:102048000C37BD465DF8047B704700BF80B483B091
:1020580000AF78607B6800221A610C37BD465DF8D6
:10206800047B704780B485B000AF786039607B68C6
:102078005B68FB603B68FA685A60FB689A683B6873
:102088009A60FB689B683A685A60FB683A689A608D
:102098003B687A681A617B681B685A1C7B681A60FF
:1020A8001437BD465DF8047B704700BF80B485B027
:1020B80000AF786039603B681B68BB60BB68B3F1F0
:1020C800FF3F03D17B681B69FB600CE07B6808332A
:1020D800FB6002E0FB685B68FB60FB685B681A6892
:1020E800BB689A42F6D9FB685A683B685A603B68F5
:1020F8005B683A689A603B68FA689A60FB683A6875
:102108005A603B687A681A617B681B685A1C7B684E
:102118001A601437BD465DF8047B704780B485B0FB
:1021280000AF78607B681B69FB607B685B687A68D6
:1021380092689A607B689B687A6852685A60FB6804
:102148005A687B689A4203D17B689A68FB685A6030
:102158007B6800221A61FB681B685A1EFB681A60BC
:10216800FB681B6818461437BD465DF8047B70474A
:1021780080B485B000AFF860B9607A60FB68043B52
:10218800FB60FB684FF080721A60FB68043BFB60E1
:10219800BA68FB681A60FB68043BFB60094AFB6885
:1021A8001A60FB68143BFB607A68FB681A60FB687E
:1021B800203BFB60FB6818461437BD465DF8047B7E
:1021C800704700BFD121000880B500AF00F074F857
:1021D800FEE700BF074B19680868B0E8F00F80F306
:1021E8000988BFF36F8F4FF0000080F311884EF01D
:1021F8000D0E7047AC46002006480068006880F362
:10220800088862B661B6BFF34F8FBFF36F8F00DFE8
:1022180000BF000008ED00E080B500AF0B4A0B4B93
:102228001B6843F47F031360084A084B1B6843F09C
:102238007F43136000F084F8054B00221A60FFF713
:10224800DBFFFFF7C1FF0023184680BD20ED00E04B
:102258002000002080B400AF054B4FF080521A6078
:10226800BFF34F8FBFF36F8FBD465DF8047B704798
:1022780004ED00E080B500AF00F01EF8044B1B68C9
:102288000133034A1360BFF34F8FBFF36F8F80BDD5
:102298002000002080B500AF064B1B68013B054AB3
:1022A8001360044B1B68002B02D1002000F00EF8CD
:1022B80080BD00BF20000020EFF311804FF0BF0168
:1022C80081F3118870470023184600BF80F31188F6
:1022D800704700BFEFF30980BFF36F8F0D4B1A688B
:1022E80020E9F00F10602DE908404FF0BF0080F39F
:1022F800118800F045FD4FF0000080F31188BDE81B
:10230800084019680868B0E8F00F80F30988BFF33F
:102318006F8F7047AC46002080B500AFFFF7CCFF49
:1023280000F07EFC0346002B03D0044B4FF0805294
:102338001A600020FFF7CAFF80BD00BF04ED00E06F
:1023480080B400AF044B054A1A60054B07221A6097
:10235800BD465DF8047B704714E000E03F190100BA
:1023680010E000E080B584B000AF0346FB71542054
:10237800FFF7FCFDF860FB68002B30D0FB680022FB
:102388005A60FB6800221A60FB6800229A60FB68AA
:102398000022DA60FB6800229A63FB680122DA6394
:1023A800FB6800221A64FB684FF0FF325A64FB682E
:1023B8004FF0FF329A64FB68FA7983F85020FB6883
:1023C80010331846FFF722FEFB6824331846FFF740
:1023D8001DFEF86800210022002300F005F8FB68C4
:1023E80018461037BD4680BD80B58AB000AFF8608A
:1023F800B9607A603B6000237B62FB683B62FFF751
:1024080039FF3B6A9A6B3B6ADB6B9A4202D33B68A3
:10241800022B1DD1386AB9683A6800F02FF9F861C3
:102428003B6A5B6A002B0AD03B6A2433184600F0EB
:102438002DFD0346012B07D1FFF70CFF04E0FB69D4
:10244800002B01D0FFF706FFFFF724FF012359E017
:102458007B68002B03D1FFF71DFF002352E07B6A46
:10246800002B06D107F11403184600F065FD01237F
:102478007B62FFF70FFF00F035FBFFF7FBFE3B6ABF
:102488005B6CB3F1FF3F02D13B6A00225A643B6A9E
:102498009B6CB3F1FF3F02D13B6A00229A64FFF7BD
:1024A800F9FE07F114023B1D1046194600F05AFDCB
:1024B8000346002B1ED1386A00F0D6F90346002BDC
:1024C80012D03B6A03F110027B681046194600F0EF
:1024D8009DFC386A00F066F900F012FB0346002BF9
:1024E8000FD1FFF7B7FE0CE0386A00F05BF900F097
:1024F80007FB84E7386A00F055F900F001FB002378
:1025080000E07CE718462837BD4680BD80B58AB014
:1025180000AFF860B9607A603B6000237B62FB68BB
:102528003B62FFF7A7FE3B6A9B6B002B3BD03B6AE5
:10253800DB68FB61386AB96800F00EF93B68002B6C
:102548001CD13B6A9B6B5A1E3B6A9A633B6A1B68A9
:10255800002B04D100F0B0FF02463B6A5A603B6A88
:102568001B69002B1BD03B6A1033184600F08EFC09
:102578000346012B13D1FFF76DFE10E03B6AFA69A1
:10258800DA603B6A5B6A002B09D03B6A2433184641
:1025980000F07CFC0346002B01D0FFF75BFEFFF741
:1025A80079FE012366E07B68002B03D1FFF772FEFA
:1025B80000235FE07B6A002B06D107F1140318465D
:1025C80000F0BAFC01237B62FFF764FE00F08AFA90
:1025D800FFF750FE3B6A5B6CB3F1FF3F02D13B6AE9
:1025E80000225A643B6A9B6CB3F1FF3F02D13B6AFD
:1025F80000229A64FFF74EFE07F114023B1D1046B5
:10260800194600F0AFFC0346002B2BD1386A00F0C6
:1026180015F90346002B1FD03B6A1B68002B08D115
:10262800FFF728FE3B6A5B68184600F067FEFFF775
:1026380031FE3B6A03F124027B681046194600F01C
:10264800E5FB386A00F0AEF800F05AFA0346002BB2
:102658000FD1FFF7FFFD0CE0386A00F0A3F800F097
:102668004FFA5EE7386A00F09DF800F049FA002357
:1026780000E056E718462837BD4680BD80B586B0CD
:1026880000AFF860B9607A6000237B61FB681B6C5F
:10269800002B0DD1FB681B68002B52D1FB685B68CF
:1026A800184600F0A3FE7861FB6800225A6048E0F3
:1026B8007B68002B1AD1FB689A68FB681B6C104674
:1026C800B9681A4602F026FDFB689A68FB681B6C1D
:1026D8001A44FB689A60FB689A68FB685B689A42D0
:1026E8002FD3FB681A68FB689A602AE0FB68DA68EF
:1026F800FB681B6C1046B9681A4602F00BFDFB68B4
:10270800DA68FB681B6C5B421A44FB68DA60FB689A
:10271800DA68FB681B689A4207D2FB685A68FB684C
:102728001B6C5B421A44FB68DA607B68022B08D199
:10273800FB689B6B002B04D0FB689B6B5A1EFB68E5
:102748009A63FB689B6B5A1CFB689A637B69184603
:102758001837BD4680BD00BF80B582B000AF786035
:1027680039607B681B6C002B19D07B68DA687B6842
:102778001B6C1A447B68DA607B68DA687B685B6884
:102788009A4203D37B681A687B68DA607B68DA68E8
:102798007B681B6C386811461A4602F0BBFC083788
:1027A800BD4680BD80B582B000AF7860FFF762FD9E
:1027B80014E07B685B6A002B0AD07B6824331846D8
:1027C80000F064FB0346002B03D000F00FFC00E090
:1027D80008E07B689B6C5A1E7B689A647B689B6CDC
:1027E800002BE6DC7B684FF0FF329A64FFF752FD5E
:1027F800FFF740FD14E07B681B69002B0FD07B6856
:102808001033184600F042FB0346002B01D000F0BD
:10281800EDFB7B685B6C5A1E7B685A6400E003E042
:102828007B685B6C002BE6DC7B684FF0FF325A64F8
:10283800FFF730FD0837BD4680BD00BF80B584B0C6
:1028480000AF7860FFF716FD7B689B6B002B02D109
:102858000123FB6001E00023FB60FFF71BFDFB6821
:1028680018461037BD4680BD80B584B000AF78608B
:10287800FFF700FD7B689A6B7B68DB6B9A4202D19D
:102888000123FB6001E00023FB60FFF703FDFB6809
:1028980018461037BD4680BD80B58AB002AFF860D3
:1028A800B9603B601346FB80FB881846396B00F023
:1028B800B9FCB861BB69002B6BD0BB691A6BFB888C
:1028C80003F18043013B9B0013447B617B6923F048
:1028D80007037B61FB880093B869B968BA6A7B6BA8
:1028E80000F0A0FB7869F9683A68FFF741FC0246F6
:1028F800BB691A60FB6A002B02D0FB6ABA691A60CE
:10290800FFF7B8FC2E4B1B6801332D4A13602D4B83
:102918001B68002B09D12B4ABB691360284B1B6825
:10292800012B0FD100F0D0FB0CE0274B1B68002BCC
:1029380008D1244B1B68DA6ABB6A9A4202D8214A3A
:10294800BB691360214B1B680133204A13601F4B7E
:102958001A68BB695A64BB69DB6A1A46012303FA21
:1029680002F21B4B1B681343194A1360BB69DA6AEE
:1029780013469B0013449B00164A1A44BB69043350
:1029880010461946FFF76EFB0123FB61FFF782FC37
:1029980002E04FF0FF33FB61FB69012B0BD10A4BBF
:1029A8001B68002B07D0074B1B68DA6ABB6A9A4280
:1029B80001D2FFF74FFCFB6918462037BD4680BDA2
:1029C80084470020AC46002090470020A047002004
:1029D8008C470020B046002080B586B000AF7860F4
:1029E800396000237B6100F07DF8264B1B683B6152
:1029F8007B681A683B681344FB607B681A683B690C
:102A08009A420BD97B681A68FB689A4211D9FA680E
:102A18003B699A420DD901237B610AE07B681A68F9
:102A2800FB689A4203D8FA683B699A4201D90123A4
:102A38007B617B68FA681A607B69002B17D0124BA0
:102A48001B6804331846FFF769FB0346002B0BD1BC
:102A58000D4B1B68DB6A1A4601239340DA430B4B84
:102A68001B681340094A1360F86800F0A5FB00F0E2
:102A780047F8B860BB68002B01D1FFF7EBFB1837AC
:102A8800BD4680BD88470020AC4600208C4700200A
:102A980080B586B004AF0023009300230193002380
:102AA8000293002303930B480B4978220023FFF776
:102AB800F3FE78607B68012B09D1FFF7FDFB074B1C
:102AC80001221A60064B00221A60FFF7A5FB08379F
:102AD800BD4680BD0D3000083455000890470020E1
:102AE8008847002080B400AF044B1B680133034AB9
:102AF8001360BD465DF8047B704700BFA447002003
:102B080080B582B000AF00237B60FFF7B3FB344B86
:102B18001B68013B324A1360314B1B68002B57D1AD
:102B2800304B1B68002B53D030E02F4BDB68DB6841
:102B38003B603B6818331846FFF7F0FA3B680433EC
:102B48001846FFF7EBFA3B68DB6A1A46012303FADB
:102B580002F2264B1B681343244A13603B68DA6A67
:102B680013469B0013449B00214A1A443B680433D4
:102B780010461946FFF776FA3B68DA6A1D4B1B6860
:102B8800DB6A9A4202D31C4B01221A60164B1B685F
:102B9800002BCAD1194B1B68002B11D00CE000F098
:102BA8003FF80346002B02D0134B01221A60134B47
:102BB8001B68013B114A1360104B1B68002BEED1B8
:102BC8000D4B1B68012B03D101237B60FFF742FBF0
:102BD800FFF760FB7B6818460837BD4680BD00BF1D
:102BE800A447002084470020444700208C47002049
:102BF800B0460020AC4600209847002094470020AB
:102C080080B483B000AF054B1B687B607B681846B7
:102C18000C37BD465DF8047B704700BF884700202D
:102C280080B586B000AF00237B614A4B1B68002B40
:102C38007FD1494B1B680133474A1360464B1B68D9
:102C48003B613B69002B10D1444B1B68FB60444B34
:102C58001B68424A1360424AFB681360414B1B6879
:102C68000133404A136000F025FB3F4B1B683A696B
:102C78009A424FD3394B1B681B68002B01D10123A3
:102C880000E00023002B04D0374B4FF0FF321A60CE
:102C980040E0324B1B68DB68DB68BB60BB685B6885
:102CA8007B603A697B689A4203D22F4A7B6813603B
:102CB80030E0BB6804331846FFF730FABB689B6AFC
:102CC800002B04D0BB6818331846FFF727FABB68F7
:102CD800DB6A1A46012303FA02F2244B1B681343EA
:102CE800224A1360BB68DA6A13469B0013449B00B0
:102CF8001F4A1A44BB68043310461946FFF7B2F955
:102D0800BB68DA6A1B4B1B68DB6A9A4201D3012352
:102D18007B61AFE7174B1B68DA6A154913469B00BE
:102D280013449B000B441B68012B07D901237B61CB
:102D380004E0114B1B6801330F4A13600F4B1B68EB
:102D4800002B01D001237B617B6918461837BD46EB
:102D580080BD00BFA4470020884700203C470020D2
:102D6800404700209C470020240000208C4700207A
:102D7800B0460020AC460020944700209847002029
:102D880080B485B000AF1C4B1B68002B03D01B4BD5
:102D980001221A602AE0194B00221A60184B1B689E
:102DA8007B607B68B3FA83F3FB70FB78C3F11F0386
:102DB800FB60FA6813469B0013449B00114A1344B6
:102DC800BB60BB685B685A68BB685A60BB685A6876
:102DD800BB6808339A4204D1BB685B685A68BB6811
:102DE8005A60BB685B68DB68074A13601437BD46E6
:102DF8005DF8047B704700BFA44700209847002077
:102E08008C470020B0460020AC46002080B584B036
:102E180000AF78603960194B1B6818337868194619
:102E2800FFF744F9154B1B6804331846FFF776F98A
:102E38000346002B0BD1114B1B68DB6A1A46012392
:102E48009340DA430E4B1B6813400D4A13603B68EE
:102E5800B3F1FF3F07D1094B1B68043309481946F2
:102E6800FFF700F907E0084B1A683B681344FB605A
:102E7800F86800F0A1F91037BD4680BDAC460020C7
:102E88008C470020704700208847002080B584B018
:102E980000AF78607B68DB68DB68BB60BB681833B1
:102EA8001846FFF73BF91E4B1B68002B1ED1BB6869
:102EB80004331846FFF732F9BB68DB6A1A46012368
:102EC80003FA02F2174B1B681343164A1360BB68D8
:102ED800DA6A13469B0013449B00134A1A44BB68E2
:102EE800043310461946FFF7BDF805E0BB681833F0
:102EF8000E481946FFF7B6F8BB68DA6A0C4B1B6830
:102F0800DB6A9A4205D90123FB600A4B01221A6049
:102F180001E00023FB60FB6818461037BD4680BD02
:102F2800A44700208C470020B046002044470020DA
:102F3800AC4600209847002080B483B000AF78608A
:102F4800064B1A687B681A60054B1A687B685A60DA
:102F58000C37BD465DF8047B704700BF9C470020D6
:102F68008847002080B584B000AF78603960FFF7EB
:102F780081F91C4B1B68BB603B681B68B3F1FF3FC2
:102F880002D10023FB6026E07B681A68164B1B6899
:102F98009A4207D07B685A68BB689A4202D80123D4
:102FA800FB6018E07B685B68BA68D21A3B681B68EC
:102FB8009A420ED23B681A687B685968BB68CB1A7C
:102FC8001A443B681A607868FFF7B6FF0023FB6075
:102FD80001E00123FB60FFF75DF9FB681846103735
:102FE800BD4680BD884700209C47002080B400AFC4
:102FF800034B01221A60BD465DF8047B704700BF91
:103008009847002080B582B000AF786000F09AF849
:10301800034B1B68012B01D9FFF71CF9F6E700BF2A
:10302800B046002080B586B000AFF860B9607A601D
:103038003B6000237B6113E0BA687B69134419780D
:10304800FA687B69134430330A461A71BA687B6997
:1030580013441B78002B00D105E07B6901337B61A9
:103068007B690F2BE8D9FB68002283F843207B6833
:10307800042B01D904237B60FB687A68DA62FB6859
:103088007A68DA64FB6800221A65FB68043318461C
:10309800FEF7DCFFFB6818331846FEF7D7FFFB681E
:1030A800FA681A617B68C3F10502FB689A61FB68DC
:1030B800FA685A62FB6800225A65FB68002283F8A6
:1030C80058201837BD4680BD80B582B000AF0023B8
:1030D8007B600CE07A6813469B0013449B00114AFE
:1030E80013441846FEF792FF7B6801337B607B68C8
:1030F800042BEFD90C48FEF789FF0C48FEF786FF32
:103108000B48FEF783FF0B48FEF780FF0A48FEF7DF
:103118007DFF0A4B044A1A60094B044A1A600837B3
:10312800BD4680BDB0460020144700202847002037
:103138004447002058470020704700203C470020A3
:103148004047002080B582B000AF28E0FFF7CAFCF6
:10315800164B1B68002B0CBF01230023DBB27B60DE
:10316800FFF7CEFC7B68002B19D1FFF783F80F4BD4
:10317800DB68DB683B603B6804331846FEF7CEFF2C
:103188000B4B1B68013B0A4A13600A4B1B68013B47
:10319800084A1360FFF77EF8386800F07BF8054BA3
:1031A8001B68002BD2D10837BD4680BD5847002088
:1031B800844700206C47002080B582B000AF78605B
:1031C800134B1B687A685A60124B1B687A689A42DC
:1031D80009D2114B1A680E4B1B6804331046194666
:1031E800FEF764FF10E00D4B1A68094B1B680433A7
:1031F80010461946FEF75AFF094B1B687A689A422F
:1032080002D2074A7B6813600837BD4680BD00BFFD
:10321800AC46002088470020404700203C4700205B
:103228002400002080B584B000AF03463960FB80DD
:103238003B68002B06D1FB889B001846FEF796FEDC
:10324800034600E03B68BB60BB68002B0ED05C20E7
:10325800FEF78CFEF860FB68002B03D0FB68BA68A9
:103268001A6305E0B868FEF7C7FE01E00023FB60BB
:10327800FB68002B08D0FB681A6BFB889B00104684
:10328800A5211A4601F051FFFB6818461037BD46C4
:1032980080BD00BF80B582B000AF78607B681B6BD3
:1032A8001846FEF7A9FE7868FEF7A6FE0837BD4661
:1032B80080BD00BF80B483B000AF0E4B1B681B6895
:1032C800002B01D1012300E00023002B04D00A4B7E
:1032D8004FF0FF321A6008E0064B1B68DB68DB68BA
:1032E8007B607B685B68044A13600C37BD465DF8F9
:1032F800047B70473C4700202400002080B584B040
:1033080000AF78607B68FB607B68002B64D0FB684B
:10331800DA6A334B1B68DB6A9A425DD2FB689B69A9
:10332800002B06DB2E4B1B68DB6AC3F10502FB682A
:103338009A61FB685969FB68DA6A13469B00134473
:103348009B00284A1344994201D1012300E000233D
:10335800002B3CD0FB6804331846FEF7DFFE03461B
:10336800002B15D1FB68DA6A1E4913469B001344EB
:103378009B000B441B68002B0AD1FB68DB6A1A46CA
:1033880001239340DA43184B1B681340164A136015
:10339800134B1B68DA6AFB68DA62FB68DB6A1A4659
:1033A800012303FA02F2104B1B6813430E4A136001
:1033B800FB68DA6A13469B0013449B00094A1A44C7
:1033C800FB68043310461946FEF74CFE04E0044B34
:1033D8001B68DA6AFB68DA621037BD4680BD00BF39
:1033E800AC460020B04600208C47002080B584B051
:1033F80000AF78607B68BB600023FB607B68002BB4
:1034080051D0BB681B6D5A1EBB681A65BB68DA6A67
:10341800BB68DB6C9A4246D0BB681B6D002B42D15F
:10342800BB6804331846FEF779FE0346002B15D116
:10343800BB68DA6A1E4913469B0013449B000B4481
:103448001B68002B0AD1BB68DB6A1A46012393402C
:10345800DA43184B1B681340164A1360BB68DA6CD2
:10346800BB68DA62BB68DB6AC3F10502BB689A61B4
:10347800BB68DB6A1A46012303FA02F20D4B1B688C
:1034880013430C4A1360BB68DA6A13469B00134463
:103498009B00074A1A44BB68043310461946FEF7D6
:1034A800E1FD0123FB60FB6818461037BD4680BD6F
:1034B800B04600208C47002080B400AF074B1B6843
:1034C800002B04D0054B1B681A6D01321A65034B9B
:1034D8001B681846BD465DF8047B7047AC46002063
:1034E80080B487B000AFF860B9607A60FB687B6130
:1034F80005E07B695A1C7A61BA68D2B21A707B6897
:103508005A1E7A60002BF4D11C37BD465DF8047B47
:10351800704700BF80B489B000AFF860B9607A60C6
:10352800FB68FB61BB68BB6100237B6100BF7B68F4
:103538005A1E7A60002B0DD0FB695A1CFA611B7861
:103548001946BB695A1CBA611B78CB1A7B617B6927
:10355800002BECD07B6918462437BD465DF8047B08
:10356800704700BF80B483B000AF7860396002E074
:103578007B6801337B607B681B78002B05D07B68F8
:103588001B785AB23B689A42F2D17B681B785BB2CF
:1035980018460C37BD465DF8047B704780B584B08B
:1035A80000AF786039607B68DB6AFB60FA683B686B
:1035B8009A424BD07B681B79002B32D07B685A78B3
:1035C8007B68303310461946FA68012301F01CFD68
:1035D8000346002B01D0012339E07B6800221A71D1
:1035E8007B681A6A7B68DB691A44FB689A4218D9B7
:1035F8007B68DB78FB7211E07B68DB69FA6813444F
:10360800FB607B685A787B68303310461946FA6845
:10361800012301F0F9FCFB7A013BFB72FB7A012BD9
:10362800EAD83B68002B11D07B685A787B68303326
:10363800104619463A68012301F07AFC0346002B2C
:1036480001D0012303E07B683A68DA620023184658
:103658001037BD4680BD00BF80B483B000AF78602E
:1036680039603B68023B3B607B689B699A1E3B68FC
:103678009A4201D8002308E07B689B781A463B6889
:1036880003FB02F27B689B6A134418460C37BD465D
:103698005DF8047B704700BF80B586B000AF7860E6
:1036A80039603B68012B04D97B689A693B689A4268
:1036B80001D8012398E07B681B78022B48D0032BA4
:1036C80067D0012B40F08E803B687B617B695B088B
:1036D8007A6913447B617B681A6A7B695B0A1344C5
:1036E80078681946FFF75AFF0346002B00D079E0A7
:1036F8007B69C3F308037A68134493F830303B615D
:103708007B6901337B617B681A6A7B695B0A1344B6
:1037180078681946FFF742FF0346002B00D061E0A6
:103728007B69C3F308037A68134493F830301B02AB
:103738001A463B6913433B613B6803F00103002BC6
:1037480002D03B691B094FE03B69C3F30B034BE015
:103758007B681A6A3B681B0A134478681946FFF7A6
:103768001DFF0346002B00D03CE03B685B0003F4E0
:10377800FF7330337A681344FB60FB6801331B78AE
:103788001B029AB2FB681B789BB213439BB29BB295
:103798002AE07B681A6A3B68DB0913447868194693
:1037A800FFF7FCFE0346002B00D01BE03B689B00A4
:1037B80003F4FE7330337A681344FB60FB68033309
:1037C8001B781A06FB6802331B781B041343FA683C
:1037D8000132127812021343FA681278134323F065
:1037E800704301E04FF0FF3318461837BD4680BDDF
:1037F80080B588B000AFF860B9607A60BB68012B0B
:1038080004D9FB689A69BB689A4202D80223FB77FD
:10381800E3E0FB681B78022B70D0032B00F092804A
:10382800012B40F0D580BB68BB61BB695B08BA69F6
:103838001344BB61FB681A6ABB695B0A1344F868E6
:103848001946FFF7ABFE0346FB77FB7F002B00D042
:10385800C0E0BB69C3F308033033FA6813447B61E3
:10386800BB6803F00103002B0DD07B691B78DBB22A
:1038780003F00F03DAB27B68DBB21B01DBB2134340
:10388800DBB2DBB201E07B68DBB27A691370BB693B
:103898000133BB61FB6801221A71FB681A6ABB69B4
:1038A8005B0A1344F8681946FFF778FE0346FB776E
:1038B800FB7F002B00D08DE0BB69C3F308033033D6
:1038C800FA6813447B61BB6803F00103002B03D043
:1038D8007B681B09DBB20EE07B691B78DBB223F047
:1038E8000F03DAB27B681B0ADBB203F00F03DBB20B
:1038F8001343DBB2DBB27A6913706BE0FB681A6AB8
:10390800BB681B0A1344F8681946FFF747FE0346CD
:10391800FB77FB7F002B00D05CE0BB685B0003F407
:10392800FF733033FA6813447B617B68DAB27B69D2
:103938001A707B6901337A6892B2120A92B2D2B2D3
:103948001A7047E0FB681A6ABB68DB091344F86819
:103958001946FFF723FE0346FB77FB7F002B00D0B9
:1039680038E0BB689B0003F4FE733033FA681344F5
:103978007B617B6903331B781A067B6902331B78EA
:103988001B0413437A6901321278120213437A69CD
:103998001278134303F070437A6813437B607B68A3
:1039A800DAB27B691A707B6901337A6892B2120ABB
:1039B80092B2D2B21A707B6902337A68120CD2B210
:1039C8001A707B6903337A68120ED2B21A7001E05A
:1039D8000223FB77FB6801221A71FB7F1846203708
:1039E800BD4680BD80B586B000AF786039603B6861
:1039F800002B0DD17B68DB683B613B69002B04D051
:103A08007B689A693B699A4215D801233B6112E0A9
:103A180078683968FFF740FEB860BB68012B01D8A9
:103A2800012366E07B689A69BB689A4201D9BB6842
:103A38005FE03B683B613B697B617B6901337B618C
:103A48007B689A697B699A4207D802237B617A6905
:103A58003B699A4201D900234BE078687969FFF7FE
:103A68001BFEB860BB68002B0CD100BF7868796971
:103A78006FF07042FFF7BCFE0346FB73FB7B002B25
:103A88001AD10FE0BB68B3F1FF3F02D0BB68012B2E
:103A980001D1BB682DE07A693B699A4201D10023C4
:103AA80027E0CAE73B68002B06D0786839687A694E
:103AB800FFF79EFE0346FB73FB7B002B10D17B6850
:103AC8007A69DA607B681B69B3F1FF3F10D07B68C5
:103AD8001B695A1E7B681A617B6801225A7107E0CC
:103AE800FB7B012B02D14FF0FF3300E001237B6108
:103AF8007B6918461837BD4680BD00BF80B584B0C5
:103B080000AF78600B467B807B687A88DA807B68B8
:103B18009B68FB60FB68012B05D07B681B689A6972
:103B2800FB689A4201D8022365E0FB68002B08D1A4
:103B38007B681B681B78032B03D17B681B685B6A57
:103B4800FB60FB68002B14D17B68FA68DA607B683D
:103B58001B681B897A889A4201D302234BE07B6851
:103B68001B685B6A7A88120992B21A447B681A61E8
:103B780036E07B681B689B789BB21B017B811BE04E
:103B88007B681B681846F968FFF786FDF860FB68D4
:103B9800B3F1FF3F01D101232DE0FB68012B05D9CB
:103BA8007B681B689A69FB689A4201D8022322E065
:103BB8007A887B89D31A7B807A887B899A42DFD27C
:103BC8007B68FA68DA607B681B681846F968FFF753
:103BD80043FD02467B881B099BB21A447B681A6125
:103BE8007B681A687B8803F00F035B0130331A4443
:103BF8007B685A61002318461037BD4680BD00BF58
:103C080090B585B000AF786039607B68DB88013398
:103C18003B813B89002B03D07B681B69002B01D1BA
:103C28000423BCE03B8903F00F039BB2002B40F058
:103C3800A8807B681B695A1C7B681A617B68DB68F3
:103C4800002B08D17B681B681B893A899A42C0F00F
:103C580098800423A3E03B891B099BB21A467B6822
:103C68001B689B78013B1340002B40F08A807B68DF
:103C78001A687B68DB6810461946FFF70DFDF86087
:103C8800FB68012B01D8022389E0FB68B3F1FF3FF1
:103C980001D1012383E07B681B689A69FB689A421B
:103CA80063D83B68002B01D1042378E07B681A684D
:103CB8007B68DB6810461946FFF794FEF860FB68DE
:103CC800002B01D107236AE0FB68012B01D10223F5
:103CD80065E0FB68B3F1FF3F01D101235FE07B683A
:103CE8001B6818460021FFF759FC0346002B01D03A
:103CF800012354E07B681B683033184600214FF4D9
:103D08000072FFF7EDFB7B681C687B681B68184630
:103D1800F968FFF7A1FC0346E3620023FB7216E093
:103D28007B681B6801221A717B681B681846002192
:103D3800FFF734FC0346002B01D001232FE07B68FA
:103D48001B68DA6A0132DA62FB7A0133FB727B683C
:103D58001B689B78FA7A9A42E2D37B681B687A6878
:103D68001268D16AFA7A8A1ADA627B68FA68DA60C3
:103D78007B681B681846F968FFF76EFC02467B688B
:103D88001A617B683A89DA807B681A683B8903F094
:103D98000F035B0130331A447B685A6100231846CD
:103DA8001437BD4690BD00BF80B586B000AF7860BF
:103DB80078680021FFF7A2FE0346FB75FB7D002B08
:103DC80001D0FB7D35E07B681A687B681B6910466B
:103DD8001946FFF7E3FB0346FB75FB7D002B00D07C
:103DE80026E07B685B693B613B691B78FB73FB7B67
:103DF800002B02D10423FB751AE03B690B331B78B7
:103E080003F00803002B0AD17B689B6938691946BF
:103E18000B22FFF77FFB0346002B00D108E07868F0
:103E28000021FFF7EDFE0346FB75FB7D002BCAD092
:103E3800FB7D18461837BD4680BD00BF80B586B0EB
:103E480000AF78600423FB7531E07B681A687B68F3
:103E58001B6910461946FFF7A1FB0346FB75FB7D5E
:103E6800002B00D027E07B685B693B613B691B78CE
:103E7800FB73FB7B002B02D10423FB751BE0FB7B50
:103E8800E52B0AD0FB7B2E2B07D03B690B331B7825
:103E980003F00803002B00D10DE078680021FFF73C
:103EA800AFFE0346FB75FB7D002B00D003E07B686B
:103EB8001B69002BC9D1FB7D002B02D07B68002237
:103EC8001A61FB7D18461837BD4680BD80B588B09D
:103ED80000AF786039607B689B69FB60F8682021D7
:103EE8000B22FFF7FDFA0023FB7700233B613B69B8
:103EF8007B610823BB613B681B68BB607B695A1CFC
:103F08007A61BA6813441B78BB77BB7F202B53D9DF
:103F1800BB7F2F2B50D0BB7F5C2B4DD0BB7F2E2B74
:103F280003D03A69BB699A420FD3BB69082B02D107
:103F3800BB7F2E2B01D0062373E008233B610B23A4
:103F4800BB61FB7F9B00FB7735E0BB7F5BB2002B3F
:103F580008DAFB7F43F00303FB77BB7F803B334AE0
:103F6800D35CBB77BB7F32481946FFF7FBFA0346A1
:103F7800002B01D0062354E0BB7F402B07D9BB7F21
:103F88005A2B04D8FB7F43F00203FB770CE0BB7F7E
:103F9800602B09D9BB7F7A2B06D8FB7F43F001033E
:103FA800FB77BB7F203BBB773B695A1C3A61FA68B9
:103FB8001344BA7F1A70A1E7BA687B691A443B6850
:103FC8001A60BB7F202B01D8042300E00023BB77B5
:103FD8003B69002B01D1062323E0FB681B78E52B06
:103FE80002D1FB6805221A70BB69082B02D1FB7F3E
:103FF8009B00FB77FB7F03F00303012B03D1BB7FFF
:1040080043F01003BB77FB7F03F00C03042B03D1B1
:10401800BB7F43F00803BB77FB680B33BA7F1A708A
:10402800002318462037BD4680BD00BF4C55000808
:104038003C55000880B489B000AF786039603B68AF
:104048000933BB617B681B69002B79D07B685B698E
:104058003B613B691B7BFB730023FB6117E03A69FB
:10406800FB6913441B78FB7597F91730202B00D197
:1040780010E097F91730052B01D1E523FB75BB69D3
:104088005A1CBA61FA7D1A70FB690133FB61FB693E
:10409800072BE4D93B6908331B78202B1CD0BB695C
:1040A8005A1CBA612E221A700823FB6111E03A6982
:1040B800FB6913441B78FB7597F91730202B00D147
:1040C8000AE0BB695A1CBA61FA7D1A70FB690133B0
:1040D800FB61FB690A2BEAD93B69DA7A3B681A72F9
:1040E8003B691F331B781A063B691E331B781B0478
:1040F80013433A691D321278120213433A691C328B
:1041080012781A433B681A603B6919331B781B0203
:104118009AB23B6918331B789BB213439BB29AB28D
:104128003B689A803B6917331B781B029AB23B693C
:1041380016331B789BB213439BB29AB23B68DA8062
:10414800BB6900221A702437BD465DF8047B7047AE
:1041580080B584B000AF786039603B681B785BB28B
:104168002F2B04D03B681B785BB25C2B02D13B68D9
:1041780001333B607B6800229A603B681B78DBB2A6
:104188001F2B09D878680021FFF7B8FC0346FB739A
:104198007B6800225A6153E03B4678681946FFF76E
:1041A80095FE0346FB73FB7B002B00D048E0786844
:1041B800FFF7FAFD0346FB737B689B69DB7ABB73E9
:1041C800FB7B002B0CD0FB7B042B00D038E0BB7BA7
:1041D80003F00403002B02D10523FB7330E02FE02A
:1041E800BB7B03F00403002B00D029E07B685B69EC
:1041F800BB60BB680B331B7803F01003002B02D1A4
:104208000523FB731CE0BB6815331B781B029AB2AD
:10421800BB6814331B789BB213439BB29BB21B043D
:10422800BA681B321278120291B2BA681A3212783E
:1042380092B20A4392B292B21A437B689A60ABE791
:10424800FB7B18461037BD4680BD00BF80B582B0E5
:1042580000AF786039607B685A787B6830331046E5
:1042680019463A68012300F063FE0346002B01D08B
:10427800032343E07B6893F82F321B029AB27B68D2
:1042880093F82E329BB213439BB21BB21D4A934242
:1042980001D0022332E07B6893F869301A067B6804
:1042A80093F868301B0413437A6892F86720120267
:1042B80013437A6892F86620134323F07F43124A27
:1042C800934201D1002319E07B6893F885301A06E0
:1042D8007B6893F884301B0413437A6892F8832030
:1042E800120213437A6892F88220134323F07F4323
:1042F800054A934201D1002300E0012318460837FC
:10430800BD4680BD55AAFFFF4641540080B592B016
:1043180000AFF860B9601346FB71FB681B68FB626D
:10432800FB6A1B785BB2303B3B643B6C092B0CD8B7
:10433800FB6A01331B785BB23A2B06D1FB6A023366
:10434800FB62FB68FA6A1A6001E000233B643B6C7D
:10435800002B01D00B2363E2A64A3B6C52F82330B2
:10436800BB62BB68BA6A1A60BB6A002B01D10C2316
:1043780056E2BB6A1B78002B1AD0BB6A5B781846DA
:1043880000F0C0FD034687F8273097F8273003F080
:104398000103002B0CD1FB79002B07D097F82730AD
:1043A80003F00403002B01D00A2339E2002337E28B
:1043B800BB6A00221A703B6CDAB2BB6A5A70BB6ADD
:1043C8005B78184600F0B6FC034687F8273097F864
:1043D800273003F00103002B01D0032320E2FB79EF
:1043E800002B07D097F8273003F00403002B01D0E7
:1043F8000A2315E20023FB63B86AF96BFFF726FF6F
:10440800034687F8473097F84730012B22D1BB6A1B
:1044180003F5F7733B623B6A04331B78002B19D012
:104428003B6A0B331B781A063B6A0A331B781B045A
:1044380013433A6A09321278120213433A6A08326D
:1044480012781343FB63B86AF96BFFF7FFFE034664
:1044580087F8473097F84730032B01D10123DFE174
:1044680097F84730002B01D00D23D9E1BB6A93F8A8
:104478003C301B029AB2BB6A93F83B309BB21343A1
:104488009BB21BB2B3F5007F01D00D23C8E1BB6A14
:1044980093F847301B029AB2BB6A93F846309BB236
:1044A80013439BB29BB2BB63BB6B002B12D1BB6A9D
:1044B80093F857301A06BB6A93F856301B04134317
:1044C800BA6A92F8552012021343BA6A92F8542035
:1044D8001343BB63BB6ABA6BDA61BB6A93F84030BB
:1044E800FB77BB6AFA7FDA70FB7F012B04D0FB7F76
:1044F800022B01D00D2393E1FA7FBB6B02FB03F380
:10450800BB63BB6A93F83D30FB77BB6AFA7F9A704E
:10451800FB7F002B05D0FA7FFB7F013B1340002B6C
:1045280001D00D237CE1BB6A93F842301B029AB29A
:10453800BB6A93F841309BB213439BB29AB2BB6AF1
:104548001A81BB6A1B8903F00F039BB2002B01D0B1
:104558000D2365E1BB6A93F844301B029AB2BB6A2B
:1045680093F843309BB213439BB29BB27B637B6B44
:10457800002B12D1BB6A93F853301A06BB6A93F822
:1045880052301B041343BA6A92F8512012021343A3
:10459800BA6A92F8502013437B63BB6A93F83F30A2
:1045A8001B029AB2BB6A93F83E309BB213439BB28C
:1045B800BB83BB8B002B01D10D2331E1BA8BBB6BC5
:1045C8001344BA6A1289120992B21344BB617A6B16
:1045D800BB699A4201D20D2322E17A6BBB69D31AD7
:1045E800BA6A9278B3FBF2F37B617B69002B03D143
:1045F8000D2315E1A8470020012387F847307B6980
:1046080040F6F572934202D9022387F847307B6956
:104618004FF6F572934202D9032387F847307B6936
:104628009A1CBB6A9A61FA6BBB691A44BB6A9A62A4
:10463800BA8BFB6B1A44BB6A1A6297F84730032B94
:104648001ED1BB6A1B89002B01D00D23E8E0BB6A91
:1046580093F85F301A06BB6A93F85E301B04134365
:10466800BA6A92F85D2012021343BA6A92F85C2083
:104678001A43BB6A5A62BB6A9B699B003B631FE093
:10468800BB6A1B89002B01D10D23C9E0BB6A1A6ADA
:10469800BB6B1A44BB6A5A6297F84730022B03D1A6
:1046A800BB6A9B695B000AE0BB6A9A6913465B00B8
:1046B80013445A08BB6A9B6903F0010313443B6324
:1046C800BB6ADA693B6B03F2FF135B0A9A4201D2B9
:1046D8000D23A5E0BB6A4FF0FF321A61BB6A0022C6
:1046E800DA6097F84730032B40F08580BB6A0022D8
:1046F8005A71BB6A93F861301B029AB2BB6A93F88D
:1047080060309BB213439BB29BB21A46FB6B1A44B0
:10471800BB6A5A61BB6A5978BB6A03F13002BB6A4B
:104728005B69084611461A46012300F001FC03465E
:10473800002B60D1BB6A93F82F321B029AB2BB6A76
:1047480093F82E329BB213439BB21BB2364A934264
:1047580051D1BB6A93F833301A06BB6A93F83230EA
:104768001B041343BA6A92F8312012021343BA6A3F
:1047780092F8302013432D4A93423CD1BB6A93F8F8
:1047880017321A06BB6A93F816321B041343BA6A27
:1047980092F8152212021343BA6A92F814221343AC
:1047A800234A934227D1BB6A93F81F321A06BB6A81
:1047B80093F81E321B041343BA6A92F81D221202A0
:1047C8001343BA6A92F81C221A43BB6ADA60BB6ABE
:1047D80093F81B321A06BB6A93F81A321B04134368
:1047E800BA6A92F8192212021343BA6A92F8182286
:1047F8001A43BB6A1A61BB6A97F847201A700D4BB7
:104808001B8801339AB20B4B1A800A4B1A88BB6A71
:10481800DA80BB6A0022DA62BB6A00221A710023BE
:1048280018464837BD4680BD55AAFFFF5252614120
:1048380072724161AC47002080B582B000AF7860E9
:104848000B467B807B68002B08D07B681B78002B8D
:1048580004D07B68DB887A889A4201D009230CE06F
:104868007B685B78184600F04DFB034603F00103B4
:10487800002B01D0032300E0002318460837BD466B
:1048880080BD00BF80B485B000AF03463960FB71BE
:10489800FB79002B01D00B2316E0FB790D4A52F867
:1048A8002330FB60FB68002B02D0FB6800221A70E3
:1048B8003B68002B02D03B6800221A70FB7905493F
:1048C8003A6841F82320002318461437BD465DF89E
:1048D800047B7047A847002080B586B000AF786099
:1048E80039607B683A46104619460022FFF70EFDEC
:1048F8000346FB75FB7D002B4FD17B6807F108024F
:104908009A613B6878681946FFF722FC0346FB75F5
:10491800FB7D002B3CD17B685B69002B2AD07B6830
:104928005B690B331B7803F01003002B20D07B68E6
:104938005B6915331B781B029AB27B685B69143379
:104948001B789BB213439BB29BB21B047A685269D3
:104958001B321278120291B27A6852691A321278AE
:1049680092B20A4392B292B21A437B689A6001E00B
:104978000523FB75FB7D002B0AD17B681B68DA8851
:104988007B689A8078680021FFF7B8F80346FB75C2
:10499800FB7D042B01D10523FB75FB7D18461837D9
:1049A800BD4680BD80B586B000AF786039607B6851
:1049B8001A687B689B8810461946FFF73DFF034637
:1049C800FB75FB7D002B2FD13B68002B06D1786847
:1049D8000021FFF793F80346FB7525E07B6807F194
:1049E80008029A617868FFF729FA0346FB75FB7D90
:1049F800042B04D17B6800221A610023FB75FB7D20
:104A0800002B11D178683968FFF714FB786800210A
:104A1800FFF7F6F80346FB75FB7D042B04D17B6892
:104A280000221A610023FB75FB7D18461837BD4626
:104A380080BD00BF80B500AF02481021FBF74EFFD4
:104A480080BD00BF0008014080B500AF02481021BA
:104A5800FBF7FEFE80BD00BF0008014080B582B0B4
:104A680000AF0346FB7100BF07480221FCF702FCB8
:104A78000346002BF8D0FB799BB203481946FCF794
:104A88006DFB0837BD4680BD0030014080B582B05F
:104A980000AF0023FB7100BF0E480221FCF7EAFBC0
:104AA8000346002BF8D00B48FF21FCF757FB00BF4B
:104AB80008480121FCF7DEFB0346002BF8D0054827
:104AC800FCF772FB0346FB71FB7918460837BD46B5
:104AD80080BD00BF0030014080B582B000AF786073
:104AE800FFF7D4FF03461A467B681A700837BD469D
:104AF80080BD00BF80B582B000AF0B4B32221A7068
:104B0800FFF7C4FFFFF7C2FF0346FB71FB79FF2BDA
:104B180004D0054B1B78DBB2002BF3D1FB79184688
:104B28000837BD4680BD00BFAF47002080B582B0C2
:104B380000AFFFF789FF0023FB7105E0FF20FFF7B7
:104B48008DFFFB790133FB71FB79092BF6D9034BF8
:104B580001221A700837BD4680BD00BFB14700204A
:104B680080B400AF034B00221A70BD465DF8047B89
:104B7800704700BFB147002080B584B000AF7860AF
:104B88003960184B0A221A70FFF780FF0346FB733F
:104B9800FB7BFF2B04D1134B1B78DBB2002BF3D12B
:104BA800FB7BFE2B01D0002316E07B685A1C7A6041
:104BB8001846FFF791FF7B685A1C7A601846FFF782
:104BC8008BFF3B68023B3B603B68002BEDD1FFF756
:104BD8005DFFFFF75BFF01235BB218461037BD4648
:104BE80080BD00BFAE47002080B584B000AF7860BC
:104BF8000B46FB700023BB60FFF77CFF0346FF2BCF
:104C080001D000233FE0FB781846FFF727FFFB7829
:104C1800FD2B30D00023BB737B685A1C7A601B784D
:104C28001846FFF71BFF7B685A1C7A601B781846EA
:104C3800FFF714FFBB7B013BBB73BB7B002BEBD1A6
:104C4800FFF724FFFFF722FF0CE0FFF71FFF0346E3
:104C5800FB73FB7B03F01F03052B00D105E0BB684A
:104C68000133BB60BB68402BEFD900BFFFF70EFFD5
:104C78000346002BFAD0FB7B03F01F03052B01D161
:104C8800012300E000235BB218461037BD4680BD03
:104C980080B584B000AF03463960FB71FFF72AFF87
:104CA8000346FF2B01D0FF2340E0FB791846FFF7AE
:104CB800D5FE3B681B0EDBB21846FFF7CFFE3B68FC
:104CC8001B0CDBB21846FFF7C9FE3B681B0ADBB2B8
:104CD8001846FFF7C3FE3B68DBB21846FFF7BEFE77
:104CE8000023FB73FB79402B01D19523FB73FB79E0
:104CF800482B01D18723FB73FB7B1846FFF7AEFED9
:104D0800FB794C2B01D1FFF7C1FE0A23FB73FFF798
:104D1800BDFE0346BB73BB7B5BB2002B05DAFB7B96
:104D2800013BFB73FB7B002BF1D1BB7B1846103793
:104D3800BD4680BD90B585B000AF0346FB71FB79D9
:104D4800002B01D00123D3E06B4B1B78DBB203F0BF
:104D58000203002B03D0684B1B78DBB2C8E0FFF7D7
:104D6800E5FEFFF767FE0023BB7340200021FFF735
:104D78008FFF0346012B40F0A380604B64221A701A
:104D880048204FF4D571FFF783FF0346012B57D115
:104D98000023FB730CE0FC7BFFF778FE03461A4602
:104DA80007F11003234403F8082CFB7B0133FB7342
:104DB800FB7B032BEFD9BB7A012B40F08180FB7A78
:104DC800AA2B7DD177200021FFF762FF0346012B34
:104DD80008D869204FF08041FFF75AFF0346002B9F
:104DE80000D104E0454B1B78DBB2002BEAD1434BE2
:104DF8001B78DBB2002B63D07A200021FFF748FF35
:104E08000346002B5CD10023FB730CE0FC7BFFF70F
:104E18003DFE03461A4607F11003234403F8082C05
:104E2800FB7B0133FB73FB7B032BEFD93B7A03F04E
:104E38004003002B01D0062300E00223BB733FE0B0
:104E480077200021FFF724FF0346012B08D86920AB
:104E58000021FFF71DFF0346012B01D8022300E0C4
:104E68000123BB73BB7B022B0ED177200021FFF7F8
:104E78000FFF0346012B0FD869200021FFF708FF19
:104E88000346002B08D10CE041200021FFF700FF6A
:104E98000346002B00D104E0184B1B78DBB2002B33
:104EA800E0D1164B1B78DBB2002B07D050204FF413
:104EB8000071FFF7EDFE0346002B01D00023BB7302
:104EC8000F4ABB7B1370FFF7BFFDFFF7DFFDBB7B0E
:104ED800002B08D0084B1B78DBB223F00103DAB2B1
:104EE800054B1A7001E0FFF73BFE034B1B78DBB262
:104EF80018461437BD4690BD28000020AE47002054
:104F0800B047002080B483B000AF0346FB71FB7943
:104F1800002B01D0012302E0044B1B78DBB21846BA
:104F28000C37BD465DF8047B704700BF28000020A1
:104F380080B584B000AFB9607A601A460346FB7347
:104F48001346BB73FB7B002B02D1BB7B002B01D12B
:104F5800042350E02A4B1B78DBB203F00103002B3B
:104F680001D0032347E0274B1B7803F00403002BF1
:104F780002D17B685B027B60FFF75CFDBB7B012B8A
:104F880011D151207968FFF783FE0346002B28D101
:104F9800B8684FF40071FFF7EFFD0346002B20D0EF
:104FA8000023BB731DE052207968FFF771FE0346AA
:104FB800002B16D1B8684FF40071FFF7DDFD0346EA
:104FC800002B00D109E0BB6803F50073BB60BB7B15
:104FD800013BBB73BB7B002BECD14C200021FFF7BE
:104FE80057FEFFF731FDFFF751FDBB7B002B14BFC8
:104FF80001230023DBB218461037BD4680BD00BF31
:1050080028000020B047002080B584B000AFB96008
:105018007A601A460346FB731346BB73FB7B002B6F
:1050280002D1BB7B002B01D104236BE0374B1B78EB
:10503800DBB203F00103002B01D0032362E0334B02
:105048001B78DBB203F00403002B01D0022359E0E4
:105058002F4B1B7803F00403002B02D17B685B0203
:105068007B60FFF7E7FCBB7B012B10D158207968E8
:10507800FFF70EFE0346002B3AD1B868FE21FFF772
:10508800B3FD0346002B33D00023BB7330E0204B25
:105098001B7803F00203002B08D077200021FFF7CC
:1050A800F7FDBB7B57201946FFF7F2FD59207968B9
:1050B800FFF7EEFD0346002B1AD1B868FC21FFF775
:1050C80093FD0346002B00D109E0BB6803F500738C
:1050D800BB60BB7B013BBB73BB7B002BEDD10020CE
:1050E800FD21FFF781FD0346002B01D10123BB738E
:1050F800FFF7AAFCFFF7CAFCBB7B002B14BF0123F8
:105108000023DBB218461037BD4680BD28000020BA
:10511800B047002010B5431E0A44914204D011F84C
:10512800014B03F8014FF8E710BD034602449342D0
:1051380002D003F8011BFAE7704700002E2E2F73E8
:10514800797374656D2F7372632F73746D33326660
:10515800312D7374647065726970682F6D6973633B
:105168002E6300002E2E2F73797374656D2F737262
:10517800632F73746D333266312D73746470657286
:105188006970682F73746D3332663130785F666C7E
:105198006173682E630000002E2E2F737973746577
:1051A8006D2F7372632F73746D333266312D737480
:1051B800647065726970682F73746D33326631304C
:1051C800785F6770696F2E63000000002E2E2F73C2
:1051D800797374656D2F7372632F73746D333266D0
:1051E800312D7374647065726970682F73746D33D0
:1051F80032663130785F7263632E63002E2E2F7310
:10520800797374656D2F7372632F73746D3332669F
:10521800312D7374647065726970682F73746D339F
:1052280032663130785F7370692E630061626F7225
:105238007428292C2065786974696E672E2E2E00D3
:105248002C2066756E6374696F6E3A20000000004A
:1052580000000000617373657274696F6E20222507
:105268007322206661696C65643A2066696C652002
:10527800222573222C206C696E65202564257325F0
:10528800730A00006173736572745F706172616D97
:105298002829206661696C65643A2066696C652016
:1052A800222573222C206C696E652025640A000073
:1052B800000000000000005F000000070007001465
:1052C8007F147F14242A7F2A122313086462364924
:1052D8005522500005030000001C22410000412215
:1052E8001C00082A1C2A0808083E0808005030003C
:1052F80000080808080800303000002010080402E0
:105308003E5149453E00427F400042615149462195
:1053180041454B311814127F1027454545393C4A01
:105328004949300171090503364949493606494951
:10533800291E0036360000005636000000081422E8
:1053480041141414141441221408000201510906CE
:10535800324979413E7E1111117E7F494949363ED5
:10536800414141227F4141221C7F494949417F09EE
:105378000901013E414151327F0808087F00417F01
:1053880041002040413F017F081422417F404040B6
:10539800407F0204027F7F0408107F3E4141413E66
:1053A8007F090909063E4151215E7F0919294646B0
:1053B8004949493101017F01013F4040403F1F20D9
:1053C80040201F7F2018207F63140814630304788B
:1053D8000403615149454300007F4141020408101C
:1053E8002041417F00000402010204404040404047
:1053F800000102040020545454787F48444438384B
:1054080044444420384444487F3854545418087E4F
:10541800090102081454543C7F0804047800447DB0
:1054280040002040443D00007F10284400417F4058
:10543800007C041804787C08040478384444443810
:105448007C14141408081414187C7C0804040848F4
:1054580054545420043F4440203C4040207C1C20AD
:1054680040201C3C4030403C44281028440C5050FC
:10547800503C4464544C44000836410000007F000E
:1054880000004136080008082A1C08081C2A0808D9
:105498002020205A6164616E696520504945525741
:1054A800535A4520200000002020205A6164616E74
:1054B80069652044525547494520202000000000D6
:1054C800000000005461736B310000005461736B7D
:1054D80032000000765461736B436865636B4B65FB
:1054E800790000005344204F4B2020202020207CAE
:1054F800202020206F6B0000204E4945205A616D06
:105508006F6E746F77616C00000000002E2E2F6D97
:10551800795F696E697469616C697A652F696E690A
:105528007469616C697A652E6300000049444C45D2
:1055380000000000222A2B2C3A3B3C3D3E3F5B5D9D
:105548007C7F0000808182838485868788898A8B16
:105558008C8D8E8F909192939495969798998A9B1B
:105568008C8D8E8FA0A1A2A3A4A5A6A7A8A9AAAB3B
:10557800ACADAEAFB0B1B2A3B4B5B6B7B8A5AABB1F
:10558800BCBDBCAFC0C1C2C3C4C5C6C7C8C9CACBED
:10559800CCCDCECFD0D1D2D3D4D5D6D7D8D9DADBCB
:1055A800DCDDDEDFC0C1C2C3C4C5C6C7C8C9CACB3B
:1055B800CCCDCECFD0D1D2D3D4D5D6F7D8D9DADB8B
:0455C800DCDDDEFF49
:1055CC0078563412340000200000000000A24A0477
:1055DC000000000000000000010203040607080997
:1055EC00AAAAAAAAFFFFFFFF010000003254769876
:040000050800010DE1
:00000001FF
