:020000040800F2
:100000000050002021020008290200082D020008EB
:1000100045020008490200086102000800000000D3
:100020000000000000000000000000006916000849
:100030007D02000800000000F91600083D170008C6
:100040009502000895020008950200089502000834
:100050009502000895020008950200089502000824
:100060009502000895020008950200089502000814
:100070009502000895020008950200089502000804
:1000800095020008950200089502000895020008F4
:1000900095020008950200089502000895020008E4
:1000A00095020008950200089502000895020008D4
:1000B00095020008950200089502000895020008C4
:1000C00095020008950200089502000895020008B4
:1000D00095020008950200089502000895020008A4
:1000E0009502000895020008950200080000000033
:1000F0000000000000000000000000000000000000
:1001000000000000000000005FF808F100B583B0B7
:1001100000F074FD304B314A1360314A1360314BAB
:10012000314A03E011681960043304322F498B42CD
:10013000F8D32A4B1A682E4B9A4204D1284B1A68DE
:100140002C4B9A4200D0FEE7234B2B4A13602B4ADC
:1001500013602B4B02E000221A600433294A9342B9
:10016000F9D3254B1B6813B9244B1B6803B1FEE779
:1001700000F050FD01A8694600F034FD224C234BED
:100180001C1BA410002504E01F4B53F82530984792
:100190000135AC42F8DC1E4C1E4B1C1BA410002584
:1001A00004E01B4B53F8253098470135AC42F8DC8E
:1001B0000198009901F05CF80546174C174B1C1B81
:1001C000A41004E0013C144B53F824309847002C51
:1001D000F8DC284600F000FDBABADECA00000020B4
:1001E0003400002000000020EC2700083800002028
:1001F0007856341232547698380000208C4700200C
:100200003800002090470020C0020008C00200080B
:10021000C0020008C0020008C0020008C0020008B6
:1002200008B5FFF773FF00BF00BEFEE71EF0040F26
:100230000CBFEFF30880EFF309807146124A1047B4
:1002400000BEFEE700BEFEE71EF0040F0CBFEFF39A
:100250000880EFF3098071460C4A104700BEFEE7A4
:100260001EF0040F0CBFEFF30880EFF30980714616
:10027000074A104700BEFEE700BEFEE700BEFEE7ED
:1002800000BEFEE770470000410200085D02000862
:080290007502000800BEFEE744
:10029800EC2700080000002038000020EC270008A8
:1002A80000000000000000003800002090470020F7
:0802B80000000000000000003E
:1002C00038B505460C46B0F1005F06D0B0F1006FBE
:1002D00003D00948AA2100F08DFC084B9C4203D9A9
:1002E0000548AB2100F086FC24F0604121F07F013D
:1002F0002943034B996038BDB0240008FEFF0F006E
:1003000000ED00E010B50446022804D9054840F28B
:10031000031100F06FFC044A136803F038031C4318
:10032000146010BDD82400080020024010B5044617
:10033000102805D020B1074840F22F1100F05AFCD8
:10034000054B1A6822F010021A601A6814431C60E8
:1003500010BD00BFD824000800200240F8B50546B3
:100360000C46474B98421BD003F58063984217D048
:1003700003F58063984213D003F5806398420FD051
:1003800003F5806398420BD003F58063984207D051
:1003900003F58063984203D03A48B22100F02AFC6A
:1003A000E3788BB1042B0FD0282B0DD0482B0BD02A
:1003B000142B09D0102B07D01C2B05D0182B03D0E1
:1003C0003048B32100F016FC23881BB92D48B42116
:1003D00000F010FCE37803F00F06304613F0100F26
:1003E0000AD0A378013BDBB2022B03D92548BB21FD
:1003F00000F000FCA07830432378E3B12E6800229F
:1004000016E0012393402188194099420FD19700AB
:100410000F21B94026EA010600FA07F10E43E17800
:10042000282901D16B6102E0482900D12B610132FA
:10043000072AE6D92E602388FF2B20D96F68002178
:100440001AE001F108020123934022881A409A42DF
:1004500011D14FEA810E0F2202FA0EF627EA0602A8
:1004600000FA0EF71743E278282A00D16B61E27890
:10047000482A00D12B6101310729E2D96F60F8BD0C
:10048000000801400C2500084FF6FF73038002238B
:1004900083700423C370704738B504460D462A4B59
:1004A00098421CD003F58063984218D003F580630E
:1004B000984214D003F58063984210D003F580630E
:1004C00098420CD003F58063984208D003F580630E
:1004D000984204D01D484FF48F7100F08BFB6B1EC7
:1004E0009BB2012B28D9042D26D0082D24D0102D05
:1004F00022D0202D20D0402D1ED0802D1CD0B5F52F
:10050000807F19D0B5F5007F16D0B5F5806F13D078
:10051000B5F5006F10D0B5F5805F0DD0B5F5005F73
:100520000AD0B5F5804F07D0B5F5004F04D0074885
:1005300040F21F1100F05EFBA3682B4201D00120A6
:1005400038BD002038BD00BF000801400C25000860
:1005500010B50446114B98421CD003F580639842B5
:1005600018D003F58063984214D003F58063984255
:1005700010D003F5806398420CD003F58063984255
:1005800008D003F58063984204D005484FF49A716F
:1005900000F030FBA06880B210BD00BF0008014031
:1005A0000C25000838B504460D46144B98421CD063
:1005B00003F58063984218D003F58063984214D005
:1005C00003F58063984210D003F5806398420CD005
:1005D00003F58063984208D003F58063984204D005
:1005E000074840F2691100F005FB25B904484FF4B3
:1005F000B57100F0FFFA256138BD00BF0008014069
:100600000C25000838B504460D46144B98421CD002
:1006100003F58063984218D003F58063984214D0A4
:1006200003F58063984210D003F5806398420CD0A4
:1006300003F58063984208D003F58063984204D0A4
:10064000074840F2791100F0D5FA25B904484FF473
:10065000BD7100F0CFFA656138BD00BF00080140F0
:100660000C25000838B504460D46114B98421CD0A5
:1006700003F58063984218D003F58063984214D044
:1006800003F58063984210D003F5806398420CD044
:1006900003F58063984208D003F58063984204D044
:1006A00004484FF4D27100F0A5FAE56038BD00BFF0
:1006B000000801400C2500080D4B1A6842F00102A9
:1006C0001A6059680B4A0A405A601A6822F084720C
:1006D00022F480321A601A6822F480221A605A6862
:1006E00022F4FE025A604FF41F029A60704700BF66
:1006F000001002400000FFF810B5044650B1B0F5FC
:10070000803F07D0B0F5802F04D0104840F211117F
:1007100000F070FA0E4B1A6822F480321A601A68E0
:1007200022F480221A60B4F5803F03D0B4F5802F04
:1007300006D010BD064A136843F48033136010BD21
:10074000034A136843F4A023136010BD402500083A
:100750000010024038B50C46054650B1B0F5803F58
:1007600007D0B0F5403F04D01E4840F27F1100F0A2
:1007700041FA74B3B4F5802F2BD0B4F5002F28D0F4
:10078000B4F5402F25D0B4F5801F22D0B4F5A01FBA
:100790001FD0B4F5C01F1CD0B4F5E01F19D0B4F5BC
:1007A000001F16D0B4F5101F13D0B4F5201F10D0C1
:1007B000B4F5301F0DD0B4F5401F0AD0B4F5501F6A
:1007C00007D0B4F5601F04D006484FF4C07100F0A4
:1007D00011FA054A536823F47C132C431C435460DC
:1007E00038BD00BF402500080010024010B5044687
:1007F000012804D903484FF4CA7100F0FBF9024BF9
:100800001C6010BD402500086000424210B504463F
:10081000022804D905484FF40E7100F0EBF9044AA0
:10082000536823F003031C43546010BD40250008A7
:1008300000100240024B586800F00C00704700BFE7
:100840000010024010B50446A0B1802812D09028B4
:1008500010D0A0280ED0B0280CD0C0280AD0D028A4
:1008600008D0E02806D0F02804D006484FF41971CB
:1008700000F0C0F9044A536823F0F0031C435460AD
:1008800010BD00BF402500080010024010B504460E
:1008900080B1B0F5806F0DD0B0F5A06F0AD0B0F583
:1008A000C06F07D0B0F5E06F04D0064840F27E215B
:1008B00000F0A0F9044A536823F4E0631C43546039
:1008C00010BD00BF402500080010024010B50446CE
:1008D00080B1B0F5806F0DD0B0F5A06F0AD0B0F543
:1008E000C06F07D0B0F5E06F04D006484FF4267112
:1008F00000F080F9044B586820F4605040EAC400CE
:10090000586010BD402500080010024038B504466C
:100910000D460E4B034003B920B90D4840F24A4141
:1009200000F068F9012D04D9094840F24B4100F06C
:1009300061F925B1074B9A6914439C6138BD054A9A
:10094000936923EA0404946138BD00BF0200C0FF2C
:10095000402500080010024010B50446212818D098
:10096000312816D0392814D0412812D0612810D04F
:100970007A280ED07B280CD07C280AD07D2808D07D
:100980007E2806D07F2804D00D4840F2345100F074
:1009900031F96309012B02D10A4B1B6806E0022BD7
:1009A00002D1084B1B6A01E0064B5B6A04F01F048E
:1009B000E34013F0010F01D0012010BD002010BD55
:1009C000402500080010024000B583B000230193C9
:1009D0003120FFF7C1FF019B01330193019BB3F568
:1009E000A06F01D00028F3D03120FFF7B5FF08B188
:1009F000012000E0002003B05DF804FB2DE9F04188
:100A000005460C46464B98420BD0A3F578439842D6
:100A100007D003F58063984203D04248A32100F039
:100A2000E9F8238863B1B3F5806F09D0B3F5004FBF
:100A300006D0B3F5404F03D03A48A62100F0DAF8CB
:100A40006388B3F5827F04D01BB13648A72100F03C
:100A5000D1F8A388B3F5006F04D01BB13148A821A9
:100A600000F0C8F8E3882BB1022B03D02D48A92150
:100A700000F0C0F82389012B03D92A48AA2100F0ED
:100A8000B9F86389B3F5007F04D01BB12548AB21C9
:100A900000F0B0F8A3898BB1082B0FD0102B0DD02C
:100AA000182B0BD0202B09D0282B07D0302B05D0AA
:100AB000382B03D01B48AC2100F09CF8E3892BB104
:100AC000802B03D01748AD2100F094F8238A1BB97E
:100AD0001448AE2100F08EF82B8803F4415720888B
:100AE0006688A188B4F806802289B4F80AC0A38970
:100AF000B4F80EE03043084348EA000111434CEAE1
:100B000001021A434EEA02033B432B80AB8B23F4D2
:100B100000631B041B0CAB83238A2B82BDE8F0818E
:100B2000003001407025000838B504460D46124BD0
:100B300098420CD0A3F57843984208D003F580631F
:100B4000984204D00D4840F2B71100F053F8012D3F
:100B500004D90A484FF4DC7100F04CF82DB1238819
:100B60009BB243F04003238038BD238823F0400329
:100B70001B041B0C238038BD003001407025000889
:100B800038B504460D46124B98420CD0A3F5784375
:100B9000984208D003F58063984204D00D484FF482
:100BA0001D7100F027F8012D04D90A4840F2752183
:100BB00000F020F82DB1A3889BB243F00403A3807A
:100BC00038BDA38823F004031B041B0CA38038BD8D
:100BD0000030014070250008FEE700BF08B5012085
:100BE000FFF7FAFF01230360014B0B60704700BF62
:100BF0000400002008B5FFF7F1FF00BF08B500F0C2
:100C000073F8024B024A9A6008BD00BF00ED00E095
:100C10000000000808B500F08FF808BD82B000237E
:100C2000019300932C4A136843F4803313602A4BDA
:100C30001B6803F400330093019B01330193009B75
:100C40001BB9019BB3F5A06FF1D1234B1B6813F4C3
:100C5000003F02D00123009301E000230093009B9A
:100C6000012B36D11D4B1A6842F010021A601A6827
:100C700022F003021A601A6842F002021A60A3F519
:100C800080535A685A605A685A605A6842F48062BF
:100C90005A605A6822F47C125A605A6842F4E81288
:100CA0005A601A6842F080721A600B4B1B6813F08E
:100CB000007FFAD0084B5A6822F003025A605A6843
:100CC00042F002025A60044B5B6803F00C03082BED
:100CD000F9D102B0704700BF00100240002002406E
:100CE00008B5FFF79BFF08BD08B5104B1A6842F026
:100CF00001021A6059680E4A0A405A601A6822F0C6
:100D0000847222F480321A601A6822F480221A60F7
:100D10005A6822F4FE025A604FF41F029A60FFF7ED
:100D2000DFFF4FF00062034B9A6008BD00100240E5
:100D30000000FFF800ED00E01F4B5B6803F00C03C0
:100D4000042B06D0082B08D03BBB1C4A1C4B1A6056
:100D500026E01A4A1A4B1A6022E0174A5368526872
:100D6000C3F38343023312F4803F05D1154A02FBDB
:100D700003F3134A136013E00F4A526812F4003F62
:100D800005D0104A02FB03F30D4A136008E00B4A3A
:100D900002FB03F30A4A136002E0084A084B1A6098
:100DA000054B5B68C3F30313074AD25CD2B2044914
:100DB0000B68D3400B6070470010024000127A00AD
:100DC0001C00002000093D000C00002000BF00BFF7
:100DD00000BF00BF00BF00BF00BF00BF00BF00BF1B
:100DE00000BF00BF00BF00BF00BF00BF704700BF13
:100DF00008B5012809D010B102280CD008BD094857
:100E00004FF40061FFF7FEFB08BD06484FF4805128
:100E1000FFF7F8FB08BD03484FF40051FFF7F2FB62
:100E200008BD00BF0010014008B5012809D010B16D
:100E300002280CD008BD09484FF40061FFF7B2FB4F
:100E400008BD06484FF48051FFF7ACFB08BD0348CE
:100E50004FF40051FFF7A6FB08BD00BF0010014092
:100E600070B50646184D2846FFF70EFBFF232B8072
:100E70004823EB70154C20462946FFF76FFA2046B1
:100E80004FF40071FFF78EFB20464FF48071FFF79F
:100E9000B9FB3046FFF7ACFFFFF798FF20464FF451
:100EA0008061FFF77FFBFFF791FF2046FFF750FBC4
:100EB000C5B220464FF48061FFF7A4FB3046FFF730
:100EC000B3FF284670BD00BF400000200010014065
:100ED000F8B506460C462046FFF7C2FF10F0800F1B
:100EE000F9D11B4F3846FFF7CFFAFF233B80102381
:100EF000FB70184D28463946FFF730FA28464FF464
:100F00004071FFF77FFBFFF761FF2046FFF770FF9F
:100F1000FFF75CFF28463146FFF744FBF1432846C4
:100F2000C9B2FFF76FFBFFF751FF28464FF480610E
:100F3000FFF738FBFFF74AFF28464FF48061FFF7C1
:100F400061FBFFF743FF2046FFF76EFFF8BD00BFD0
:100F5000400000200010014070B50546234B187872
:100F60008009FFF77DFF10F0800FF7D1204E30464B
:100F7000FFF78AFAFF2333801023F3701D4C2046BD
:100F80003146FFF7EBF920464FF40071FFF73AFBCB
:100F9000FFF71CFF20464FF48071FFF703FBFFF7BC
:100FA00015FF2B0483F47F031D432561FFF70EFF1C
:100FB0000E4D28788009FFF71BFFFFF707FF20463B
:100FC0004FF48061FFF7EEFAFFF700FF20464FF481
:100FD0008061FFF717FBFFF7F9FE28788009FFF71C
:100FE00023FF2B7801332B7070BD00BF3D00002024
:100FF000400000200010014038B510200121FFF70B
:1010000085FC0B4C2046FFF73FFA4FF6FF73238019
:101010000223A3701023E370064D28462146FFF7F4
:101020009DF9284641F6FF71FFF71CFB38BD00BF54
:1010300040000020001001400078704710B5FFF715
:10104000DBFF002405E03F202146FFF741FF01348C
:10105000E4B2012CF7D910BD70B505460E46124B0F
:101060001870124B197000240EE040202146FFF743
:101070002FFF46F0B8002146FFF72AFFC020214687
:10108000FFF726FF0134E4B2012CEED9AC0905F0DC
:101090003F0040F040002146FFF71AFF46F0B8003D
:1010A0002146FFF715FF70BD3D0000203E000020E7
:1010B00038B500250FE000202946FFF7CDFF0024BA
:1010C00004E00020FFF748FF0134E4B214F0800F81
:1010D000F7D00135EDB2072DEDD938BD38B5203840
:1010E00045B200240BE005EB850362B213440748C8
:1010F0001844FFF7A1FFFFF72FFF0134E4B263B2FA
:10110000042BF0DD0020FFF727FF38BDA0250008E5
:1011100010B5044603E0013440B2FFF7DFFF20784A
:101120000028F8D110BD00BF00B585B0FFF786FFDD
:10113000FFF7BEFF00F0F6F800F0A2FE0090204B93
:10114000186803A90122002300F0ACFC90B3002032
:101150000146FFF781FF0398FFF7DAFF194B186884
:1011600000210A460B4600F00BFC174B186802A939
:101170000122002300F096FC68B100200121FFF756
:101180006BFF0298FFF7C4FF0E4B186800210A4658
:101190000B4600F0F5FB0D4B186801A90122002356
:1011A00000F080FC30B100200221FFF755FF0198CC
:1011B000FFF7AEFF68464FF47A7100F055FFBEE7C7
:1011C0008847002084470020804700207C4700207B
:1011D00000B583B000F054FE01900A4B18680A492C
:1011E0000522002300F0CCFB084B186808490522B3
:1011F000002300F0C5FB01A84FF4FA6100F034FFB2
:10120000EBE700BF80470020200000208847002037
:101210002400002000B583B0FFF710FFFFF748FF60
:1012200000F02EFE01900F484FF40071FFF734F9E3
:1012300028B10C484FF48071FFF7E4F904E0094845
:101240004FF48071FFF7AEF9074B18680749052284
:10125000002300F095FB01A84FF4C86100F004FFE3
:10126000E1E700BF000C014080470020280000207B
:1012700000B585B000F056F90425009500240194CE
:10128000029403941D481E4940F6B832234600F0EC
:1012900051FD0126009601940294039419481A49BD
:1012A0004FF4FA72234600F045FD022300930194A7
:1012B0000294039415481649C822234600F03AFDCB
:1012C000304600F0C9FB134B1860284629462246D9
:1012D00000F036FB104B186028462946224600F0E5
:1012E0002FFB0E4B186028462946224600F028FBAB
:1012F0000B4B186000F098FDFEE700BF29110008B5
:1013000080270008D111000888270008151200085E
:10131000902700088447002088470020804700204D
:101320007C47002008B50020014901F099F808BD6C
:101330004400002070B582B04FF6FF73ADF8043062
:1013400003248DF8064010258DF80750224801A986
:10135000FFF704F84FF47D43ADF804308DF80640F4
:101360008DF807501D4E304601A9FEF7F7FF4FF4E8
:101370000073ADF804308DF8064048238DF807302F
:10138000304601A9FEF7EAFF3023ADF804308DF8AE
:1013900007508DF80640124D284601A9FEF7DEFFE2
:1013A000E023ADF8043018238DF807308DF806409F
:1013B000284601A9FEF7D2FF4FF48073ADF8043040
:1013C00004238DF807308DF8064028460DEB030105
:1013D000FEF7C4FF02B070BD00100140000C0140D8
:1013E0000008014008B54FF000600021FEF768FFDB
:1013F00008BD00BF30B587B00023ADF804304FF40E
:101400008272ADF80620ADF808300222ADF80A204D
:101410000124ADF80C404FF40072ADF80E20082204
:10142000ADF81020ADF812300723ADF81430074D99
:10143000284601A9FFF7E2FA28462146FFF7A0FB5C
:1014400028462146FFF770FB07B030BD0030014051
:1014500038B505460C46042806D010F1050F03D018
:101460000D488D21FFF7C6FBB4F1807F12D224F026
:101470007F44013C094B5C600022094981F823202C
:101480009A60042D01D1072200E00322034B1A6069
:10149000002038BD012038BDC427000810E000E05E
:1014A00000ED00E008B5FFF707F94FF48030FFF7D3
:1014B00023F9FFF789FA012831D11020FEF736FF12
:1014C0000220FEF71FFF0020FFF7BCF90020FFF706
:1014D000FDF94FF48060FFF7D9F94FF480304FF4F5
:1014E000E011FFF737F90120FFF780F93920FFF706
:1014F00033FA0028FAD00220FFF788F9FFF79AF9AB
:101500000828FBD104200649FFF7A2FF3C20012157
:10151000FFF7FCF94FF480500121FFF7F7F908BD00
:1015200080FC0A0008B5FFF7BDFFFFF703FFFFF7D8
:1015300059FFFFF75FFF08BD38B5044610F0070FED
:1015400002D020F00704083400F092FC0E4B1B6818
:1015500023B90E4B23F007030B4A13600C4B1B6897
:101560001C4444F2F732944207D8A34207D2064AF9
:1015700015681D44064B1C6002E0002500E00025B4
:1015800000F00AFD284638BD7802002084020020C1
:1015900074020020704700BF00F1080343604FF061
:1015A000FF328260C360036100230360704700BFA5
:1015B00000230361704700BF43684B609A688A60EC
:1015C0009A6851609960086103680133036070474D
:1015D00030B40D68B5F1FF3F01D1026907E000F1B9
:1015E000080200E01A4653681C68AC42FAD95368F6
:1015F0004B6099608A605160086103680133036041
:1016000030BC7047036942688168916082684168B4
:1016100051605A68824201D182685A600022026198
:10162000186801381860704706480068006880F341
:10163000088862B661B6BFF34F8FBFF36F8F00DFCC
:1016400000BF000008ED00E04FF0807340F8043C5C
:1016500040F8081C034B40F80C3C40F8202C403864
:10166000704700BFB5160008074B19680868B0E856
:10167000F00F80F30988BFF36F8F4FF0000080F305
:1016800011884EF00D0E7047204700204FF0805219
:10169000034B1A60BFF34F8FBFF36F8F704700BFCC
:1016A00004ED00E0EFF311804FF0BF0181F31188EA
:1016B0007047002008B5FFF7F5FFFEE708B5FFF714
:1016C000F1FF044A136801331360BFF34F8FBFF378
:1016D0006F8F08BD2C00002080F31188704700BF79
:1016E00008B5044A1368013B136013B90020FFF7E3
:1016F000F3FF08BD2C000020EFF30980BFF36F8FCC
:101700000D4B1A6820E9F00F10602DE908404FF0EA
:10171000BF0080F3118800F01DFD4FF0000080F342
:101720001188BDE8084019680868B0E8F00F80F338
:101730000988BFF36F8F70472047002008B5FFF777
:10174000B1FF00F0A3FB18B14FF08052024B1A60BA
:101750000020FFF7C1FF08BD04ED00E0034A044B81
:101760001A600722043B1A60704700BF3F1901004E
:1017700014E000E008B5094B1A6842F47F021A60D1
:101780001A6842F07F421A60FFF7E8FF0022044B1C
:101790001A60FFF749FFFFF78DFF00BF20ED00E063
:1017A0002C00002010B50446FFF788FFA26BE36B06
:1017B0009A4201D1012400E00024FFF791FF204666
:1017C00010BD00BF10B50446FFF778FFA36B0BB93F
:1017D000012400E00024FFF783FF204610BD00BF76
:1017E00038B504461546026C3AB903685BBB4068DD
:1017F00000F0E8FD002363602CE06DB9806800F024
:1018000043FEA268236C1344A360626893421CD316
:101810002368A36000201DE0C06800F035FE236C43
:101820005B42E2681A44E26021688A4202D262683E
:101830001344E360022D0AD1A36B53B1A36B013BA8
:10184000A363002006E0002004E0002002E0002066
:1018500000E00020A36B0133A36338BD026C72B1BA
:1018600010B5C3681344C3604468A34201D303683E
:10187000C36003460846D96800F006FE10BD7047F5
:1018800010B50446FFF71AFF0BE0636A63B104F179
:10189000240000F0C9FC08B100F03AFDA36C013B44
:1018A000A364A36C002BF0DC4FF0FF33A364FFF7BD
:1018B00017FFFFF703FF0BE0236963B104F110008A
:1018C00000F0B2FC08B100F023FD636C013B6364DF
:1018D000636C002BF0DC4FF0FF336364FFF700FF15
:1018E00010BD00BF38B504460D46FFF7E7FE21687E
:1018F000E26B236C03FB021060600020A063A16018
:10190000013A02FB0313E3604FF0FF336364A36407
:1019100055B9236983B104F1100000F085FC01285A
:101920000AD1FFF7B3FE07E004F11000FFF734FE21
:1019300004F12400FFF730FEFFF7D2FE012038BD8E
:10194000F8B5064617460D4619B101FB00F0013007
:1019500000E000205430FFF7EFFD044668B10DB9F8
:10196000206002E000F154030360E6632564204632
:101970000121FFF7B7FF84F850702046F8BD00BF83
:10198000F0B585B004460F4601921E460025FFF7CC
:1019900095FEA26BE36B9A4201D3022E16D120462C
:1019A00039463246FFF71CFF636A43B104F1240055
:1019B00000F03AFC012805D1FFF768FE02E008B10B
:1019C000FFF764FEFFF78CFE012042E0019B1BB98C
:1019D000FFF786FE00203CE01DB902A800F060FC85
:1019E0000125FFF77DFE00F043FAFFF767FE636C09
:1019F000B3F1FF3F01D100236364A36CB3F1FF3F58
:101A000001D10023A364FFF76BFE02A801A900F037
:101A100053FCC0B92046FFF7C5FE70B104F11000B9
:101A2000019900F0D3FB2046FFF72AFF00F0B4FA3B
:101A30000028ACD1FFF72AFEA9E72046FFF720FFD8
:101A400000F0AAFAA3E72046FFF71AFF00F0A4FA75
:101A5000002005B0F0BD00BF70B506465420FFF76A
:101A60006BFD0446D8B10025456005608560C56002
:101A700085630123C36305644FF0FF3343648364CC
:101A800080F850601030FFF787FD04F12400FFF765
:101A900083FD204629462A462B46FFF771FF204644
:101AA00070BD00BFF0B585B004460F4601921E46DA
:101AB0000025FFF703FEA36B33B3E56820463946E4
:101AC000FFF7CCFE96B9A36B013BA363236813B960
:101AD00000F0B8FC6060236993B104F1100000F0DD
:101AE000A3FB01280CD1FFF7D1FD09E0E560636A93
:101AF00033B104F1240000F097FB08B1FFF7C6FDF5
:101B0000FFF7EEFD01204BE0019B1BB9FFF7E8FD5D
:101B1000002045E01DB902A800F0C2FB0125FFF737
:101B2000DFFD00F0A5F9FFF7C9FD636CB3F1FF3FDE
:101B300001D100236364A36CB3F1FF3F01D1002303
:101B4000A364FFF7CDFD02A801A900F0B5FB08BB17
:101B50002046FFF737FEB8B1236833B9FFF7AEFD73
:101B6000606800F0DBFBFFF7BBFD04F12400019986
:101B700000F02CFB2046FFF783FE00F00DFA002852
:101B800097D1FFF783FD94E72046FFF779FE00F039
:101B900003FA8EE72046FFF773FE00F0FDF9002000
:101BA00005B0F0BD0A4B1B681B680BB9012300E0B0
:101BB000002323B14FF0FF32064B1A607047044BED
:101BC0001B68DB68DB685A68024B1A60704700BF0D
:101BD0007C4600203000002010B50446006BFFF763
:101BE000D9FC2046FFF7D6FC10BD00BF70B50646F5
:101BF0000C4619B98000FFF79FFC044654B15C20E5
:101C0000FFF79AFC054608B1046304E02046FFF79D
:101C1000C1FC00E0002525B1286BA521B20000F031
:101C20003EFC284670BD00BF70B504461546002333
:101C300006E0C85CE21882F83400CA5C12B10133D5
:101C40000F2BF6D9002384F84330042D00D9042546
:101C5000E562E56400262665201DFFF7A9FC04F176
:101C60001800FFF7A5FC2461C5F10505A5616462B4
:101C7000666584F8586070BD38B5002407E004EB51
:101C800084039B000E481844FFF786FC0134042CA3
:101C9000F5D90C4D2846FFF77FFC0B4C2046FFF78B
:101CA0007BFC0A48FFF778FC0948FFF775FC0948F8
:101CB000FFF772FC084B1D60084B1C6038BD00BF6D
:101CC000B4460020484700209C46002024470020BE
:101CD000884600205C4700207C46002040470020CA
:101CE00010B504460E4B1B6858600E4B1B6898429B
:101CF00007D20D4B18680A4B19680431FFF768FCCE
:101D000010BD0A4B1868064B19680431FFF760FCD8
:101D1000074B1B689C4201D2054B1C6010BD00BFE5
:101D2000204700203C470020404700207C46002000
:101D3000300000202DE9F04782B081468A461646E1
:101D400098460B9F10460C99FFF750FF00284BD088
:101D50000446036B06F18045013D03EB850525F044
:101D60000705009651460A9A0D9BFFF75DFF28462E
:101D700049464246FFF768FC206007B13C60FFF728
:101D80009DFC234A136801331360224B1B683BB947
:101D9000204B1C601368012B0DD1FFF76DFF0AE08B
:101DA0001D4B1B683BB91B4B1B68DB6A0A9A9342AD
:101DB00001D8184B1C60194A13680133136063641F
:101DC000E36A012505FA03F015490A6802430A602F
:101DD00003EB83039B0013481844211DFFF7ECFB22
:101DE000FFF77EFC2C4601E04FF0FF34012C0AD1B6
:101DF000094B1B683BB1074B1B68DB6A0A9A93428D
:101E000001D2FFF743FC204602B0BDE8F08700BFD7
:101E10001C47002020470020804600204447002027
:101E200070470020B446002000B585B00023009321
:101E30000193029303930A480A497822FFF77AFF35
:101E4000012809D1FFF72EFC0122074B1A6000225E
:101E5000064B1A60FFF78EFC05B05DF804FB00BF6F
:101E60003D210008E4270008804600203C47002070
:101E7000024A136801331360704700BF18470020FF
:101E8000014B1868704700BF3C470020F8B5374B3E
:101E90001B68002B5CD1364B1A6801321A601F6830
:101EA0005FB9344A1168344B186810601960334ABE
:101EB000136801331360FFF775FE314B1B689F42B7
:101EC00003D2002639E0012600E00026294B1B68DA
:101ED0001B680BB9012300E0002323B14FF0FF3250
:101EE000274B1A6029E0234B1B68DB68DC686368BA
:101EF0009F4202D2224A13601FE0251D2846FFF7A9
:101F000081FBA36A1BB104F11800FFF77BFBE06AB9
:101F1000012383401B490A6813430B6000EB8000D8
:101F20008000194B18442946FFF746FBE26A174B1D
:101F30001B68DB6A9A42C6D2C8E7144B1B68DB6A8F
:101F400003EB83039B00104AD358012B06D806E00D
:101F50000F4A136801331360002600E001260D4B81
:101F60001B6803B101263046F8BD00BF18470020AA
:101F70003C4700207C460020404700203847002096
:101F80003000002070470020B44600202047002089
:101F9000B04600207447002038B5FFF78FFB2A4B6E
:101FA0001A68013A1A601B68002B45D1274B1B6841
:101FB00023BB002443E0264BDB68DC6804F11800F7
:101FC000FFF720FB251D2846FFF71CFBE06A0123D5
:101FD000834020490A6813430B6000EB80008000B7
:101FE0001D4B18442946FFF7E7FAE26A1B4B1B68B2
:101FF000DB6A9A4202D30122194B1A60144B1B6808
:10200000002BD8D1174B1B6853B90DE0FFF73EFFEB
:1020100010B10122124B1A60124A1368013B13607F
:10202000104B1B68002BF1D10D4B1B68012B05D108
:10203000FFF72CFB012402E0002400E00024FFF75E
:102040004FFB204638BD00BF184700201C4700202A
:102050002447002070470020B4460020204700207D
:1020600074470020B046002038B505460C46FFF7FF
:10207000FFFE1A4B1A682B681C449A4205D2A342F1
:1020800009D9944209D800230CE0A34207D894420E
:1020900007D8002306E0002304E0012302E0012327
:1020A00000E001232C6093B10D4B18680430FFF75A
:1020B000A9FA48B90A4B1B68DA6A01239340094917
:1020C0000A6822EA03030B602046FFF709FEFFF7C8
:1020D00063FF08B9FFF7DAFA38BD00BF3C470020BC
:1020E000204700207047002010B51BE0FFF7C0FE1E
:1020F0000F4B1C68FFF750FFA4B1FFF7DFFA0C4B42
:10210000DB68DC68201DFFF77DFA0A4A1368013B93
:102110001360094A1368013B1360FFF7E1FA204698
:10212000FFF75AFD044B1B68002BDFD110BD00BF29
:10213000884600201C4700208446002008B5FFF791
:10214000D3FF034B1B68012BF9D9FFF79FFAF6E782
:10215000B4460020184B1B681BB10122174B1A60B4
:10216000704710B40022154B1A60154B1B68B3FA68
:1021700083F3DBB2C3F11F03124C9A00D11889001C
:1021800021444868406848601A449200083222445A
:10219000904205D1416803EB8302920022445160D2
:1021A00003EB83039B00074A13445B68DA68064B22
:1021B0001A605DF8044B70471847002074470020F0
:1021C00070470020B44600202047002038B50D4657
:1021D000114C21681831FFF7FBF920680430FFF734
:1021E00011FA40B92368DA6A012393400B490A685F
:1021F00022EA03030B60B5F1FF3F06D1064B1968D5
:1022000007480431FFF7D8F938BD064B1868284451
:10221000FFF766FD38BD00BF204700207047002053
:102220005C4700203C47002038B5C368DC6804F1F7
:1022300018052846FFF7E6F9134B1B689BB9251DC7
:102240002846FFF7DFF9E36A01229A400F48016848
:102250000A43026003EB83039B000D4818442946A0
:10226000FFF7AAF903E00B482946FFF7A5F9E26A50
:10227000094B1B68DB6A9A4203D90120074B18609F
:1022800038BD002038BD00BF18470020704700202F
:10229000B446002024470020204700207447002037
:1022A000034B1B680360034B1B684360704700BF10
:1022B000384700203C47002038B504460D46FFF75C
:1022C000FDF9114B1A682B68B3F1FF3F13D020685A
:1022D0000E490968884202D0616891420DD961684F
:1022E000501A83420BD98A1A13442B602046FFF7F9
:1022F000D7FF002404E0002402E0012400E00124D0
:10230000FFF7EEF9204638BD3C4700203847002053
:102310000122014B1A60704774470020002849D001
:1023200038B50346C16A244A1268D26A914240D243
:102330008269002A05DB204A1268D26AC2F10502CE
:1023400082615969DA6A02EB820292001B480244F8
:10235000914201D1012200E0002232B31C461D1D32
:102360002846FFF74FF968B9E26A02EB82039B0047
:102370001249CB5833B90123934011490A6822EA24
:1023800003030B600C4B1B68D86AE0620123834097
:102390000B490A6813430B6000EB80008000074B79
:1023A00018442946FFF708F938BD034A1268D26A73
:1023B000DA6238BD704700BF20470020B4460020D5
:1023C00070470020002833D038B50346026D013A2B
:1023D0000265C06AD96C88422CD06ABB1C461D1DA0
:1023E0002846FFF70FF968B9E26A02EB82039B0007
:1023F0001249CB5833B90123934011490A6822EAA4
:1024000003030B60E06CE062C0F10503A3610124EB
:1024100004FA00F10A4A13680B43136000EB8000D2
:102420008000064B18442946FFF7C6F8204638BD01
:1024300000207047002038BD002038BDB446002081
:1024400070470020054B1B6823B1044B1A68136DBD
:1024500001331365014B1868704700BF2047002007
:10246000034660B9074A52F8202002B1107009B142
:1024700000220A70034A42F82310002070470B2004
:10248000704700BF7847002010B5431E0A449142B0
:1024900004D011F8014B03F8014FF8E710BD0346D3
:1024A0000244934202D003F8011BFAE77047000090
:1024B0002E2E2F73797374656D2F7372632F73745F
:1024C0006D333266312D7374647065726970682F74
:1024D0006D6973632E6300002E2E2F7379737465FC
:1024E0006D2F7372632F73746D333266312D737475
:1024F000647065726970682F73746D333266313041
:10250000785F666C6173682E630000002E2E2F7357
:10251000797374656D2F7372632F73746D333266C4
:10252000312D7374647065726970682F73746D33C4
:1025300032663130785F6770696F2E63000000008B
:102540002E2E2F73797374656D2F7372632F7374CE
:102550006D333266312D7374647065726970682FE3
:1025600073746D3332663130785F7263632E63004B
:102570002E2E2F73797374656D2F7372632F73749E
:102580006D333266312D7374647065726970682FB3
:1025900073746D3332663130785F7370692E630007
:1025A000000000000000005F0000000700070014AA
:1025B0007F147F14242A7F2A122313086462364969
:1025C0005522500005030000001C2241000041225A
:1025D0001C00082A1C2A0808083E08080050300081
:1025E0000008080808080030300000201008040225
:1025F0003E5149453E00427F4000426151494621DB
:1026000041454B311814127F1027454545393C4A46
:102610004949300171090503364949493606494996
:10262000291E00363600000056360000000814222D
:102630004114141414144122140800020151090613
:10264000324979413E7E1111117E7F494949363E1A
:10265000414141227F4141221C7F494949417F0933
:102660000901013E414151327F0808087F00417F46
:1026700041002040413F017F081422417F404040FB
:10268000407F0204027F7F0408107F3E4141413EAB
:102690007F090909063E4151215E7F0919294646F5
:1026A0004949493101017F01013F4040403F1F201E
:1026B00040201F7F2018207F6314081463030478D0
:1026C0000403615149454300007F41410204081061
:1026D0002041417F0000040201020440404040408C
:1026E000000102040020545454787F484444383890
:1026F00044444420384444487F3854545418087E95
:10270000090102081454543C7F0804047800447DF5
:1027100040002040443D00007F10284400417F409D
:10272000007C041804787C08040478384444443855
:102730007C14141408081414187C7C080404084839
:1027400054545420043F4440203C4040207C1C20F2
:1027500040201C3C4030403C44281028440C505041
:10276000503C4464544C44000836410000007F0053
:1027700000004136080008082A1C08081C2A08081E
:102780005461736B310000005461736B32000000C0
:10279000765461736B436865636B4B657900000029
:1027A0007461736B206B6579000000007461736B5A
:1027B0002073640035363738390000003031323349
:1027C000340000002E2E2F6D795F696E6974696187
:1027D0006C697A652F696E697469616C697A652EB6
:0C27E0006300000049444C45000000006C
:1027EC00785634123C00002000000000000000006D
:1027FC0000000000010203040607080900A24A04B5
:10280C00AC270008B4270008A0270008AAAAAAAA87
:08281C00FFFFFFFF3254769824
:040000050800010DE1
:00000001FF
